{
  "contractName": "BConst",
  "abi": [
    {
      "constant": true,
      "inputs": [],
      "name": "getColor",
      "outputs": [
        {
          "internalType": "bytes32",
          "name": "",
          "type": "bytes32"
        }
      ],
      "payable": false,
      "stateMutability": "view",
      "type": "function"
    }
  ],
  "bytecode": "0x6080604052348015600f57600080fd5b5060ba8061001e6000396000f3fe6080604052348015600f57600080fd5b50600436106044577c010000000000000000000000000000000000000000000000000000000060003504639a86139b81146049575b600080fd5b604f6061565b60408051918252519081900360200190f35b7f42524f4e5a4500000000000000000000000000000000000000000000000000009056fea265627a7a72315820532df7e89ed7e55870939a6e7a4433339b6f9b3c8a5df694bd09bf5bbf71056164736f6c634300050b0032",
  "source": "// This program is free software: you can redistribute it and/or modify\n// it under the terms of the GNU General Public License as published by\n// the Free Software Foundation, either version 3 of the License, or\n// (at your option) any later version.\n\n// This program is distributed in the hope that it will be useful,\n// but WITHOUT ANY WARRANTY; without even the implied warranty of\n// MERCHANTABILITY or FITNESS FOR A PARTICULAR PURPOSE.  See the\n// GNU General Public License for more details.\n\n// You should have received a copy of the GNU General Public License\n// along with this program.  If not, see <http://www.gnu.org/licenses/>.\n\npragma solidity ^0.5.11;\n\nimport \"contracts/BColor.sol\";\n\ncontract BConst is BBronze\n{\n    uint256 constant BONE              = 10**18;\n\n    uint256 constant MAX_BOUND_TOKENS  = 8;\n    uint256 constant BPOW_PRECISION    = BONE / 10**10;\n\n// TODO check carefully inclusive vs exlusive ranges\n\n    uint256 constant MIN_FEE           = BONE / 10000;\n    uint256 constant MAX_FEE           = BONE / 10;\n\n    uint256 constant MIN_WEIGHT        = BONE;\n    uint256 constant MAX_WEIGHT        = BONE * 50;\n    uint256 constant MAX_TOTAL_WEIGHT  = BONE * 50;\n    uint256 constant MIN_BALANCE       = BONE / 10**6;\n    uint256 constant MAX_BALANCE       = BONE * 10**12;\n\n    uint256 constant MIN_POOL_SUPPLY   = BONE;\n\n    uint constant MIN_BPOW_BASE        = 1 wei;\n    uint constant MAX_BPOW_BASE        = (2 * BONE) - 1 wei;\n\n    uint256 constant MAX_IN_RATIO      = BONE / 2;\n    uint256 constant MAX_OUT_RATIO     = (BONE / 3) + 1 wei;\n    uint256 constant MIN_SLIP_PRICE    = BONE * 55 / 100;\n\n\n    string constant ERR_ADD_OVERFLOW       = \"ERR_ADD_OVERFLOW\";\n    string constant ERR_SUB_UNDERFLOW      = \"ERR_SUB_UNDERFLOW\";\n    string constant ERR_MUL_OVERFLOW       = \"ERR_MUL_OVERFLOW\";\n    string constant ERR_DIV_ZERO           = \"ERR_DIV_ZERO\";\n    string constant ERR_DIV_INTERNAL       = \"ERR_DIV_INTERNAL\";\n    string constant ERR_BPOW_BASE_TOO_HIGH = \"ERR_BPOW_BASE_TOO_HIGH\";\n    string constant ERR_BPOW_BASE_TOO_LOW  = \"ERR_BPOW_BASE_TOO_LOW\";\n\n    string constant ERR_MAX_TOKENS         = \"ERR_MAX_TOKENS\";\n    string constant ERR_MAX_FEE            = \"ERR_MAX_FEE\";\n    string constant ERR_MIN_WEIGHT         = \"ERR_MIN_WEIGHT\";\n    string constant ERR_MAX_WEIGHT         = \"ERR_MAX_WEIGHT\";\n    string constant ERR_MIN_BALANCE        = \"ERR_MIN_BALANCE\";\n    string constant ERR_MAX_BALANCE        = \"ERR_MAX_BALANCE\";\n    string constant ERR_MAX_TOTAL_WEIGHT   = \"ERR_MAX_TOTAL_WEIGHT\";\n    string constant ERR_MIN_POOL_SUPPLY    = \"ERR_MIN_POOL_SUPPLY\";\n\n    string constant ERR_IS_BOUND           = \"ERR_IS_BOUND\";\n    string constant ERR_NOT_BOUND          = \"ERR_NOT_BOUND\";\n\n    string constant ERR_IS_FINALIZED       = \"ERR_IS_FINALIZED\";\n    string constant ERR_NOT_FINALIZED      = \"ERR_NOT_FINALIZED\";\n\n    string constant ERR_NOT_CONTROLLER     = \"ERR_NOT_CONTROLLER\";\n    string constant ERR_NOT_FACTORY        = \"ERR_NOT_FACTORY\";\n\n    string constant ERR_SWAP_NOT_PUBLIC    = \"ERR_SWAP_NOT_PUBLIC\"; // trying to swap\n    string constant ERR_JOIN_NOT_PUBLIC    = \"ERR_JOIN_NOT_PUBLIC\"; // trying to join\n    string constant ERR_EXIT_NOT_PUBLIC    = \"ERR_EXIT_NOT_PUBLIC\"; // trying to exit (never thrown in bronze)\n    string constant ERR_EXIT_ALWAYS_PUBLIC = \"ERR_EXIT_ALWAYS_PUBLIC\"; // trying to setPublicExit(false) in bronze\n\n    string constant ERR_REENTRY            = \"ERR_REENTRY\";\n    string constant ERR_ERC20_FALSE        = \"ERR_ERC20_FALSE\";\n    \n    string constant ERR_UNREACHABLE        = \"ERR_UNREACHABLE\";\n\n    string constant ERR_MAX_IN_RATIO       = \"ERR_MAX_IN_RATIO\";\n    string constant ERR_MAX_OUT_RATIO      = \"ERR_MAX_OUT_RATIO\";\n\n    string constant ERR_LIMIT_IN           = \"ERR_LIMIT_IN\";\n    string constant ERR_LIMIT_OUT          = \"ERR_LIMIT_OUT\";\n    string constant ERR_LIMIT_PRICE        = \"ERR_LIMIT_PRICE\";\n    string constant ERR_NO_SOLUTION        = \"ERR_NO_SOLUTION\";\n\n    string constant ERR_ARG_LIMIT_IN       = \"ERR_ARG_LIMIT_IN\";\n    string constant ERR_ARG_LIMIT_OUT      = \"ERR_ARG_LIMIT_OUT\";\n    string constant ERR_ARG_LIMIT_PRICE    = \"ERR_ARG_LIMIT_PRICE\";\n\n}\n",
  "sourcePath": "contracts/BConst.sol",
  "compiler": {
    "name": "solc",
    "version": "0.5.11+commit.c082d0b4.Emscripten.clang"
  },
  "schemaVersion": "3.0.11",
  "updatedAt": "2019-10-22T14:50:06.728Z",
  "devdoc": {
    "methods": {}
  },
  "userdoc": {
    "methods": {}
  }
}