{
  "contractName": "BMath",
  "abi": [
    {
      "constant": true,
      "inputs": [],
      "name": "getColor",
      "outputs": [
        {
          "internalType": "bytes32",
          "name": "",
          "type": "bytes32"
        }
      ],
      "payable": false,
      "stateMutability": "view",
      "type": "function"
    }
  ],
  "bytecode": "0x6080604052348015600f57600080fd5b5060ba8061001e6000396000f3fe6080604052348015600f57600080fd5b50600436106044577c010000000000000000000000000000000000000000000000000000000060003504639a86139b81146049575b600080fd5b604f6061565b60408051918252519081900360200190f35b7f42524f4e5a4500000000000000000000000000000000000000000000000000009056fea265627a7a7231582062972860f27c8a87b85995d612bd6b01c8ac31b8a9af4dd5f7f55e6f9772059464736f6c634300050b0032",
  "source": "// This program is free software: you can redistribute it and/or modify\n// it under the terms of the GNU General Public License as published by\n// the Free Software Foundation, either version 3 of the License, or\n// (at your option) any later version.\n\n// This program is distributed in the hope that it will be useful,\n// but WITHOUT ANY WARRANTY; without even the implied warranty of\n// MERCHANTABILITY or FITNESS FOR A PARTICULAR PURPOSE.  See the\n// GNU General Public License for more details.\n\n// You should have received a copy of the GNU General Public License\n// along with this program.  If not, see <http://www.gnu.org/licenses/>.\n\npragma solidity ^0.5.11;\n\nimport \"contracts/BColor.sol\";\nimport \"contracts/BConst.sol\";\nimport \"contracts/BNum.sol\";\n\ncontract BMath is BBronze, BConst, BNum\n{\n    // P = ((Bi/Wi)/(Bo/Wo)) * (1/(1-f))\n    function _calc_SpotPrice( uint Bi, uint Wi, uint Bo, uint Wo, uint f) \n      internal pure\n        returns ( uint P )\n    {\n        uint numer = bdiv(Bi, Wi);\n        uint denom = bdiv(Bo, Wo);\n        uint ratio = bdiv(numer, denom);\n        uint scale = bdiv(BONE, bsub(BONE, f));\n        return  (P = bmul(ratio, scale));\n    }\n\n    // Ao = Bo * (1 - (Bi/(Bi + Ai * (1 - fee)))^(Wi/Wo))\n    function _calc_OutGivenIn\n      ( uint Bi, uint Wi\n      , uint Bo, uint Wo\n      , uint Ai\n      , uint fee\n      )\n        pure\n        internal\n        returns ( uint Ao )\n    {\n        uint wRatio     = bdiv(Wi, Wo);\n        uint adjustedIn = bsub(BONE, fee);\n             adjustedIn = bmul(Ai, adjustedIn);\n        uint y          = bdiv(Bi, badd(Bi, adjustedIn));\n        uint foo        = bpow(y, wRatio);\n        uint bar        = bsub(BONE, foo);\n             Ao         = bmul(Bo, bar);\n        return Ao;\n\t}\n\n    // Ai = Bi * ((Bo/(Bo - Ao))^(Wo/Wi) - 1) / (1 - fee)\n    function _calc_InGivenOut( uint Bi, uint Wi\n                             , uint Bo, uint Wo\n                             , uint Ao\n                             , uint fee\n                             )\n      internal pure\n        returns ( uint Ai )\n    {\n        uint wRatio = bdiv(Wo, Wi);\n        uint diff   = bsub(Bo, Ao);\n        uint y      = bdiv(Bo, diff);\n        uint foo    = bpow(y, wRatio);\n             foo    = bsub(foo, BONE);\n             Ai     = bsub(BONE, fee);\n             Ai     = bdiv(bmul(Bi, foo), Ai);\n        return Ai;\n    }\n\n    function _calc_InGivenPrice( uint Bi, uint Wi\n                               , uint Bo , uint Wo\n                               , uint SP1\n                               , uint fee)\n      internal pure\n        returns ( uint Ai )\n    {\n        uint SP0    = _calc_SpotPrice(Bi, Wi, Bo, Wo, 0);\n        uint base    = bdiv(SP1, SP0);\n        uint exp     = bdiv(Wo, badd(Wo, Wi));\n        Ai           = bsub(bpow(base, exp), BONE);\n        Ai           = bmul(Ai, Bi);\n        uint foo     = bsub(BONE, fee);\n        Ai           = bdiv(Ai, foo);\n        return Ai;\n    }\n\n    // Pissued = Ptotal * ((1+(tAi/B))^W - 1)\n    function _calc_PoolOutGivenSingleIn( uint balTi, uint weight\n                                       , uint poolSupply, uint totalWeight\n                                       , uint tAi, uint swapFee )\n      internal pure\n        returns (uint pAo)\n    {\n        // Charge the trading fee for the proportion of tokenAi\n        ///  which is implicitly traded to the other pool tokens.\n        // That proportion is (1- weightTi)\n        // tokenAiAfterFee = tAi * (1 - (1-weightTi) * poolFee);\n        uint normalizedWeight = bdiv(weight, totalWeight);\n        uint zaz = bmul(bsub(BONE, normalizedWeight), swapFee); \n        uint tAiAfterFee = bmul(tAi, bsub(BONE, zaz));\n\n        uint newBalTi = badd(balTi, tAiAfterFee);\n        uint TiRatio = bdiv(newBalTi, balTi);\n\n        // uint newPoolSupply = (ratioTi ^ weightTi) * poolSupply;\n        uint poolRatio = bpow(TiRatio, normalizedWeight);\n        uint newPoolSupply = bmul(poolRatio, poolSupply);\n        pAo = bsub(newPoolSupply, poolSupply);\n        return pAo;\n    }\n\n    function _calc_SingleInGivenPoolOut( uint balTi, uint weight\n                                       , uint poolSupply, uint totalWeight\n                                       , uint pAo, uint swapFee)\n      internal pure\n        returns (uint tAi)\n    {\n        uint normalizedWeight = bdiv(weight, totalWeight);\n        uint newPoolSupply = badd(poolSupply, pAo);\n        uint poolRatio = bdiv(newPoolSupply, poolSupply);\n      \n        //uint newBalTi = poolRatio^(1/weightTi) * balTi;\n        uint boo = bdiv(BONE, normalizedWeight); \n        uint TiRatio = bpow(poolRatio, boo);\n        uint newBalTi = bmul(TiRatio, balTi);\n        uint tAiAfterFee = bsub(newBalTi, balTi);\n        // Do reverse order of fees charged in joinswap_ExternAmountIn, this way \n        //     ``` pAo == joinswap_ExternAmountIn(Ti, joinswap_PoolAmountOut(pAo, Ti)) ```\n        //uint tAi = tAiAfterFee / (1 - (1-weightTi) * swapFee) ;\n        uint zar = bmul(bsub(BONE, normalizedWeight), swapFee);\n        tAi = bdiv(tAiAfterFee, bsub(BONE, zar));\n        return tAi;\n    }\n\n    function _calc_SingleOutGivenPoolIn( uint balTo, uint weight\n                                       , uint poolSupply, uint totalWeight\n                                       , uint pAi, uint swapFee, uint exitFee)\n      internal pure\n        returns (uint tAo)\n    {\n        uint normalizedWeight = bdiv(weight, totalWeight);\n        // charge exit fee on the pool token side\n        // pAiAfterExitFee = pAi*(1-exitFee)\n        uint pAiAfterExitFee = bmul(pAi, bsub(BONE, exitFee));\n        uint newPoolSupply = bsub(poolSupply,pAiAfterExitFee);\n        uint poolRatio = bdiv(newPoolSupply, poolSupply);\n     \n        // newBalTo = poolRatio^(1/weightTo) * balTo;\n        uint ToRatio = bpow(poolRatio, bdiv(BONE, normalizedWeight));\n        uint newBalTo = bmul(ToRatio, balTo);\n\n        uint tAoBeforeSwapFee = bsub(balTo,newBalTo);\n\n        // charge swap fee on the output token side \n        //uint tAo = tAoBeforeSwapFee * (1 - (1-weightTo) * swapFee)\n        uint zaz = bmul(bsub(BONE, normalizedWeight), swapFee); \n        tAo = bmul(tAoBeforeSwapFee, bsub(BONE, zaz));\n        return tAo;\n    }\n\n    function _calc_PoolInGivenSingleOut( uint balTo, uint weight\n                                       , uint poolSupply, uint totalWeight\n                                       , uint tAo, uint swapFee, uint exitFee)\n      internal pure\n        returns (uint pAi)\n    {\n\n        // charge swap fee on the output token side \n        uint normalizedWeight = bdiv(weight, totalWeight);\n        //uint tAoBeforeSwapFee = tAo / (1 - (1-weightTo) * swapFee) ;\n        uint zoo = bsub(BONE, normalizedWeight);\n        uint zar = bmul(zoo, swapFee); \n        uint tAoBeforeSwapFee = bdiv(tAo, bsub(BONE, zar));\n\n        uint newBalTo = bsub(balTo,tAoBeforeSwapFee);\n        uint ToRatio = bdiv(newBalTo, balTo);\n\n        //uint newPoolSupply = (ratioTo ^ weightTo) * poolSupply;\n        uint poolRatio = bpow(ToRatio, normalizedWeight);\n        uint newPoolSupply = bmul(poolRatio, poolSupply);\n        uint pAiAfterExitFee = bsub(poolSupply,newPoolSupply);\n\n        // charge exit fee on the pool token side\n        // pAi = pAiAfterExitFee/(1-exitFee)\n        pAi = bdiv(pAiAfterExitFee, bsub(BONE, exitFee));\n        return pAi;\n    }\n\n\n}\n",
  "sourcePath": "contracts/BMath.sol",
  "compiler": {
    "name": "solc",
    "version": "0.5.11+commit.c082d0b4.Emscripten.clang"
  },
  "schemaVersion": "3.0.16",
  "updatedAt": "2019-10-29T00:16:43.926Z",
  "devdoc": {
    "methods": {}
  },
  "userdoc": {
    "methods": {}
  }
}