{
  "contractName": "BMath",
  "abi": [
    {
      "constant": true,
      "inputs": [],
      "name": "getColor",
      "outputs": [
        {
          "internalType": "bytes32",
          "name": "",
          "type": "bytes32"
        }
      ],
      "payable": false,
      "stateMutability": "view",
      "type": "function"
    }
  ],
  "bytecode": "0x6080604052348015600f57600080fd5b5060ba8061001e6000396000f3fe6080604052348015600f57600080fd5b50600436106044577c010000000000000000000000000000000000000000000000000000000060003504639a86139b81146049575b600080fd5b604f6061565b60408051918252519081900360200190f35b7f42524f4e5a4500000000000000000000000000000000000000000000000000009056fea265627a7a723158206dac87a2a719edf206039bf766a791589113a4e873937fbb0b99dcf5e7dc695964736f6c634300050b0032",
  "source": "// This program is free software: you can redistribute it and/or modify\n// it under the terms of the GNU General Public License as published by\n// the Free Software Foundation, either version 3 of the License, or\n// (at your option) any later version.\n\n// This program is distributed in the hope that it will be useful,\n// but WITHOUT ANY WARRANTY; without even the implied warranty of\n// MERCHANTABILITY or FITNESS FOR A PARTICULAR PURPOSE.  See the\n// GNU General Public License for more details.\n\n// You should have received a copy of the GNU General Public License\n// along with this program.  If not, see <http://www.gnu.org/licenses/>.\n\npragma solidity ^0.5.11;\n\nimport \"contracts/BColor.sol\";\nimport \"contracts/BConst.sol\";\nimport \"contracts/BNum.sol\";\n\ncontract BMath is BBronze, BConst, BNum\n{\n    // P = ((Bi/Wi)/(Bo/Wo)) * (1/(1-f))\n    function _calc_SpotPrice( uint Bi, uint Wi, uint Bo, uint Wo, uint f) \n      internal pure\n        returns ( uint P )\n    {\n        uint numer = bdiv(Bi, Wi);\n        uint denom = bdiv(Bo, Wo);\n        uint ratio = bdiv(numer, denom);\n        uint scale = bdiv(BONE, bsub(BONE, f));\n        return  (P = bmul(ratio, scale));\n    }\n\n    // Ao = Bo * (1 - (Bi/(Bi + Ai * (1 - fee)))^(Wi/Wo))\n    function _calc_OutGivenIn\n      ( uint Bi, uint Wi\n      , uint Bo, uint Wo\n      , uint Ai\n      , uint fee\n      )\n        pure\n        internal\n        returns ( uint Ao )\n    {\n        uint wRatio     = bdiv(Wi, Wo);\n        uint adjustedIn = bsub(BONE, fee);\n             adjustedIn = bmul(Ai, adjustedIn);\n        uint y          = bdiv(Bi, badd(Bi, adjustedIn));\n        uint foo        = bpow(y, wRatio);\n        uint bar        = bsub(BONE, foo);\n             Ao         = bmul(Bo, bar);\n        return Ao;\n\t}\n\n    // Ai = Bi * ((Bo/(Bo - Ao))^(Wo/Wi) - 1) / (1 - fee)\n    function _calc_InGivenOut( uint Bi, uint Wi\n                             , uint Bo, uint Wo\n                             , uint Ao\n                             , uint fee\n                             )\n      internal pure\n        returns ( uint Ai )\n    {\n        uint wRatio = bdiv(Wo, Wi);\n        uint diff   = bsub(Bo, Ao);\n        uint y      = bdiv(Bo, diff);\n        uint foo    = bpow(y, wRatio);\n             foo    = bsub(foo, BONE);\n             Ai     = bsub(BONE, fee);\n             Ai     = bdiv(bmul(Bi, foo), Ai);\n        return Ai;\n    }\n\n    function _calc_InGivenPrice( uint Bi, uint Wi\n                               , uint Bo , uint Wo\n                               , uint SP1\n                               , uint fee)\n      internal pure\n        returns ( uint Ai )\n    {\n        uint SP0    = _calc_SpotPrice(Bi, Wi, Bo, Wo, 0);\n        uint base    = bdiv(SP1, SP0);\n        uint exp     = bdiv(Wo, badd(Wo, Wi));\n        Ai           = bsub(bpow(base, exp), BONE);\n        Ai           = bmul(Ai, Bi);\n        uint foo     = bsub(BONE, fee);\n        Ai           = bdiv(Ai, foo);\n        return Ai;\n    }\n\n    // Pissued = Ptotal * ((1+(tAi/B))^W - 1)\n    function _calc_PoolOutGivenSingleIn( uint balance, uint weight\n                                       , uint poolSupply, uint totalWeight\n                                       , uint tAi, uint fee )\n      internal pure\n        returns (uint poolOut)\n    {\n\n        //=== REDO this block ===\n\n        // Charge the trading fee for the proportion of tokenAi\n        ///  which is implicitly traded to the other pool tokens.\n        // That proportion is (1-T.normalizedWeight)\n        // tokenAiAfterFee = tAi - tAi * (1-T.normalizedWeight) * poolFee;\n\n        uint normalizedWeight = bdiv(weight, totalWeight);\n\n        uint boo = bsub(BONE, normalizedWeight);\n        uint bar = bmul(tAi, bmul(boo, fee));\n        uint baz = bsub(tAi, bar);\n        uint tokenAiAfterFee = baz;\n\n        uint newBalTi = badd(balance, tokenAiAfterFee);\n        uint ratioTi = bdiv(newBalTi, balance);\n\n        // uint newPoolTotal = (ratioTi ^ T.normalizedWeight) * oldPoolTotal;\n        uint zoo = bpow(ratioTi, normalizedWeight);\n        uint zar = bmul(zoo, poolSupply);\n        return (poolOut = bsub(zar, poolSupply));\n\n        //=== ===\n    }\n\n    function _calc_SingleInGivenPoolOut( uint balance, uint weight\n                                       , uint poolSupply, uint totalWeight\n                                       , uint pAo, uint fee)\n      internal pure\n        returns (uint tokenIn)\n    {\n\n        //=== REDO this block ===\n\n        uint normalizedWeight = bdiv(weight, totalWeight);\n        uint newPoolTotal = badd(poolSupply, pAo);\n        uint poolRatio = bdiv(newPoolTotal, poolSupply);\n      \n        //uint newBalTi = poolRatio^(1/T.weight) * T.balance;\n        uint boo = bdiv(BONE, normalizedWeight); \n        uint bar = bpow(poolRatio, boo);\n        uint newBalTi = bmul(bar, balance);\n        uint tokenAi = bsub(newBalTi, balance);\n        // Do reverse order of fees charged in joinswap_ExternAmountIn, this way \n        //     ``` pAo == joinswap_ExternAmountIn(Ti, joinswap_PoolAmountOut(pAo, Ti)) ```\n        //uint tokenAiBeforeFee = tokenAi / (1 - (1-T.weight) * _swapFee) ;\n        uint zoo = bsub(BONE, normalizedWeight);\n        uint zar = bmul(zoo, fee);\n        uint zaz = bsub(BONE, zar);\n        uint tAi = bdiv(tokenAi, zaz);\n        return tAi;\n\n        //=== ===\n    }\n\n    // Temporary hack to avoid stack depth\n    // TODO actually fix it\n    function _calc_SOGPI_helper(uint normalizedWeight, uint pAi, uint fee)\n      internal pure\n        returns (uint pAi_fee)\n    {\n        // pAi_fee = poolAi - poolAi * (1-weightTo) * poolFee\n        uint boo = BONE - normalizedWeight;\n        uint bar = bmul(pAi, boo);\n        uint baz = bmul(bar, fee);\n        pAi_fee = pAi - baz;\n    }\n\n    function _calc_SingleOutGivenPoolIn( uint balance, uint weight\n                                       , uint poolSupply, uint totalWeight\n                                       , uint pAi, uint fee, uint exitFee)\n      internal pure\n        returns (uint tAo)\n    {\n\n        // === REDO this block ===\n\n        uint normalizedWeight = bdiv(weight, totalWeight);\n        uint pAi_fee = _calc_SOGPI_helper(normalizedWeight, pAi, fee);\n\n        uint newPoolTotal = poolSupply - pAi_fee;\n//        uint poolRatio = bdiv(newPoolTotal, poolSupply);\n     \n        // newBalTo = poolRatio^(1/weightTo) * oldBalTo;\n        uint zoo = bdiv(BONE, normalizedWeight); \n        uint zar = bpow(bdiv(newPoolTotal, poolSupply), zoo);\n        uint newBalTo = bmul(zar, balance);\n\n        tAo = balance - newBalTo;\n        return tAo;\n\n        //=== ===\n    }\n\n    function _calc_PoolInGivenSingleOut( uint balance, uint weight\n                                       , uint poolSupply, uint totalWeight\n                                       , uint tAo, uint swapFee, uint exitFee)\n      internal pure\n        returns (uint pAi_beforeFees)\n    {\n\n        // === REDO this block ===\n        uint normalizedWeight = bdiv(weight, totalWeight);\n        uint newBalTo = bsub(balance,tAo);\n        uint ratioTo = bdiv(newBalTo, balance);\n\n        //uint newPoolTotal = (ratioTo ^ weightTo) * _totalSupply;\n        uint boo = bpow(ratioTo, normalizedWeight);\n        uint newPoolTotal = bmul(boo, poolSupply);\n        uint poolAi = bsub(poolSupply,newPoolTotal);\n\n        //uint poolAiBeforeTradingFee = poolAo / (1 - (1-weightTo) * poolTradingFee) ;\n        uint zoo = bsub(BONE, normalizedWeight);\n        uint zar = bmul(zoo, swapFee); \n        uint poolAiBeforeTradingFee = bdiv(poolAi, bsub(BONE, zar));\n\n        uint pAi_beforeFees = bdiv(poolAiBeforeTradingFee, bsub(BONE, exitFee));\n        return pAi_beforeFees;\n\n        //=== ===\n    }\n\n\n}\n",
  "sourcePath": "contracts/BMath.sol",
  "compiler": {
    "name": "solc",
    "version": "0.5.11+commit.c082d0b4.Emscripten.clang"
  },
  "schemaVersion": "3.0.11",
  "updatedAt": "2019-10-22T14:50:06.731Z",
  "devdoc": {
    "methods": {}
  },
  "userdoc": {
    "methods": {}
  }
}