{
  "contractName": "BNum",
  "abi": [
    {
      "constant": true,
      "inputs": [],
      "name": "getColor",
      "outputs": [
        {
          "internalType": "bytes32",
          "name": "",
          "type": "bytes32"
        }
      ],
      "payable": false,
      "stateMutability": "view",
      "type": "function"
    }
  ],
  "bytecode": "0x6080604052348015600f57600080fd5b5060ba8061001e6000396000f3fe6080604052348015600f57600080fd5b50600436106044577c010000000000000000000000000000000000000000000000000000000060003504639a86139b81146049575b600080fd5b604f6061565b60408051918252519081900360200190f35b7f42524f4e5a4500000000000000000000000000000000000000000000000000009056fea265627a7a723158209dda7271e1140f20d9918da5c099dfc66a31d8c08b07932c46378aa6a8c235f264736f6c634300050b0032",
  "source": "// This program is free software: you can redistribute it and/or modify\n// it under the terms of the GNU General Public License as published by\n// the Free Software Foundation, either version 3 of the License, or\n// (at your option) any later version.\n\n// This program is distributed in the hope that it will be useful,\n// but WITHOUT ANY WARRANTY; without even the implied warranty of\n// MERCHANTABILITY or FITNESS FOR A PARTICULAR PURPOSE.  See the\n// GNU General Public License for more details.\n\n// You should have received a copy of the GNU General Public License\n// along with this program.  If not, see <http://www.gnu.org/licenses/>.\n\npragma solidity ^0.5.11;\n\nimport \"contracts/BColor.sol\";\nimport \"contracts/BConst.sol\";\n\ncontract BNum is BBronze, BConst {\n\n    function btoi(uint a) internal pure returns (uint) {\n        return a / BONE;\n    }\n\n    function bfloor(uint a) internal pure returns (uint) {\n        return btoi(a) * BONE;\n    }\n\n    function badd(uint a, uint b) internal pure returns (uint) {\n        uint c = a + b;\n        require(c >= a, ERR_ADD_OVERFLOW);\n        return c;\n    }\n\n    function bsub(uint a, uint b) internal pure returns (uint) {\n        (uint c, bool flag) = bsubSign(a, b);\n        require(!flag, ERR_SUB_UNDERFLOW);\n        return c;\n    }\n\n    function bsubSign(uint a, uint b) internal pure returns (uint, bool) {\n        if (a >= b) {\n            return (a - b, false);\n        } else {\n            return (b - a, true);\n        }\n    }\n\n    function bmul(uint a, uint b) internal pure returns (uint) {\n        uint c0 = a * b;\n        require(a == 0 || c0 / a == b, ERR_MUL_OVERFLOW);\n        uint c1 = c0 + (BONE / 2);\n        require(c1 >= c0, ERR_MUL_OVERFLOW);\n        uint c2 = c1 / BONE;\n        return c2;\n    }\n\n    function bdiv(uint a, uint b) internal pure returns (uint) {\n        require(b != 0, ERR_DIV_ZERO);\n        uint c0 = a * BONE;\n        require(a == 0 || c0 / a == BONE, ERR_DIV_INTERNAL); // bmul overflow\n        uint c1 = c0 + (b / 2);\n        require(c1 >= c0, ERR_DIV_INTERNAL); //  badd require\n        uint c2 = c1 / b;\n        return c2;\n    }\n\n    // DSMath.wpow\n    function bpowi(uint a, uint n) internal pure returns (uint) {\n        uint z = n % 2 != 0 ? a : BONE;\n\n        for (n /= 2; n != 0; n /= 2) {\n            a = bmul(a, a);\n\n            if (n % 2 != 0) {\n                z = bmul(z, a);\n            }\n        }\n        return z;\n    }\n\n    // Compute b^(e.w) by splitting it into (b^e)*(b^0.w).\n    // Use `bpowi` for `b^e` and `bpowK` for k iterations\n    // of approximation of b^0.w\n    function bpow(uint base, uint exp)\n      pure internal\n        returns (uint)\n    {\n        require(base >= MIN_BPOW_BASE, ERR_BPOW_BASE_TOO_LOW);\n        require(base <= MAX_BPOW_BASE, ERR_BPOW_BASE_TOO_HIGH);\n\n        uint whole  = bfloor(exp);   \n        uint remain = bsub(exp, whole);\n\n        uint wholePow = bpowi(base, btoi(whole));\n\n        if (remain == 0) {\n            return wholePow;\n        }\n\n        uint partialResult = bpowApprox(base, remain, BPOW_PRECISION);\n        return bmul(wholePow, partialResult);\n    }\n\n    // TODO pull precision arg back into argument, merge with `bpow`\n    function bpowApprox(uint base, uint exp, uint precision)\n      pure internal\n        returns (uint)\n    {\n        // term 0:\n        uint a     = exp;\n        (uint x, bool xneg)  = bsubSign(base, BONE);\n        uint term = BONE;\n        uint sum   = term;\n        bool negative = false;\n\n\n        // term(k) = numer / denom \n        //         = (product(a - i - 1, i=1-->k) * x^k) / (k!)\n        // each iteration, multiply previous term by (a-(k-1)) * x / k\n        // keep a tally of negative signs in 'negatives' to determine this term's sign\n        // loop until term is less than precision \n        for( uint i = 1; term > precision; i++) {\n            uint bigK = i * BONE;\n            (uint c, bool cneg) = bsubSign(a, bsub(bigK, BONE));\n\n            term                = bmul(term, bmul(c, x));\n            term                = bdiv(term, bigK);\n            if (term == 0) break;\n\n            if (xneg) negative = !negative;\n            if (cneg) negative = !negative;\n            if (negative) {\n                sum      = bsub(sum, term);\n            } else {\n                sum      = badd(sum, term);\n            }\n        }\n\n        return sum;\n    }\n\n}\n",
  "sourcePath": "contracts/BNum.sol",
  "compiler": {
    "name": "solc",
    "version": "0.5.11+commit.c082d0b4.Emscripten.clang"
  },
  "schemaVersion": "3.0.11",
  "updatedAt": "2019-10-22T14:50:06.735Z",
  "devdoc": {
    "methods": {}
  },
  "userdoc": {
    "methods": {}
  }
}