{
  "contractName": "BPool",
  "abi": [
    {
      "constant": false,
      "inputs": [
        {
          "internalType": "address",
          "name": "guy",
          "type": "address"
        },
        {
          "internalType": "uint256",
          "name": "wad",
          "type": "uint256"
        }
      ],
      "name": "approve",
      "outputs": [
        {
          "internalType": "bool",
          "name": "",
          "type": "bool"
        }
      ],
      "payable": false,
      "stateMutability": "nonpayable",
      "type": "function"
    },
    {
      "constant": true,
      "inputs": [],
      "name": "totalSupply",
      "outputs": [
        {
          "internalType": "uint256",
          "name": "",
          "type": "uint256"
        }
      ],
      "payable": false,
      "stateMutability": "view",
      "type": "function"
    },
    {
      "constant": false,
      "inputs": [
        {
          "internalType": "address",
          "name": "src",
          "type": "address"
        },
        {
          "internalType": "address",
          "name": "dst",
          "type": "address"
        },
        {
          "internalType": "uint256",
          "name": "wad",
          "type": "uint256"
        }
      ],
      "name": "transferFrom",
      "outputs": [
        {
          "internalType": "bool",
          "name": "",
          "type": "bool"
        }
      ],
      "payable": false,
      "stateMutability": "nonpayable",
      "type": "function"
    },
    {
      "constant": true,
      "inputs": [
        {
          "internalType": "address",
          "name": "whom",
          "type": "address"
        }
      ],
      "name": "balanceOf",
      "outputs": [
        {
          "internalType": "uint256",
          "name": "",
          "type": "uint256"
        }
      ],
      "payable": false,
      "stateMutability": "view",
      "type": "function"
    },
    {
      "constant": true,
      "inputs": [],
      "name": "getColor",
      "outputs": [
        {
          "internalType": "bytes32",
          "name": "",
          "type": "bytes32"
        }
      ],
      "payable": false,
      "stateMutability": "view",
      "type": "function"
    },
    {
      "constant": false,
      "inputs": [
        {
          "internalType": "address",
          "name": "dst",
          "type": "address"
        },
        {
          "internalType": "uint256",
          "name": "wad",
          "type": "uint256"
        }
      ],
      "name": "transfer",
      "outputs": [
        {
          "internalType": "bool",
          "name": "",
          "type": "bool"
        }
      ],
      "payable": false,
      "stateMutability": "nonpayable",
      "type": "function"
    },
    {
      "constant": true,
      "inputs": [
        {
          "internalType": "address",
          "name": "src",
          "type": "address"
        },
        {
          "internalType": "address",
          "name": "guy",
          "type": "address"
        }
      ],
      "name": "allowance",
      "outputs": [
        {
          "internalType": "uint256",
          "name": "",
          "type": "uint256"
        }
      ],
      "payable": false,
      "stateMutability": "view",
      "type": "function"
    },
    {
      "inputs": [],
      "payable": false,
      "stateMutability": "nonpayable",
      "type": "constructor"
    },
    {
      "anonymous": false,
      "inputs": [
        {
          "indexed": true,
          "internalType": "address",
          "name": "caller",
          "type": "address"
        },
        {
          "indexed": true,
          "internalType": "address",
          "name": "tokenIn",
          "type": "address"
        },
        {
          "indexed": true,
          "internalType": "address",
          "name": "tokenOut",
          "type": "address"
        },
        {
          "indexed": false,
          "internalType": "uint256",
          "name": "amountIn",
          "type": "uint256"
        },
        {
          "indexed": false,
          "internalType": "uint256",
          "name": "amountOut",
          "type": "uint256"
        }
      ],
      "name": "LOG_SWAP",
      "type": "event"
    },
    {
      "anonymous": true,
      "inputs": [
        {
          "indexed": true,
          "internalType": "bytes4",
          "name": "sig",
          "type": "bytes4"
        },
        {
          "indexed": true,
          "internalType": "address",
          "name": "caller",
          "type": "address"
        },
        {
          "indexed": false,
          "internalType": "bytes",
          "name": "data",
          "type": "bytes"
        }
      ],
      "name": "LOG_CALL",
      "type": "event"
    },
    {
      "anonymous": false,
      "inputs": [
        {
          "indexed": true,
          "internalType": "address",
          "name": "src",
          "type": "address"
        },
        {
          "indexed": true,
          "internalType": "address",
          "name": "guy",
          "type": "address"
        },
        {
          "indexed": false,
          "internalType": "uint256",
          "name": "wad",
          "type": "uint256"
        }
      ],
      "name": "Approval",
      "type": "event"
    },
    {
      "anonymous": false,
      "inputs": [
        {
          "indexed": true,
          "internalType": "address",
          "name": "src",
          "type": "address"
        },
        {
          "indexed": true,
          "internalType": "address",
          "name": "dst",
          "type": "address"
        },
        {
          "indexed": false,
          "internalType": "uint256",
          "name": "wad",
          "type": "uint256"
        }
      ],
      "name": "Transfer",
      "type": "event"
    },
    {
      "anonymous": false,
      "inputs": [
        {
          "indexed": false,
          "internalType": "uint256",
          "name": "amt",
          "type": "uint256"
        }
      ],
      "name": "Mint",
      "type": "event"
    },
    {
      "anonymous": false,
      "inputs": [
        {
          "indexed": false,
          "internalType": "uint256",
          "name": "amt",
          "type": "uint256"
        }
      ],
      "name": "Burn",
      "type": "event"
    },
    {
      "anonymous": false,
      "inputs": [
        {
          "indexed": true,
          "internalType": "address",
          "name": "src",
          "type": "address"
        },
        {
          "indexed": true,
          "internalType": "address",
          "name": "dst",
          "type": "address"
        },
        {
          "indexed": false,
          "internalType": "uint256",
          "name": "amt",
          "type": "uint256"
        }
      ],
      "name": "Move",
      "type": "event"
    },
    {
      "constant": true,
      "inputs": [],
      "name": "isPublicSwap",
      "outputs": [
        {
          "internalType": "bool",
          "name": "",
          "type": "bool"
        }
      ],
      "payable": false,
      "stateMutability": "view",
      "type": "function"
    },
    {
      "constant": true,
      "inputs": [],
      "name": "isPublicJoin",
      "outputs": [
        {
          "internalType": "bool",
          "name": "",
          "type": "bool"
        }
      ],
      "payable": false,
      "stateMutability": "view",
      "type": "function"
    },
    {
      "constant": true,
      "inputs": [],
      "name": "isPublicExit",
      "outputs": [
        {
          "internalType": "bool",
          "name": "",
          "type": "bool"
        }
      ],
      "payable": false,
      "stateMutability": "view",
      "type": "function"
    },
    {
      "constant": true,
      "inputs": [],
      "name": "isFinalized",
      "outputs": [
        {
          "internalType": "bool",
          "name": "",
          "type": "bool"
        }
      ],
      "payable": false,
      "stateMutability": "view",
      "type": "function"
    },
    {
      "constant": true,
      "inputs": [
        {
          "internalType": "address",
          "name": "t",
          "type": "address"
        }
      ],
      "name": "isBound",
      "outputs": [
        {
          "internalType": "bool",
          "name": "",
          "type": "bool"
        }
      ],
      "payable": false,
      "stateMutability": "view",
      "type": "function"
    },
    {
      "constant": true,
      "inputs": [],
      "name": "getNumTokens",
      "outputs": [
        {
          "internalType": "uint256",
          "name": "",
          "type": "uint256"
        }
      ],
      "payable": false,
      "stateMutability": "view",
      "type": "function"
    },
    {
      "constant": true,
      "inputs": [],
      "name": "getCurrentTokens",
      "outputs": [
        {
          "internalType": "address[]",
          "name": "tokens",
          "type": "address[]"
        }
      ],
      "payable": false,
      "stateMutability": "view",
      "type": "function"
    },
    {
      "constant": true,
      "inputs": [],
      "name": "getFinalTokens",
      "outputs": [
        {
          "internalType": "address[]",
          "name": "tokens",
          "type": "address[]"
        }
      ],
      "payable": false,
      "stateMutability": "view",
      "type": "function"
    },
    {
      "constant": true,
      "inputs": [
        {
          "internalType": "address",
          "name": "token",
          "type": "address"
        }
      ],
      "name": "getDenormalizedWeight",
      "outputs": [
        {
          "internalType": "uint256",
          "name": "",
          "type": "uint256"
        }
      ],
      "payable": false,
      "stateMutability": "view",
      "type": "function"
    },
    {
      "constant": true,
      "inputs": [],
      "name": "getTotalDenormalizedWeight",
      "outputs": [
        {
          "internalType": "uint256",
          "name": "",
          "type": "uint256"
        }
      ],
      "payable": false,
      "stateMutability": "view",
      "type": "function"
    },
    {
      "constant": true,
      "inputs": [
        {
          "internalType": "address",
          "name": "token",
          "type": "address"
        }
      ],
      "name": "getNormalizedWeight",
      "outputs": [
        {
          "internalType": "uint256",
          "name": "",
          "type": "uint256"
        }
      ],
      "payable": false,
      "stateMutability": "view",
      "type": "function"
    },
    {
      "constant": true,
      "inputs": [
        {
          "internalType": "address",
          "name": "token",
          "type": "address"
        }
      ],
      "name": "getBalance",
      "outputs": [
        {
          "internalType": "uint256",
          "name": "",
          "type": "uint256"
        }
      ],
      "payable": false,
      "stateMutability": "view",
      "type": "function"
    },
    {
      "constant": true,
      "inputs": [],
      "name": "getFees",
      "outputs": [
        {
          "internalType": "uint256",
          "name": "",
          "type": "uint256"
        },
        {
          "internalType": "uint256",
          "name": "",
          "type": "uint256"
        }
      ],
      "payable": false,
      "stateMutability": "view",
      "type": "function"
    },
    {
      "constant": true,
      "inputs": [],
      "name": "getController",
      "outputs": [
        {
          "internalType": "address",
          "name": "",
          "type": "address"
        }
      ],
      "payable": false,
      "stateMutability": "view",
      "type": "function"
    },
    {
      "constant": false,
      "inputs": [
        {
          "internalType": "uint256",
          "name": "swapFee",
          "type": "uint256"
        },
        {
          "internalType": "uint256",
          "name": "exitFee",
          "type": "uint256"
        }
      ],
      "name": "setFees",
      "outputs": [],
      "payable": false,
      "stateMutability": "nonpayable",
      "type": "function"
    },
    {
      "constant": false,
      "inputs": [
        {
          "internalType": "address",
          "name": "manager",
          "type": "address"
        }
      ],
      "name": "setController",
      "outputs": [],
      "payable": false,
      "stateMutability": "nonpayable",
      "type": "function"
    },
    {
      "constant": false,
      "inputs": [
        {
          "internalType": "bool",
          "name": "public_",
          "type": "bool"
        }
      ],
      "name": "setPublicSwap",
      "outputs": [],
      "payable": false,
      "stateMutability": "nonpayable",
      "type": "function"
    },
    {
      "constant": false,
      "inputs": [
        {
          "internalType": "bool",
          "name": "public_",
          "type": "bool"
        }
      ],
      "name": "setPublicJoin",
      "outputs": [],
      "payable": false,
      "stateMutability": "nonpayable",
      "type": "function"
    },
    {
      "constant": false,
      "inputs": [
        {
          "internalType": "bool",
          "name": "public_",
          "type": "bool"
        }
      ],
      "name": "setPublicExit",
      "outputs": [],
      "payable": false,
      "stateMutability": "nonpayable",
      "type": "function"
    },
    {
      "constant": false,
      "inputs": [
        {
          "internalType": "uint256",
          "name": "initSupply",
          "type": "uint256"
        }
      ],
      "name": "finalize",
      "outputs": [],
      "payable": false,
      "stateMutability": "nonpayable",
      "type": "function"
    },
    {
      "constant": false,
      "inputs": [
        {
          "internalType": "address",
          "name": "token",
          "type": "address"
        },
        {
          "internalType": "uint256",
          "name": "balance",
          "type": "uint256"
        },
        {
          "internalType": "uint256",
          "name": "denorm",
          "type": "uint256"
        }
      ],
      "name": "bind",
      "outputs": [],
      "payable": false,
      "stateMutability": "nonpayable",
      "type": "function"
    },
    {
      "constant": false,
      "inputs": [
        {
          "internalType": "address",
          "name": "token",
          "type": "address"
        },
        {
          "internalType": "uint256",
          "name": "balance",
          "type": "uint256"
        },
        {
          "internalType": "uint256",
          "name": "denorm",
          "type": "uint256"
        }
      ],
      "name": "rebind",
      "outputs": [],
      "payable": false,
      "stateMutability": "nonpayable",
      "type": "function"
    },
    {
      "constant": false,
      "inputs": [
        {
          "internalType": "address",
          "name": "token",
          "type": "address"
        }
      ],
      "name": "unbind",
      "outputs": [],
      "payable": false,
      "stateMutability": "nonpayable",
      "type": "function"
    },
    {
      "constant": false,
      "inputs": [
        {
          "internalType": "address",
          "name": "token",
          "type": "address"
        }
      ],
      "name": "gulp",
      "outputs": [],
      "payable": false,
      "stateMutability": "nonpayable",
      "type": "function"
    },
    {
      "constant": false,
      "inputs": [],
      "name": "collect",
      "outputs": [
        {
          "internalType": "uint256",
          "name": "collected",
          "type": "uint256"
        }
      ],
      "payable": false,
      "stateMutability": "nonpayable",
      "type": "function"
    },
    {
      "constant": true,
      "inputs": [
        {
          "internalType": "address",
          "name": "Ti",
          "type": "address"
        },
        {
          "internalType": "address",
          "name": "To",
          "type": "address"
        }
      ],
      "name": "getSpotPrice",
      "outputs": [
        {
          "internalType": "uint256",
          "name": "P",
          "type": "uint256"
        }
      ],
      "payable": false,
      "stateMutability": "view",
      "type": "function"
    },
    {
      "constant": true,
      "inputs": [
        {
          "internalType": "address",
          "name": "Ti",
          "type": "address"
        },
        {
          "internalType": "address",
          "name": "To",
          "type": "address"
        }
      ],
      "name": "getSpotPriceSansFee",
      "outputs": [
        {
          "internalType": "uint256",
          "name": "P",
          "type": "uint256"
        }
      ],
      "payable": false,
      "stateMutability": "view",
      "type": "function"
    },
    {
      "constant": false,
      "inputs": [
        {
          "internalType": "uint256",
          "name": "poolAo",
          "type": "uint256"
        }
      ],
      "name": "joinPool",
      "outputs": [],
      "payable": false,
      "stateMutability": "nonpayable",
      "type": "function"
    },
    {
      "constant": false,
      "inputs": [
        {
          "internalType": "uint256",
          "name": "poolAi",
          "type": "uint256"
        }
      ],
      "name": "exitPool",
      "outputs": [],
      "payable": false,
      "stateMutability": "nonpayable",
      "type": "function"
    },
    {
      "constant": false,
      "inputs": [
        {
          "internalType": "address",
          "name": "Ti",
          "type": "address"
        },
        {
          "internalType": "uint256",
          "name": "Ai",
          "type": "uint256"
        },
        {
          "internalType": "address",
          "name": "To",
          "type": "address"
        },
        {
          "internalType": "uint256",
          "name": "MinAo",
          "type": "uint256"
        },
        {
          "internalType": "uint256",
          "name": "MaxP",
          "type": "uint256"
        }
      ],
      "name": "swap_ExactAmountIn",
      "outputs": [
        {
          "internalType": "uint256",
          "name": "Ao",
          "type": "uint256"
        },
        {
          "internalType": "uint256",
          "name": "MP",
          "type": "uint256"
        }
      ],
      "payable": false,
      "stateMutability": "nonpayable",
      "type": "function"
    },
    {
      "constant": false,
      "inputs": [
        {
          "internalType": "address",
          "name": "Ti",
          "type": "address"
        },
        {
          "internalType": "uint256",
          "name": "MaxAi",
          "type": "uint256"
        },
        {
          "internalType": "address",
          "name": "To",
          "type": "address"
        },
        {
          "internalType": "uint256",
          "name": "Ao",
          "type": "uint256"
        },
        {
          "internalType": "uint256",
          "name": "MaxP",
          "type": "uint256"
        }
      ],
      "name": "swap_ExactAmountOut",
      "outputs": [
        {
          "internalType": "uint256",
          "name": "Ai",
          "type": "uint256"
        },
        {
          "internalType": "uint256",
          "name": "MP",
          "type": "uint256"
        }
      ],
      "payable": false,
      "stateMutability": "nonpayable",
      "type": "function"
    },
    {
      "constant": false,
      "inputs": [
        {
          "internalType": "address",
          "name": "Ti",
          "type": "address"
        },
        {
          "internalType": "uint256",
          "name": "Li",
          "type": "uint256"
        },
        {
          "internalType": "address",
          "name": "To",
          "type": "address"
        },
        {
          "internalType": "uint256",
          "name": "Lo",
          "type": "uint256"
        },
        {
          "internalType": "uint256",
          "name": "MarP",
          "type": "uint256"
        }
      ],
      "name": "swap_ExactMarginalPrice",
      "outputs": [
        {
          "internalType": "uint256",
          "name": "Ai",
          "type": "uint256"
        },
        {
          "internalType": "uint256",
          "name": "Ao",
          "type": "uint256"
        }
      ],
      "payable": false,
      "stateMutability": "nonpayable",
      "type": "function"
    },
    {
      "constant": false,
      "inputs": [
        {
          "internalType": "address",
          "name": "Ti",
          "type": "address"
        },
        {
          "internalType": "uint256",
          "name": "tAi",
          "type": "uint256"
        }
      ],
      "name": "joinswap_ExternAmountIn",
      "outputs": [
        {
          "internalType": "uint256",
          "name": "poolAo",
          "type": "uint256"
        }
      ],
      "payable": false,
      "stateMutability": "nonpayable",
      "type": "function"
    },
    {
      "constant": false,
      "inputs": [
        {
          "internalType": "uint256",
          "name": "pAo",
          "type": "uint256"
        },
        {
          "internalType": "address",
          "name": "Ti",
          "type": "address"
        }
      ],
      "name": "joinswap_PoolAmountOut",
      "outputs": [
        {
          "internalType": "uint256",
          "name": "tAi",
          "type": "uint256"
        }
      ],
      "payable": false,
      "stateMutability": "nonpayable",
      "type": "function"
    },
    {
      "constant": false,
      "inputs": [
        {
          "internalType": "uint256",
          "name": "pAi",
          "type": "uint256"
        },
        {
          "internalType": "address",
          "name": "To",
          "type": "address"
        }
      ],
      "name": "exitswap_PoolAmountIn",
      "outputs": [
        {
          "internalType": "uint256",
          "name": "tAo",
          "type": "uint256"
        }
      ],
      "payable": false,
      "stateMutability": "nonpayable",
      "type": "function"
    },
    {
      "constant": false,
      "inputs": [
        {
          "internalType": "address",
          "name": "To",
          "type": "address"
        },
        {
          "internalType": "uint256",
          "name": "tAo",
          "type": "uint256"
        }
      ],
      "name": "exitswap_ExternAmountOut",
      "outputs": [
        {
          "internalType": "uint256",
          "name": "poolAiBeforeFees",
          "type": "uint256"
        }
      ],
      "payable": false,
      "stateMutability": "nonpayable",
      "type": "function"
    }
  ],
  "bytecode": "0x608060405234801561001057600080fd5b50600480546003805461010060a860020a031916336101008102919091179091556007805460ff19169055760100000000000000000000000000000000000000000000600160a060020a03199092161760a060020a62ffffff0219161790556168f6806200007f6000396000f3fe608060405234801561001057600080fd5b5060043610610286576000357c01000000000000000000000000000000000000000000000000000000009004806392eefe9b1161016e578063ce1d477d116100e0578063e4e1e538116100a4578063e4e1e538146107de578063e522538114610810578063f1b8a9b714610818578063f5ae62591461083e578063f8b2cb4f1461085d578063fde924f71461088357610286565b8063ce1d477d14610742578063cf5e7bd314610782578063db8d55f1146107a8578063dd318279146104c9578063dd62ed3e146107b057610286565b8063ab48c9cf11610132578063ab48c9cf14610672578063be1d24ad14610691578063be3bbd2e146106ae578063c83d529e14610706578063cc77828d14610732578063cd2ed8fb1461073a57610286565b806392eefe9b146105ea578063936c347714610610578063948d8ce6146106185780639a86139b1461063e578063a9059cbb1461064657610286565b806334e7a19f116102075780634b0f9faa116101cb5780634b0f9faa146104d15780635718db49146104fd57806362fd79421461055657806370a08231146105965780638c28cbe8146105bc5780638d4e4083146105e257610286565b806334e7a19f1461042f5780633fdddaa21461044c578063483605e81461047e57806349b59552146104aa5780634a8402e6146104c957610286565b806318160ddd1161024e57806318160ddd1461037b5780631ecc61bc1461038357806323b872dd146103af5780632f37b624146103e55780633018205f1461040b57610286565b806305261aea1461028b578063095ea7b3146102aa5780630b78f9c0146102ea5780631446a7ff1461030d57806315e84af91461034d575b600080fd5b6102a8600480360360208110156102a157600080fd5b503561088b565b005b6102d6600480360360408110156102c057600080fd5b50600160a060020a038135169060200135610c04565b604080519115158252519081900360200190f35b6102a86004803603604081101561030057600080fd5b5080359060200135610c69565b61033b6004803603604081101561032357600080fd5b50600160a060020a0381358116916020013516610f7c565b60408051918252519081900360200190f35b61033b6004803603604081101561036357600080fd5b50600160a060020a038135811691602001351661113e565b61033b6112f7565b61033b6004803603604081101561039957600080fd5b5080359060200135600160a060020a03166112fd565b6102d6600480360360608110156103c557600080fd5b50600160a060020a0381358116916020810135909116906040013561155c565b6102d6600480360360208110156103fb57600080fd5b5035600160a060020a03166116da565b6104136116f7565b60408051600160a060020a039092168252519081900360200190f35b6102a86004803603602081101561044557600080fd5b5035611782565b6102a86004803603606081101561046257600080fd5b50600160a060020a038135169060208101359060400135611a6a565b61033b6004803603604081101561049457600080fd5b50600160a060020a038135169060200135612069565b6102a8600480360360208110156104c057600080fd5b503515156122cd565b6102d66124f7565b61033b600480360360408110156104e757600080fd5b50600160a060020a038135169060200135612519565b61053d600480360360a081101561051357600080fd5b50600160a060020a038135811691602081013591604082013516906060810135906080013561283e565b6040805192835260208301919091528051918290030190f35b61053d600480360360a081101561056c57600080fd5b50600160a060020a0381358116916020810135916040820135169060608101359060800135612e0a565b61033b600480360360208110156105ac57600080fd5b5035600160a060020a03166133db565b6102a8600480360360208110156105d257600080fd5b5035600160a060020a03166133f6565b6102d661360e565b6102a86004803603602081101561060057600080fd5b5035600160a060020a0316613617565b61033b6137b9565b61033b6004803603602081101561062e57600080fd5b5035600160a060020a031661383b565b61033b613952565b6102d66004803603604081101561065c57600080fd5b50600160a060020a038135169060200135613976565b6102a86004803603602081101561068857600080fd5b503515156139cc565b6102a8600480360360208110156106a757600080fd5b5035613c7e565b6106b6613f66565b60408051602080825283518183015283519192839290830191858101910280838360005b838110156106f25781810151838201526020016106da565b505050509050019250505060405180910390f35b61033b6004803603604081101561071c57600080fd5b5080359060200135600160a060020a03166140cb565b6106b66143db565b61033b614455565b61053d600480360360a081101561075857600080fd5b50600160a060020a038135811691602081013591604082013516906060810135906080013561445b565b6102a86004803603602081101561079857600080fd5b5035600160a060020a0316614a2a565b61053d614e2d565b61033b600480360360408110156107c657600080fd5b50600160a060020a0381358116916020013516614eb9565b6102a8600480360360608110156107f457600080fd5b50600160a060020a038135169060208101359060400135614ee2565b61033b615200565b61033b6004803603602081101561082e57600080fd5b5035600160a060020a03166153bb565b6102a86004803603602081101561085457600080fd5b503515156154e4565b61033b6004803603602081101561087357600080fd5b5035600160a060020a0316615710565b6102d6615827565b33600160a060020a0316600035600160e060020a031916600160e060020a03191660003660405180806020018281038252848482818152602001925080828437600083820152604051601f909101601f19169092018290039550909350505050a260035460408051808201909152600b815260008051602061682283398151915260208201529060ff16156109a15760405160e560020a62461bcd0281526004018080602001828103825283818151815260200191508051906020019080838360005b8381101561096657818101518382015260200161094e565b50505050905090810190601f1680156109935780820380516001836020036101000a031916815260200191505b509250505060405180910390fd5b506003805460ff19166001179055600454604080518082019091526012815260008051602061686283398151915260208201529033600160a060020a0390911614610a305760405160e560020a62461bcd02815260206004820181815283516024840152835190928392604490910191908501908083836000831561096657818101518382015260200161094e565b5060075460408051808201909152601081526000805160206168a283398151915260208201529060ff1615610aa95760405160e560020a62461bcd02815260206004820181815283516024840152835190928392604490910191908501908083836000831561096657818101518382015260200161094e565b5060408051808201909152601381527f4552525f4d494e5f504f4f4c5f535550504c59000000000000000000000000006020820152670de0b6b3a7640000821015610b385760405160e560020a62461bcd02815260206004820181815283516024840152835190928392604490910191908501908083836000831561096657818101518382015260200161094e565b506007805460ff191660011790556004805476ff000000000000000000000000000000000000000000001975ff0000000000000000000000000000000000000000001974ff00000000000000000000000000000000000000001990921674010000000000000000000000000000000000000000179190911675010000000000000000000000000000000000000000001716760100000000000000000000000000000000000000000000179055610bed81615848565b610bf73382615854565b506003805460ff19169055565b33600081815260208181526040808320600160a060020a038716808552908352818420869055815186815291519394909390927f8c5be1e5ebec7d5bd14f71427d1e84f3dd0314c0f7b2291e5b200ac8c7c3b925928290030190a35060015b92915050565b33600160a060020a0316600035600160e060020a031916600160e060020a03191660003660405180806020018281038252848482818152602001925080828437600083820152604051601f909101601f19169092018290039550909350505050a260035460408051808201909152600b815260008051602061682283398151915260208201529060ff1615610d425760405160e560020a62461bcd02815260206004820181815283516024840152835190928392604490910191908501908083836000831561096657818101518382015260200161094e565b506003805460ff1916600117905560075460408051808201909152601081526000805160206168a283398151915260208201529060ff1615610dc85760405160e560020a62461bcd02815260206004820181815283516024840152835190928392604490910191908501908083836000831561096657818101518382015260200161094e565b506004546040805180820190915260128152600080516020616862833981519152602082015290600160a060020a03163314610e485760405160e560020a62461bcd02815260206004820181815283516024840152835190928392604490910191908501908083836000831561096657818101518382015260200161094e565b5060408051808201909152600b81527f4552525f4d41585f464545000000000000000000000000000000000000000000602082015267016345785d8a0000831115610ed75760405160e560020a62461bcd02815260206004820181815283516024840152835190928392604490910191908501908083836000831561096657818101518382015260200161094e565b5060408051808201909152600b81527f4552525f4d41585f464545000000000000000000000000000000000000000000602082015267016345785d8a0000821115610f665760405160e560020a62461bcd02815260206004820181815283516024840152835190928392604490910191908501908083836000831561096657818101518382015260200161094e565b506005919091556006556003805460ff19169055565b60035460408051808201909152600b8152600080516020616822833981519152602082015260009160ff1615610ff65760405160e560020a62461bcd02815260206004820181815283516024840152835190928392604490910191908501908083836000831561096657818101518382015260200161094e565b50611000836116da565b6040518060400160405280600d8152602001600080516020616882833981519152815250906110735760405160e560020a62461bcd02815260206004820181815283516024840152835190928392604490910191908501908083836000831561096657818101518382015260200161094e565b5061107d826116da565b6040518060400160405280600d8152602001600080516020616882833981519152815250906110f05760405160e560020a62461bcd02815260206004820181815283516024840152835190928392604490910191908501908083836000831561096657818101518382015260200161094e565b50600160a060020a0380841660009081526009602052604080822092851682528120600280840154600180860154928401549084015493946111359492939290615862565b95945050505050565b60035460408051808201909152600b8152600080516020616822833981519152602082015260009160ff16156111b85760405160e560020a62461bcd02815260206004820181815283516024840152835190928392604490910191908501908083836000831561096657818101518382015260200161094e565b506111c2836116da565b6040518060400160405280600d8152602001600080516020616882833981519152815250906112355760405160e560020a62461bcd02815260206004820181815283516024840152835190928392604490910191908501908083836000831561096657818101518382015260200161094e565b5061123f826116da565b6040518060400160405280600d8152602001600080516020616882833981519152815250906112b25760405160e560020a62461bcd02815260206004820181815283516024840152835190928392604490910191908501908083836000831561096657818101518382015260200161094e565b50600160a060020a0380841660009081526009602052604080822092851682529020600280830154600180850154928401549084015460055461113594929190615862565b60025490565b600033600160a060020a0316600035600160e060020a031916600160e060020a03191660003660405180806020018281038252848482818152602001925080828437600083820152604051601f909101601f19169092018290039550909350505050a260035460408051808201909152600b815260008051602061682283398151915260208201529060ff16156113d85760405160e560020a62461bcd02815260206004820181815283516024840152835190928392604490910191908501908083836000831561096657818101518382015260200161094e565b506003805460ff191660011790556113ef826116da565b6040518060400160405280600d8152602001600080516020616882833981519152815250906114625760405160e560020a62461bcd02815260206004820181815283516024840152835190928392604490910191908501908083836000831561096657818101518382015260200161094e565b5061146b615827565b604051806040016040528060138152602001600080516020616842833981519152815250906114de5760405160e560020a62461bcd02815260206004820181815283516024840152835190928392604490910191908501908083836000831561096657818101518382015260200161094e565b50600160a060020a038216600090815260096020526040902060028082015460018301549154600a546005546115189492919089906158cc565b915061152384615848565b61152d3385615854565b611538833384615994565b611546816002015483615abf565b6002909101556003805460ff1916905592915050565b600033600160a060020a03851614806115965750600160a060020a0384166000908152602081815260408083203384529091529020548211155b6115ea576040805160e560020a62461bcd02815260206004820152601560248201527f4552525f42544f4b454e5f4241445f43414c4c45520000000000000000000000604482015290519081900360640190fd5b6115f5848484615b54565b82600160a060020a031684600160a060020a03167fddf252ad1be2c89b69c2b068fc378daa952ba7f163c4a11628f55a4df523b3ef846040518082815260200191505060405180910390a333600160a060020a0385161480159061167c5750600160a060020a03841660009081526020818152604080832033845290915290205460001914155b156116d057600160a060020a0384166000908152602081815260408083203384529091529020546116ad9083615c02565b600160a060020a0385166000908152602081815260408083203384529091529020555b5060019392505050565b600160a060020a0316600090815260096020526040902054151590565b60035460408051808201909152600b8152600080516020616822833981519152602082015260009160ff16156117715760405160e560020a62461bcd02815260206004820181815283516024840152835190928392604490910191908501908083836000831561096657818101518382015260200161094e565b5050600454600160a060020a031690565b33600160a060020a0316600035600160e060020a031916600160e060020a03191660003660405180806020018281038252848482818152602001925080828437600083820152604051601f909101601f19169092018290039550909350505050a260035460408051808201909152600b815260008051602061682283398151915260208201529060ff161561185b5760405160e560020a62461bcd02815260206004820181815283516024840152835190928392604490910191908501908083836000831561096657818101518382015260200161094e565b506003805460ff1916600117905560075460408051808201909152601181527f4552525f4e4f545f46494e414c495a454400000000000000000000000000000060208201529060ff166118f25760405160e560020a62461bcd02815260206004820181815283516024840152835190928392604490910191908501908083836000831561096657818101518382015260200161094e565b506118fb6124f7565b6040518060400160405280601381526020017f4552525f4a4f494e5f4e4f545f5055424c494300000000000000000000000000815250906119805760405160e560020a62461bcd02815260206004820181815283516024840152835190928392604490910191908501908083836000831561096657818101518382015260200161094e565b50600061198b6112f7565b905060006119998383615c62565b905060005b600854811015611a47576000600882815481106119b757fe5b6000918252602080832090910154600160a060020a031680835260099091526040822060020154909250906119ec8583615e3b565b600160a060020a038416600090815260096020526040902060020154909150611a159082615abf565b600160a060020a038416600090815260096020526040902060020155611a3c833383615994565b50505060010161199e565b50611a5183615848565b611a5b3384615854565b50506003805460ff1916905550565b33600160a060020a0316600035600160e060020a031916600160e060020a03191660003660405180806020018281038252848482818152602001925080828437600083820152604051601f909101601f19169092018290039550909350505050a260035460408051808201909152600b815260008051602061682283398151915260208201529060ff1615611b435760405160e560020a62461bcd02815260206004820181815283516024840152835190928392604490910191908501908083836000831561096657818101518382015260200161094e565b506003805460ff19166001179055600454604080518082019091526012815260008051602061686283398151915260208201529033600160a060020a0390911614611bd25760405160e560020a62461bcd02815260206004820181815283516024840152835190928392604490910191908501908083836000831561096657818101518382015260200161094e565b50611bdc836116da565b6040518060400160405280600d815260200160008051602061688283398151915281525090611c4f5760405160e560020a62461bcd02815260206004820181815283516024840152835190928392604490910191908501908083836000831561096657818101518382015260200161094e565b5060075460408051808201909152601081526000805160206168a283398151915260208201529060ff1615611cc85760405160e560020a62461bcd02815260206004820181815283516024840152835190928392604490910191908501908083836000831561096657818101518382015260200161094e565b5060408051808201909152600e81527f4552525f4d494e5f5745494748540000000000000000000000000000000000006020820152670de0b6b3a7640000821015611d575760405160e560020a62461bcd02815260206004820181815283516024840152835190928392604490910191908501908083836000831561096657818101518382015260200161094e565b5060408051808201909152600e81527f4552525f4d41585f57454947485400000000000000000000000000000000000060208201526802b5e3af16b1880000821115611de75760405160e560020a62461bcd02815260206004820181815283516024840152835190928392604490910191908501908083836000831561096657818101518382015260200161094e565b5060408051808201909152600f81527f4552525f4d494e5f42414c414e43450000000000000000000000000000000000602082015264e8d4a51000831015611e735760405160e560020a62461bcd02815260206004820181815283516024840152835190928392604490910191908501908083836000831561096657818101518382015260200161094e565b5060408051808201909152600f81527f4552525f4d41585f42414c414e4345000000000000000000000000000000000060208201526c0c9f2c9cd04674edea40000000831115611f075760405160e560020a62461bcd02815260206004820181815283516024840152835190928392604490910191908501908083836000831561096657818101518382015260200161094e565b50600160a060020a03831660009081526009602052604090206001015480821115611fda57611f41600a54611f3c8484615f7f565b615abf565b600a81905560408051808201909152601481527f4552525f4d41585f544f54414c5f5745494748540000000000000000000000006020820152906802b5e3af16b188000011611fd45760405160e560020a62461bcd02815260206004820181815283516024840152835190928392604490910191908501908083836000831561096657818101518382015260200161094e565b50611ff3565b611fef600a54611fea8385615f7f565b615f7f565b600a555b600160a060020a0384166000908152600960205260409020600181018390556002018054908490558084111561203c5761203785336120328785615f7f565b615994565b612058565b808410156120585761205885336120538488615f7f565b616023565b50506003805460ff19169055505050565b600033600160a060020a0316600035600160e060020a031916600160e060020a03191660003660405180806020018281038252848482818152602001925080828437600083820152604051601f909101601f19169092018290039550909350505050a260035460408051808201909152600b815260008051602061682283398151915260208201529060ff16156121445760405160e560020a62461bcd02815260206004820181815283516024840152835190928392604490910191908501908083836000831561096657818101518382015260200161094e565b506003805460ff1916600117905561215b836116da565b6040518060400160405280600d8152602001600080516020616882833981519152815250906121ce5760405160e560020a62461bcd02815260206004820181815283516024840152835190928392604490910191908501908083836000831561096657818101518382015260200161094e565b506121d7615827565b6040518060400160405280601381526020016000805160206168428339815191528152509061224a5760405160e560020a62461bcd02815260206004820181815283516024840152835190928392604490910191908501908083836000831561096657818101518382015260200161094e565b5060028054600160a060020a0385166000908152600960205260409020918201546001830154600a546005549394936122889392918691899061608f565b925061229383615848565b61229d3384615854565b6122a8853386615994565b6122b6816002015485615abf565b600290910155506003805460ff1916905592915050565b33600160a060020a0316600035600160e060020a031916600160e060020a03191660003660405180806020018281038252848482818152602001925080828437600083820152604051601f909101601f19169092018290039550909350505050a260035460408051808201909152600b815260008051602061682283398151915260208201529060ff16156123a65760405160e560020a62461bcd02815260206004820181815283516024840152835190928392604490910191908501908083836000831561096657818101518382015260200161094e565b506003805460ff1916600117905560075460408051808201909152601081526000805160206168a283398151915260208201529060ff161561242c5760405160e560020a62461bcd02815260206004820181815283516024840152835190928392604490910191908501908083836000831561096657818101518382015260200161094e565b506004546040805180820190915260128152600080516020616862833981519152602082015290600160a060020a031633146124ac5760405160e560020a62461bcd02815260206004820181815283516024840152835190928392604490910191908501908083836000831561096657818101518382015260200161094e565b5060048054911515740100000000000000000000000000000000000000000274ff0000000000000000000000000000000000000000199092169190911790556003805460ff19169055565b6004547501000000000000000000000000000000000000000000900460ff1690565b600033600160a060020a0316600035600160e060020a031916600160e060020a03191660003660405180806020018281038252848482818152602001925080828437600083820152604051601f909101601f19169092018290039550909350505050a260035460408051808201909152600b815260008051602061682283398151915260208201529060ff16156125f45760405160e560020a62461bcd02815260206004820181815283516024840152835190928392604490910191908501908083836000831561096657818101518382015260200161094e565b506003805460ff1916600117905561260b836116da565b6040518060400160405280600d81526020016000805160206168828339815191528152509061267e5760405160e560020a62461bcd02815260206004820181815283516024840152835190928392604490910191908501908083836000831561096657818101518382015260200161094e565b50612687615827565b604051806040016040528060138152602001600080516020616842833981519152815250906126fa5760405160e560020a62461bcd02815260206004820181815283516024840152835190928392604490910191908501908083836000831561096657818101518382015260200161094e565b506127036124f7565b6040518060400160405280601381526020017f4552525f455849545f4e4f545f5055424c494300000000000000000000000000815250906127885760405160e560020a62461bcd02815260206004820181815283516024840152835190928392604490910191908501908083836000831561096657818101518382015260200161094e565b5060006009600085600160a060020a0316600160a060020a03168152602001908152602001600020905060006127d382600201548360010154600254600a548860055460065461612c565b90506127df33826161ee565b60006127fe826127f9670de0b6b3a7640000600654615f7f565b615e3b565b9050612809826161f8565b612814863387616023565b612822836002015486615f7f565b6002909301929092559150506003805460ff1916905592915050565b6040805160208082523690820181905260009283923392600160e060020a03198535169285929081908101848480828437600083820152604051601f909101601f19169092018290039550909350505050a260035460408051808201909152600b815260008051602061682283398151915260208201529060ff16156129085760405160e560020a62461bcd02815260206004820181815283516024840152835190928392604490910191908501908083836000831561096657818101518382015260200161094e565b506003805460ff1916600117905561291f876116da565b6040518060400160405280600d8152602001600080516020616882833981519152815250906129925760405160e560020a62461bcd02815260206004820181815283516024840152835190928392604490910191908501908083836000831561096657818101518382015260200161094e565b5061299c856116da565b6040518060400160405280600d815260200160008051602061688283398151915281525090612a0f5760405160e560020a62461bcd02815260206004820181815283516024840152835190928392604490910191908501908083836000831561096657818101518382015260200161094e565b50612a18615827565b60405180604001604052806013815260200160008051602061684283398151915281525090612a8b5760405160e560020a62461bcd02815260206004820181815283516024840152835190928392604490910191908501908083836000831561096657818101518382015260200161094e565b50600160a060020a03808816600090815260096020526040808220928816825290206002810154612acb906003670de0b6b3a76400005b04600101615e3b565b8311156040518060400160405280601181526020017f4552525f4d41585f4f55545f524154494f00000000000000000000000000000081525090612b535760405160e560020a62461bcd02815260206004820181815283516024840152835190928392604490910191908501908083836000831561096657818101518382015260200161094e565b506000612b758360020154846001015484600201548560010154600554615862565b90508086116040518060400160405280601381526020017f4552525f4152475f4c494d49545f50524943450000000000000000000000000081525090612bff5760405160e560020a62461bcd02815260206004820181815283516024840152835190928392604490910191908501908083836000831561096657818101518382015260200161094e565b50612c2083600201548460010154846002015485600101548a600554616201565b9450612c4283600201548460010154846002015485600101548960055461628c565b9350888511156040518060400160405280600c81526020017f4552525f4c494d49545f494e000000000000000000000000000000000000000081525090612ccd5760405160e560020a62461bcd02815260206004820181815283516024840152835190928392604490910191908501908083836000831561096657818101518382015260200161094e565b5060408051808201909152600d81527f4552525f4c494d49545f4f555400000000000000000000000000000000000000602082015287851015612d545760405160e560020a62461bcd02815260206004820181815283516024840152835190928392604490910191908501908083836000831561096657818101518382015260200161094e565b50612d63836002015486615abf565b8360020181905550612d79826002015485615f7f565b6002830155612d898a3387615994565b612d94883386616023565b87600160a060020a03168a600160a060020a031633600160a060020a03167f908fb5ee8f16c6bc9bc3690973819f32a4d4b10188134543c88706e0e1d433788888604051808381526020018281526020019250505060405180910390a45050506003805460ff1916905590969095509350505050565b6040805160208082523690820181905260009283923392600160e060020a03198535169285929081908101848480828437600083820152604051601f909101601f19169092018290039550909350505050a260035460408051808201909152600b815260008051602061682283398151915260208201529060ff1615612ed45760405160e560020a62461bcd02815260206004820181815283516024840152835190928392604490910191908501908083836000831561096657818101518382015260200161094e565b506003805460ff19166001179055612eeb876116da565b6040518060400160405280600d815260200160008051602061688283398151915281525090612f5e5760405160e560020a62461bcd02815260206004820181815283516024840152835190928392604490910191908501908083836000831561096657818101518382015260200161094e565b50612f68856116da565b6040518060400160405280600d815260200160008051602061688283398151915281525090612fdb5760405160e560020a62461bcd02815260206004820181815283516024840152835190928392604490910191908501908083836000831561096657818101518382015260200161094e565b50612fe4615827565b604051806040016040528060138152602001600080516020616842833981519152815250906130575760405160e560020a62461bcd02815260206004820181815283516024840152835190928392604490910191908501908083836000831561096657818101518382015260200161094e565b50600160a060020a03808816600090815260096020526040808220928816825290206002810154613092906003670de0b6b3a7640000612ac2565b8611156040518060400160405280601181526020017f4552525f4d41585f4f55545f524154494f0000000000000000000000000000008152509061311a5760405160e560020a62461bcd02815260206004820181815283516024840152835190928392604490910191908501908083836000831561096657818101518382015260200161094e565b50600061313c8360020154846001015484600201548560010154600554615862565b9050858111156040518060400160405280601381526020017f4552525f4152475f4c494d49545f505249434500000000000000000000000000815250906131c75760405160e560020a62461bcd02815260206004820181815283516024840152835190928392604490910191908501908083836000831561096657818101518382015260200161094e565b506131e883600201548460010154846002015485600101548b60055461630d565b9450888511156040518060400160405280600c81526020017f4552525f4c494d49545f494e0000000000000000000000000000000000000000815250906132735760405160e560020a62461bcd02815260206004820181815283516024840152835190928392604490910191908501908083836000831561096657818101518382015260200161094e565b50613282836002015486615abf565b8360020181905550613298826002015488615f7f565b826002018190555060006132c18460020154856001015485600201548660010154600554615862565b9050868111156040518060400160405280600f81526020017f4552525f4c494d49545f505249434500000000000000000000000000000000008152509061334c5760405160e560020a62461bcd02815260206004820181815283516024840152835190928392604490910191908501908083836000831561096657818101518382015260200161094e565b506133588b3388615994565b61336389338a616023565b88600160a060020a03168b600160a060020a031633600160a060020a03167f908fb5ee8f16c6bc9bc3690973819f32a4d4b10188134543c88706e0e1d43378898c604051808381526020018281526020019250505060405180910390a493505050506003805460ff1916905590969095509350505050565b600160a060020a031660009081526001602052604090205490565b33600160a060020a0316600035600160e060020a031916600160e060020a03191660003660405180806020018281038252848482818152602001925080828437600083820152604051601f909101601f19169092018290039550909350505050a260035460408051808201909152600b815260008051602061682283398151915260208201529060ff16156134cf5760405160e560020a62461bcd02815260206004820181815283516024840152835190928392604490910191908501908083836000831561096657818101518382015260200161094e565b506003805460ff191660011790556134e6816116da565b6040518060400160405280600d8152602001600080516020616882833981519152815250906135595760405160e560020a62461bcd02815260206004820181815283516024840152835190928392604490910191908501908083836000831561096657818101518382015260200161094e565b50604080517f70a082310000000000000000000000000000000000000000000000000000000081523060048201529051600160a060020a038316916370a08231916024808301926020929190829003018186803b1580156135b957600080fd5b505afa1580156135cd573d6000803e3d6000fd5b505050506040513d60208110156135e357600080fd5b5051600160a060020a039091166000908152600960205260409020600201556003805460ff19169055565b60075460ff1690565b33600160a060020a0316600035600160e060020a031916600160e060020a03191660003660405180806020018281038252848482818152602001925080828437600083820152604051601f909101601f19169092018290039550909350505050a260035460408051808201909152600b815260008051602061682283398151915260208201529060ff16156136f05760405160e560020a62461bcd02815260206004820181815283516024840152835190928392604490910191908501908083836000831561096657818101518382015260200161094e565b506003805460ff19166001179055600454604080518082019091526012815260008051602061686283398151915260208201529033600160a060020a039091161461377f5760405160e560020a62461bcd02815260206004820181815283516024840152835190928392604490910191908501908083836000831561096657818101518382015260200161094e565b506004805473ffffffffffffffffffffffffffffffffffffffff1916600160a060020a03929092169190911790556003805460ff19169055565b60035460408051808201909152600b8152600080516020616822833981519152602082015260009160ff16156138335760405160e560020a62461bcd02815260206004820181815283516024840152835190928392604490910191908501908083836000831561096657818101518382015260200161094e565b5050600a5490565b60035460408051808201909152600b8152600080516020616822833981519152602082015260009160ff16156138b55760405160e560020a62461bcd02815260206004820181815283516024840152835190928392604490910191908501908083836000831561096657818101518382015260200161094e565b506138bf826116da565b6040518060400160405280600d8152602001600080516020616882833981519152815250906139325760405160e560020a62461bcd02815260206004820181815283516024840152835190928392604490910191908501908083836000831561096657818101518382015260200161094e565b5050600160a060020a031660009081526009602052604090206001015490565b7f42524f4e5a45000000000000000000000000000000000000000000000000000090565b6000613983338484615b54565b604080518381529051600160a060020a0385169133917fddf252ad1be2c89b69c2b068fc378daa952ba7f163c4a11628f55a4df523b3ef9181900360200190a350600192915050565b33600160a060020a0316600035600160e060020a031916600160e060020a03191660003660405180806020018281038252848482818152602001925080828437600083820152604051601f909101601f19169092018290039550909350505050a260035460408051808201909152600b815260008051602061682283398151915260208201529060ff1615613aa55760405160e560020a62461bcd02815260206004820181815283516024840152835190928392604490910191908501908083836000831561096657818101518382015260200161094e565b506003805460ff1916600117905560408051808201909152601681527f4552525f455849545f414c574159535f5055424c494300000000000000000000602082015281613b365760405160e560020a62461bcd02815260206004820181815283516024840152835190928392604490910191908501908083836000831561096657818101518382015260200161094e565b5060075460408051808201909152601081526000805160206168a283398151915260208201529060ff1615613baf5760405160e560020a62461bcd02815260206004820181815283516024840152835190928392604490910191908501908083836000831561096657818101518382015260200161094e565b506004546040805180820190915260128152600080516020616862833981519152602082015290600160a060020a03163314613c2f5760405160e560020a62461bcd02815260206004820181815283516024840152835190928392604490910191908501908083836000831561096657818101518382015260200161094e565b50600480549115157601000000000000000000000000000000000000000000000276ff00000000000000000000000000000000000000000000199092169190911790556003805460ff19169055565b33600160a060020a0316600035600160e060020a031916600160e060020a03191660003660405180806020018281038252848482818152602001925080828437600083820152604051601f909101601f19169092018290039550909350505050a260035460408051808201909152600b815260008051602061682283398151915260208201529060ff1615613d575760405160e560020a62461bcd02815260206004820181815283516024840152835190928392604490910191908501908083836000831561096657818101518382015260200161094e565b506003805460ff1916600117905560075460408051808201909152601181527f4552525f4e4f545f46494e414c495a454400000000000000000000000000000060208201529060ff16613dee5760405160e560020a62461bcd02815260206004820181815283516024840152835190928392604490910191908501908083836000831561096657818101518382015260200161094e565b50613df76124f7565b6040518060400160405280601381526020017f4552525f455849545f4e4f545f5055424c49430000000000000000000000000081525090613e7c5760405160e560020a62461bcd02815260206004820181815283516024840152835190928392604490910191908501908083836000831561096657818101518382015260200161094e565b506000613e876112f7565b90506000613e958383615c62565b9050613ea133846161ee565b613eaa836161f8565b60005b600854811015613f5657600060088281548110613ec657fe5b6000918252602080832090910154600160a060020a03168083526009909152604082206002015490925090613efb8583615e3b565b600160a060020a038416600090815260096020526040902060020154909150613f249082615f7f565b600160a060020a038416600090815260096020526040902060020155613f4b833383616023565b505050600101613ead565b50506003805460ff191690555050565b60035460408051808201909152600b8152600080516020616822833981519152602082015260609160ff1615613fe05760405160e560020a62461bcd02815260206004820181815283516024840152835190928392604490910191908501908083836000831561096657818101518382015260200161094e565b5060075460408051808201909152601181527f4552525f4e4f545f46494e414c495a454400000000000000000000000000000060208201529060ff1661406a5760405160e560020a62461bcd02815260206004820181815283516024840152835190928392604490910191908501908083836000831561096657818101518382015260200161094e565b5060088054806020026020016040519081016040528092919081815260200182805480156140c157602002820191906000526020600020905b8154600160a060020a031681526001909101906020018083116140a3575b5050505050905090565b600033600160a060020a0316600035600160e060020a031916600160e060020a03191660003660405180806020018281038252848482818152602001925080828437600083820152604051601f909101601f19169092018290039550909350505050a260035460408051808201909152600b815260008051602061682283398151915260208201529060ff16156141a65760405160e560020a62461bcd02815260206004820181815283516024840152835190928392604490910191908501908083836000831561096657818101518382015260200161094e565b506003805460ff191660011790556141bd826116da565b6040518060400160405280600d8152602001600080516020616882833981519152815250906142305760405160e560020a62461bcd02815260206004820181815283516024840152835190928392604490910191908501908083836000831561096657818101518382015260200161094e565b50614239615827565b604051806040016040528060138152602001600080516020616842833981519152815250906142ac5760405160e560020a62461bcd02815260206004820181815283516024840152835190928392604490910191908501908083836000831561096657818101518382015260200161094e565b506142b56124f7565b6040518060400160405280601381526020017f4552525f455849545f4e4f545f5055424c4943000000000000000000000000008152509061433a5760405160e560020a62461bcd02815260206004820181815283516024840152835190928392604490910191908501908083836000831561096657818101518382015260200161094e565b50600160a060020a038216600090815260096020526040902060028082015460018301549154600a54600554600654614377959392918a91616381565b915061438333856161ee565b600061439d856127f9670de0b6b3a7640000600654615f7f565b90506143a8856161f8565b6143b3843385616023565b6143c1826002015484615f7f565b600290920191909155506003805460ff1916905592915050565b60035460408051808201909152600b8152600080516020616822833981519152602082015260609160ff161561406a5760405160e560020a62461bcd02815260206004820181815283516024840152835190928392604490910191908501908083836000831561096657818101518382015260200161094e565b60085490565b6040805160208082523690820181905260009283923392600160e060020a03198535169285929081908101848480828437600083820152604051601f909101601f19169092018290039550909350505050a260035460408051808201909152600b815260008051602061682283398151915260208201529060ff16156145255760405160e560020a62461bcd02815260206004820181815283516024840152835190928392604490910191908501908083836000831561096657818101518382015260200161094e565b506003805460ff1916600117905561453c876116da565b6040518060400160405280600d8152602001600080516020616882833981519152815250906145af5760405160e560020a62461bcd02815260206004820181815283516024840152835190928392604490910191908501908083836000831561096657818101518382015260200161094e565b506145b9856116da565b6040518060400160405280600d81526020016000805160206168828339815191528152509061462c5760405160e560020a62461bcd02815260206004820181815283516024840152835190928392604490910191908501908083836000831561096657818101518382015260200161094e565b50614635615827565b604051806040016040528060138152602001600080516020616842833981519152815250906146a85760405160e560020a62461bcd02815260206004820181815283516024840152835190928392604490910191908501908083836000831561096657818101518382015260200161094e565b50600160a060020a038781166000908152600960205260408082209288168252902060028201546146e1906706f05b59d3b20000615e3b565b8811156040518060400160405280601081526020017f4552525f4d41585f494e5f524154494f00000000000000000000000000000000815250906147695760405160e560020a62461bcd02815260206004820181815283516024840152835190928392604490910191908501908083836000831561096657818101518382015260200161094e565b50600061478b8360020154846001015484600201548560010154600554615862565b9050858111156040518060400160405280601081526020017f4552525f4152475f4c494d49545f494e00000000000000000000000000000000815250906148165760405160e560020a62461bcd02815260206004820181815283516024840152835190928392604490910191908501908083836000831561096657818101518382015260200161094e565b5061483783600201548460010154846002015485600101548d60055461628c565b9450868510156040518060400160405280600d81526020017f4552525f4c494d49545f4f555400000000000000000000000000000000000000815250906148c25760405160e560020a62461bcd02815260206004820181815283516024840152835190928392604490910191908501908083836000831561096657818101518382015260200161094e565b506148d183600201548a615abf565b83600201819055506148e7826002015486615f7f565b826002018190555060006149108460020154856001015485600201548660010154600554615862565b9050868111156040518060400160405280600f81526020017f4552525f4c494d49545f505249434500000000000000000000000000000000008152509061499b5760405160e560020a62461bcd02815260206004820181815283516024840152835190928392604490910191908501908083836000831561096657818101518382015260200161094e565b506149a78b338c615994565b6149b2893388616023565b88600160a060020a03168b600160a060020a031633600160a060020a03167f908fb5ee8f16c6bc9bc3690973819f32a4d4b10188134543c88706e0e1d433788d8a604051808381526020018281526020019250505060405180910390a493505050506003805460ff1916905590969095509350505050565b33600160a060020a0316600035600160e060020a031916600160e060020a03191660003660405180806020018281038252848482818152602001925080828437600083820152604051601f909101601f19169092018290039550909350505050a260035460408051808201909152600b815260008051602061682283398151915260208201529060ff1615614b035760405160e560020a62461bcd02815260206004820181815283516024840152835190928392604490910191908501908083836000831561096657818101518382015260200161094e565b506003805460ff19166001179055600454604080518082019091526012815260008051602061686283398151915260208201529033600160a060020a0390911614614b925760405160e560020a62461bcd02815260206004820181815283516024840152835190928392604490910191908501908083836000831561096657818101518382015260200161094e565b50614b9c816116da565b6040518060400160405280600d815260200160008051602061688283398151915281525090614c0f5760405160e560020a62461bcd02815260206004820181815283516024840152835190928392604490910191908501908083836000831561096657818101518382015260200161094e565b5060075460408051808201909152601081526000805160206168a283398151915260208201529060ff1615614c885760405160e560020a62461bcd02815260206004820181815283516024840152835190928392604490910191908501908083836000831561096657818101518382015260200161094e565b50600160a060020a038116600090815260096020526040902060020154614cb29082903390616023565b600a54600160a060020a038216600090815260096020526040902060010154614cdb9190615f7f565b600a55600160a060020a03811660009081526009602052604090205460088054600019928301928101919082908110614d1057fe5b60009182526020909120015460088054600160a060020a039092169184908110614d3657fe5b9060005260206000200160006101000a815481600160a060020a030219169083600160a060020a03160217905550816001016009600060088581548110614d7957fe5b6000918252602080832090910154600160a060020a031683528201929092526040019020556008805480614da957fe5b600082815260208082208301600019908101805473ffffffffffffffffffffffffffffffffffffffff1916905590920190925560408051606081018252838152808301848152818301858152600160a060020a039890981685526009909352922091518255516001820155925160029093019290925550506003805460ff19169055565b60035460408051808201909152600b8152600080516020616822833981519152602082015260009182919060ff1615614eaa5760405160e560020a62461bcd02815260206004820181815283516024840152835190928392604490910191908501908083836000831561096657818101518382015260200161094e565b50600554600654915091509091565b600160a060020a0391821660009081526020818152604080832093909416825291909152205490565b33600160a060020a0316600035600160e060020a031916600160e060020a03191660003660405180806020018281038252848482818152602001925080828437600083820152604051601f909101601f19169092018290039550909350505050a26004546040805180820190915260128152600080516020616862833981519152602082015290600160a060020a03163314614fc25760405160e560020a62461bcd02815260206004820181815283516024840152835190928392604490910191908501908083836000831561096657818101518382015260200161094e565b50614fcc836116da565b156040518060400160405280600c81526020017f4552525f49535f424f554e440000000000000000000000000000000000000000815250906150525760405160e560020a62461bcd02815260206004820181815283516024840152835190928392604490910191908501908083836000831561096657818101518382015260200161094e565b5061505b61360e565b156040518060400160405280601081526020016000805160206168a2833981519152815250906150cf5760405160e560020a62461bcd02815260206004820181815283516024840152835190928392604490910191908501908083836000831561096657818101518382015260200161094e565b506008805460408051808201909152600e81527f4552525f4d41585f544f4b454e53000000000000000000000000000000000000602082015291116151585760405160e560020a62461bcd02815260206004820181815283516024840152835190928392604490910191908501908083836000831561096657818101518382015260200161094e565b50600880546001808201928390557ff3f7a9fe364faab93b216da50a3214154f22a0a2b415b23a84c8169e8b636ee3909101805473ffffffffffffffffffffffffffffffffffffffff1916600160a060020a0387169081179091556040805160608101825284815260006020808301828152838501838152958352600990915292902090518155905192810192909255516002909101556151fa848484611a6a565b50505050565b600033600160a060020a0316600035600160e060020a031916600160e060020a03191660003660405180806020018281038252848482818152602001925080828437600083820152604051601f909101601f19169092018290039550909350505050a260035460408051808201909152600b815260008051602061682283398151915260208201529060ff16156152db5760405160e560020a62461bcd02815260206004820181815283516024840152835190928392604490910191908501908083836000831561096657818101518382015260200161094e565b5060038054600160ff19909116179081905560408051808201909152600f81527f4552525f4e4f545f464143544f525900000000000000000000000000000000006020820152906101009004600160a060020a031633146153805760405160e560020a62461bcd02815260206004820181815283516024840152835190928392604490910191908501908083836000831561096657818101518382015260200161094e565b506003546101009004600160a060020a0316600081815260016020526040902054906153ac9082615854565b90506003805460ff1916905590565b60035460408051808201909152600b8152600080516020616822833981519152602082015260009160ff16156154355760405160e560020a62461bcd02815260206004820181815283516024840152835190928392604490910191908501908083836000831561096657818101518382015260200161094e565b5061543f826116da565b6040518060400160405280600d8152602001600080516020616882833981519152815250906154b25760405160e560020a62461bcd02815260206004820181815283516024840152835190928392604490910191908501908083836000831561096657818101518382015260200161094e565b50600160a060020a038216600090815260096020526040902060010154600a546154dd908290615c62565b9392505050565b33600160a060020a0316600035600160e060020a031916600160e060020a03191660003660405180806020018281038252848482818152602001925080828437600083820152604051601f909101601f19169092018290039550909350505050a260035460408051808201909152600b815260008051602061682283398151915260208201529060ff16156155bd5760405160e560020a62461bcd02815260206004820181815283516024840152835190928392604490910191908501908083836000831561096657818101518382015260200161094e565b506003805460ff1916600117905560075460408051808201909152601081526000805160206168a283398151915260208201529060ff16156156435760405160e560020a62461bcd02815260206004820181815283516024840152835190928392604490910191908501908083836000831561096657818101518382015260200161094e565b506004546040805180820190915260128152600080516020616862833981519152602082015290600160a060020a031633146156c35760405160e560020a62461bcd02815260206004820181815283516024840152835190928392604490910191908501908083836000831561096657818101518382015260200161094e565b506004805491151575010000000000000000000000000000000000000000000275ff000000000000000000000000000000000000000000199092169190911790556003805460ff19169055565b60035460408051808201909152600b8152600080516020616822833981519152602082015260009160ff161561578a5760405160e560020a62461bcd02815260206004820181815283516024840152835190928392604490910191908501908083836000831561096657818101518382015260200161094e565b50615794826116da565b6040518060400160405280600d8152602001600080516020616882833981519152815250906158075760405160e560020a62461bcd02815260206004820181815283516024840152835190928392604490910191908501908083836000831561096657818101518382015260200161094e565b5050600160a060020a031660009081526009602052604090206002015490565b60045474010000000000000000000000000000000000000000900460ff1690565b615851816163ef565b50565b61585e828261645f565b5050565b60008061586f8787615c62565b9050600061587d8686615c62565b9050600061588b8383615c62565b905060006158b2670de0b6b3a76400006158ad670de0b6b3a764000089615f7f565b615c62565b90506158be8282615e3b565b9a9950505050505050505050565b6000806158d98786615c62565b905060006158e78786615abf565b905060006158f58289615c62565b9050600061590b670de0b6b3a764000085615c62565b90506000615919838361646a565b90506000615927828e615e3b565b90506000615935828f615f7f565b9050600061594b670de0b6b3a764000089615f7f565b90506000615959828c615e3b565b9050600061596f670de0b6b3a764000083615f7f565b9050600061597d8583615c62565b9b5050505050505050505050509695505050505050565b604080517f23b872dd000000000000000000000000000000000000000000000000000000008152600160a060020a0384811660048301523060248301526044820184905291516000928616916323b872dd91606480830192602092919082900301818787803b158015615a0657600080fd5b505af1158015615a1a573d6000803e3d6000fd5b505050506040513d6020811015615a3057600080fd5b505160408051808201909152600f81527f4552525f45524332305f46414c53450000000000000000000000000000000000602082015290915081615ab85760405160e560020a62461bcd02815260206004820181815283516024840152835190928392604490910191908501908083836000831561096657818101518382015260200161094e565b5050505050565b60408051808201909152601081527f4552525f4144445f4f564552464c4f570000000000000000000000000000000060208201526000908383019084821015615b4c5760405160e560020a62461bcd02815260206004820181815283516024840152835190928392604490910191908501908083836000831561096657818101518382015260200161094e565b509392505050565b600160a060020a038316600090815260016020526040902054615b779082615c02565b600160a060020a038085166000908152600160205260408082209390935590841681522054615ba69082615abf565b600160a060020a0380841660008181526001602090815260409182902094909455805185815290519193928716927fdeb3a6837278f6e9914a507e4d73f08e841d8fca434fb97d4307b3b0d3d6b10592918290030190a3505050565b600081831015615c5c576040805160e560020a62461bcd02815260206004820152601460248201527f4552525f42544f4b454e5f554e444552464c4f57000000000000000000000000604482015290519081900360640190fd5b50900390565b60408051808201909152600c81527f4552525f4449565f5a45524f0000000000000000000000000000000000000000602082015260009082615ce85760405160e560020a62461bcd02815260206004820181815283516024840152835190928392604490910191908501908083836000831561096657818101518382015260200161094e565b50670de0b6b3a76400008302831580615d115750670de0b6b3a7640000848281615d0e57fe5b04145b6040518060400160405280601081526020017f4552525f4449565f494e5445524e414c0000000000000000000000000000000081525090615d965760405160e560020a62461bcd02815260206004820181815283516024840152835190928392604490910191908501908083836000831561096657818101518382015260200161094e565b5060408051808201909152601081527f4552525f4449565f494e5445524e414c0000000000000000000000000000000060208201526002840482019082821015615e245760405160e560020a62461bcd02815260206004820181815283516024840152835190928392604490910191908501908083836000831561096657818101518382015260200161094e565b506000848281615e3057fe5b049695505050505050565b6000828202831580615e55575082848281615e5257fe5b04145b6040518060400160405280601081526020017f4552525f4d554c5f4f564552464c4f570000000000000000000000000000000081525090615eda5760405160e560020a62461bcd02815260206004820181815283516024840152835190928392604490910191908501908083836000831561096657818101518382015260200161094e565b5060408051808201909152601081527f4552525f4d554c5f4f564552464c4f570000000000000000000000000000000060208201526706f05b59d3b2000082019082821015615f6d5760405160e560020a62461bcd02815260206004820181815283516024840152835190928392604490910191908501908083836000831561096657818101518382015260200161094e565b506000670de0b6b3a764000082615e30565b6000806000615f8e85856165ee565b9150915080156040518060400160405280601181526020017f4552525f5355425f554e444552464c4f57000000000000000000000000000000815250906160195760405160e560020a62461bcd02815260206004820181815283516024840152835190928392604490910191908501908083836000831561096657818101518382015260200161094e565b5090949350505050565b604080517fa9059cbb000000000000000000000000000000000000000000000000000000008152600160a060020a03848116600483015260248201849052915160009286169163a9059cbb91604480830192602092919082900301818787803b158015615a0657600080fd5b60008061609c8786615c62565b905060006160b2670de0b6b3a764000083615f7f565b905060006160c4866127f98488615e3b565b905060006160d28783615f7f565b90508060006160e18d83615abf565b905060006160ef828f615c62565b905060006160fd828961646a565b9050600061610b828f615e3b565b9050616117818f615f7f565b99505050505050505050509695505050505050565b6000806161398887615c62565b905060006161478a87615f7f565b90506000616155828c615c62565b90506000616163828561646a565b90506000616171828c615e3b565b9050600061617f8c83615f7f565b90506000616195670de0b6b3a764000088615f7f565b905060006161a3828c615e3b565b905060006161bd846158ad670de0b6b3a764000085615f7f565b905060006161d7826158ad670de0b6b3a76400008f615f7f565b9a5050505050505050505050979650505050505050565b61585e8282616613565b6158518161661e565b600080616212888888886000615862565b905060006162208583615c62565b90506000616232876158ad898c615abf565b905061624f616241838361646a565b670de0b6b3a7640000615f7f565b935061625b848b615e3b565b93506000616271670de0b6b3a764000087615f7f565b905061627d8582615c62565b9b9a5050505050505050505050565b6000806162998786615c62565b905060006162af670de0b6b3a764000085615f7f565b90506162bb8582615e3b565b905060006162cd8a6158ad8c85615abf565b905060006162db828561646a565b905060006162f1670de0b6b3a764000083615f7f565b90506162fd8a82615e3b565b9c9b505050505050505050505050565b60008061631a8588615c62565b905060006163288786615f7f565b905060006163368883615c62565b90506000616344828561646a565b905061635881670de0b6b3a7640000615f7f565b905061636c670de0b6b3a764000087615f7f565b945061627d61637b8c83615e3b565b86615c62565b60008061638e8887615c62565b9050600061639d82878761668e565b905080880360006163b6670de0b6b3a764000085615c62565b905060006163cd6163c7848d615c62565b8361646a565b905060006163db828f615e3b565b909d039d9c50505050505050505050505050565b306000908152600160205260409020546164099082615abf565b306000908152600160205260409020556002546164269082615abf565b6002556040805182815290517f07883703ed0e86588a40d76551c92f8a4b329e3bf19765e0e6749473c1a846659181900360200190a150565b61585e308383615b54565b600060018310156040518060400160405280601581526020017f4552525f42504f575f424153455f544f4f5f4c4f570000000000000000000000815250906164f65760405160e560020a62461bcd02815260206004820181815283516024840152835190928392604490910191908501908083836000831561096657818101518382015260200161094e565b5060408051808201909152601681527f4552525f42504f575f424153455f544f4f5f48494748000000000000000000006020820152671bc16d674ec7ffff8411156165855760405160e560020a62461bcd02815260206004820181815283516024840152835190928392604490910191908501908083836000831561096657818101518382015260200161094e565b506000616591836166c2565b9050600061659f8483615f7f565b905060006165b5866165b0856166dd565b6166eb565b9050816165c6579250610c63915050565b60006165d787846305f5e100616742565b90506165e38282615e3b565b979650505050505050565b600080828410616604575050808203600061660c565b505081810360015b9250929050565b61585e823083615b54565b306000908152600160205260409020546166389082615c02565b306000908152600160205260409020556002546166559082615c02565b6002556040805182815290517fb90306ad06b2a6ff86ddc9327db583062895ef6540e62dc50add009db5b356eb9181900360200190a150565b6000670de0b6b3a7640000849003816166a78583615e3b565b905060006166b58286615e3b565b9095039695505050505050565b6000670de0b6b3a76400006166d6836166dd565b0292915050565b670de0b6b3a7640000900490565b6000806002830661670457670de0b6b3a7640000616706565b835b90506002830492505b82156154dd5761671f8485615e3b565b93506002830615616737576167348185615e3b565b90505b60028304925061670f565b600082818061675987670de0b6b3a76400006165ee565b9092509050670de0b6b3a764000080600060015b88841115616812576000670de0b6b3a7640000820290506000806167a28a61679d85670de0b6b3a7640000615f7f565b6165ee565b915091506167b4876127f9848c615e3b565b96506167c08784615c62565b9650866167cf57505050616812565b87156167d9579315935b80156167e3579315935b84156167fa576167f38688615f7f565b9550616807565b6168048688615abf565b95505b50505060010161676d565b5090999850505050505050505056fe4552525f5245454e5452590000000000000000000000000000000000000000004552525f535741505f4e4f545f5055424c4943000000000000000000000000004552525f4e4f545f434f4e54524f4c4c455200000000000000000000000000004552525f4e4f545f424f554e44000000000000000000000000000000000000004552525f49535f46494e414c495a454400000000000000000000000000000000a265627a7a72315820d9d517e90eaa285526c2e0dcade1d8b0879a46380a99cb68412f65142fdcafc664736f6c634300050b0032",
  "source": "// This program is free software: you can redistribute it and/or modify\n// it under the terms of the GNU General Public License as published by\n// the Free Software Foundation, either version 3 of the License, or\n// (at your option) any later version.\n\n// This program is distributed in the hope that it will be useful,\n// but WITHOUT ANY WARRANTY; without even the implied warranty of\n// MERCHANTABILITY or FITNESS FOR A PARTICULAR PURPOSE.  See the\n// GNU General Public License for more details.\n\n// You should have received a copy of the GNU General Public License\n// along with this program.  If not, see <http://www.gnu.org/licenses/>.\n\npragma solidity ^0.5.11;\n\nimport \"contracts/BColor.sol\";\nimport \"contracts/BToken.sol\";\nimport \"contracts/BMath.sol\";\n\ncontract BPool is BBronze, BToken, BMath\n{\n    // Invariant: if any one field of a Record is zero, then the rest are zero\n    // Invariant: MIN_WEIGHT < denorm < MAX_WEIGHT\n    // Invariant: MIN_BALANCE < balance < MAX_BALANCE\n    struct Record {\n        uint index;   // private and off-by-one to maintain invariant\n        uint denorm;  // denormalized weight\n        uint balance;\n    }\n\n    event LOG_SWAP( address indexed caller\n                  , address indexed tokenIn\n                  , address indexed tokenOut\n                  , uint256         amountIn\n                  , uint256         amountOut );\n\n    event LOG_CALL( bytes4  indexed sig\n                  , address indexed caller\n                  , bytes           data\n                  )\n          anonymous;\n\n    modifier _logs_() {\n        emit LOG_CALL(msg.sig, msg.sender, msg.data);\n        _;\n    }\n\n    modifier _lock_() {\n        require( !_mutex, ERR_REENTRY);\n        _mutex = true;\n        _;\n        _mutex = false;\n    }\n\n    modifier _viewlock_() {\n        require( !_mutex, ERR_REENTRY);\n        _;\n    }\n\n    bool                      _mutex; // TODO: consider  messageNonce\n\n    // Emulates a rudimentary role-based access control system\n    address                   _factory;    // has FACTORY role\n    address                   _controller; // has CONTROL role\n    bool                      _publicSwap; // true if PUBLIC can call SWAP functions\n    bool                      _publicJoin; // true if PUBLIC can call JOIN functions\n    bool                      _publicExit; // true if PUBLIC can call Exit functions\n                                           //   always true for bronze pools!\n\n    // `setFees` and `finalize` require CONTROL\n    // `finalize` sets `PUBLIC can SWAP`, `PUBLIC can JOIN`, and sets `_controller` to NULL\n    uint                      _swapFee;\n    uint                      _exitFee;\n    bool                      _finalized;\n\n    address[]                 _tokens;\n    mapping(address=>Record)  _records;\n    uint                      _totalWeight;\n\n    constructor() public {\n        _controller = msg.sender;\n        _factory = msg.sender;\n\n        _publicSwap = false;\n        _publicJoin = false;\n        _finalized = false;\n\n        _publicExit = true;\n    }\n\n    function isPublicSwap()\n      public view returns (bool) {\n        return _publicSwap;\n    }\n\n    function isPublicJoin()\n      public view returns (bool) {\n        return _publicJoin;\n    }\n\n    function isPublicExit()\n      public view returns (bool) {\n        return _publicJoin;\n    }\n\n    function isFinalized()\n      public view returns (bool) {\n        return _finalized;\n    }\n\n    function isBound(address t) public view returns (bool) {\n        return _records[t].index != 0;\n    }\n\n    function getNumTokens()\n      public view returns (uint) {\n        return _tokens.length;\n    }\n\n    function getCurrentTokens()\n      public view _viewlock_\n        returns (address[] memory tokens)\n    {\n        return _tokens;\n    }\n\n    function getFinalTokens()\n      public view _viewlock_\n        returns (address[] memory tokens)\n    {\n        require(_finalized, ERR_NOT_FINALIZED);\n        return _tokens;\n    }\n\n    function getDenormalizedWeight(address token)\n      public view _viewlock_\n        returns (uint)\n    {\n        require( isBound(token), ERR_NOT_BOUND);\n        return _records[token].denorm;\n    }\n\n    function getTotalDenormalizedWeight()\n      public view _viewlock_\n      returns (uint)\n    {\n        return _totalWeight;\n    }\n\n    function getNormalizedWeight(address token)\n      public view _viewlock_\n      returns (uint)\n    {\n        require( isBound(token), ERR_NOT_BOUND);\n        uint denorm = _records[token].denorm;\n        return bdiv(denorm, _totalWeight);\n    }\n\n    function getBalance(address token)\n      public view _viewlock_\n      returns (uint)\n    {\n        require( isBound(token), ERR_NOT_BOUND);\n        return _records[token].balance;\n    }\n\n    function getFees()\n      public view _viewlock_\n        returns (uint,uint)\n    {\n        return (_swapFee, _exitFee);\n    }\n\n    function getController()\n      public view _viewlock_\n        returns (address) {\n        return _controller;\n    }\n\n    function setFees(uint swapFee, uint exitFee)\n      _logs_\n      _lock_\n      public\n    { \n        require( ! _finalized, ERR_IS_FINALIZED);\n        require(msg.sender == _controller, ERR_NOT_CONTROLLER);\n        // TODO min fees\n        require(swapFee <= MAX_FEE, ERR_MAX_FEE);\n        require(exitFee <= MAX_FEE, ERR_MAX_FEE);\n        _swapFee = swapFee;\n        _exitFee = exitFee;\n    }\n\n    function setController(address manager)\n      _logs_\n      _lock_\n      public\n    {\n        require(msg.sender == _controller, ERR_NOT_CONTROLLER);\n        _controller = manager;\n    }\n\n    function setPublicSwap(bool public_)\n        _logs_\n        _lock_\n        public\n    {\n        require( ! _finalized, ERR_IS_FINALIZED);\n        require(msg.sender == _controller, ERR_NOT_CONTROLLER);\n        _publicSwap = public_;\n    }\n\n    function setPublicJoin(bool public_)\n        _logs_\n        _lock_\n        public\n    {\n        require( ! _finalized, ERR_IS_FINALIZED);\n        require(msg.sender == _controller, ERR_NOT_CONTROLLER);\n        _publicJoin = public_;\n    }\n\n    function setPublicExit(bool public_)\n        _logs_\n        _lock_\n        public\n    {\n        require( public_, ERR_EXIT_ALWAYS_PUBLIC );\n        require( ! _finalized, ERR_IS_FINALIZED);\n        require(msg.sender == _controller, ERR_NOT_CONTROLLER);\n        _publicExit = public_;\n    }\n\n    function finalize(uint initSupply)\n      _logs_\n      _lock_\n      public\n    {\n        require(msg.sender == _controller, ERR_NOT_CONTROLLER);\n        require( !_finalized, ERR_IS_FINALIZED);\n        require(initSupply >= MIN_POOL_SUPPLY, ERR_MIN_POOL_SUPPLY);\n\n        _finalized = true;\n        _publicSwap = true;\n        _publicJoin = true;\n        _publicExit = true;\n\n        _mintPoolShare(initSupply);\n        _pushPoolShare(msg.sender, initSupply);\n    }\n\n\n    function bind(address token, uint balance, uint denorm)\n      _logs_\n      // _lock_  Bind does not lock because it jumps to `rebind`, which does\n      public\n    {\n        require(msg.sender == _controller, ERR_NOT_CONTROLLER);\n        require( ! isBound(token), ERR_IS_BOUND);\n        require( ! isFinalized(), ERR_IS_FINALIZED);\n\n        require(_tokens.length < MAX_BOUND_TOKENS, ERR_MAX_TOKENS);\n\n        uint length = _tokens.push(token);\n        _records[token] = Record({\n            index: length // 1-indexed (0 is 'unbound' state)\n          , denorm: 0    // balance and denorm will be validated\n          , balance: 0   // and set by `rebind`\n        });\n        rebind(token, balance, denorm);\n    }\n\n    function rebind(address token, uint balance, uint denorm)\n      _logs_\n      _lock_\n      public\n    {\n        require(msg.sender == _controller, ERR_NOT_CONTROLLER);\n        require(isBound(token), ERR_NOT_BOUND);\n        require( ! _finalized, ERR_IS_FINALIZED);\n\n        require(denorm >= MIN_WEIGHT, ERR_MIN_WEIGHT);\n        require(denorm <= MAX_WEIGHT, ERR_MAX_WEIGHT);\n        require(balance >= MIN_BALANCE, ERR_MIN_BALANCE);\n        require(balance <= MAX_BALANCE, ERR_MAX_BALANCE);\n\n        uint oldWeight = _records[token].denorm;\n        if (denorm > oldWeight) {\n            _totalWeight = badd(_totalWeight, bsub(denorm, oldWeight));\n            require( _totalWeight < MAX_TOTAL_WEIGHT, ERR_MAX_TOTAL_WEIGHT );\n        } else {\n            _totalWeight = bsub(_totalWeight, bsub(oldWeight, denorm));\n        }        \n        _records[token].denorm = denorm;\n\n        uint oldBalance = _records[token].balance;\n        _records[token].balance = balance;\n\n        if (balance > oldBalance) {\n            _pullUnderlying(token, msg.sender, bsub(balance, oldBalance));\n        } else if( balance < oldBalance) {\n            _pushUnderlying(token, msg.sender, bsub(oldBalance, balance));\n        }\n    }\n\n    function unbind(address token)\n        _logs_\n        _lock_\n        public\n    {\n        require(msg.sender == _controller, ERR_NOT_CONTROLLER);\n        require(isBound(token), ERR_NOT_BOUND);\n        require( ! _finalized, ERR_IS_FINALIZED);\n\n        _pushUnderlying(token, msg.sender, _records[token].balance);\n        _totalWeight = bsub(_totalWeight, _records[token].denorm);\n\n        // Swap the token-to-unbind with the last token,\n        // then delete the last token\n        uint index = _records[token].index - 1;\n        uint last = _tokens.length - 1;\n        _tokens[index] = _tokens[last];\n        _records[_tokens[index]].index = index + 1;\n        _tokens.pop();\n        _records[token] = Record({\n            index: 0\n          , denorm: 0\n          , balance: 0\n        });\n    }\n\n    // Absorb any tokens that have been sent to this contract into the pool\n    function gulp(address token)\n      _logs_\n      _lock_\n      public\n    {\n        require(isBound(token), ERR_NOT_BOUND);\n        _records[token].balance = ERC20(token).balanceOf(address(this));\n    }\n\n    function collect()\n      _logs_\n      _lock_\n      public returns (uint collected)\n    {\n        require(msg.sender == _factory, ERR_NOT_FACTORY);\n        uint fees = _balance[_factory];\n        _pushPoolShare(_factory, fees);\n        return (collected = fees);\n    }\n\n    function getSpotPrice(address Ti, address To)\n      public view\n        _viewlock_\n        returns (uint P)\n    {\n        require(isBound(Ti), ERR_NOT_BOUND);\n        require(isBound(To), ERR_NOT_BOUND);\n        Record storage I = _records[Ti];\n        Record storage O = _records[To];\n        return _calc_SpotPrice(I.balance, I.denorm, O.balance, O.denorm, _swapFee);\n    }\n\n    function getSpotPriceSansFee(address Ti, address To)\n      public view\n        _viewlock_\n        returns (uint P)\n    {\n        require(isBound(Ti), ERR_NOT_BOUND);\n        require(isBound(To), ERR_NOT_BOUND);\n        Record storage I = _records[Ti];\n        Record storage O = _records[To];\n        return _calc_SpotPrice(I.balance, I.denorm, O.balance, O.denorm, 0);\n    }\n\n    function joinPool(uint poolAo)\n      public\n        _logs_\n        _lock_\n    {\n        require(_finalized, ERR_NOT_FINALIZED);\n        require(isPublicJoin(), ERR_JOIN_NOT_PUBLIC);\n\n        uint poolTotal = totalSupply();\n        uint ratio = bdiv(poolAo, poolTotal);\n        for( uint i = 0; i < _tokens.length; i++ ) {\n            address t = _tokens[i];\n            uint bal = _records[t].balance;\n            uint tAi = bmul(ratio, bal);\n            _records[t].balance = badd(_records[t].balance, tAi);\n            _pullUnderlying(t, msg.sender, tAi);\n        }\n        _mintPoolShare(poolAo);\n        _pushPoolShare(msg.sender, poolAo);\n    }\n\n    function exitPool(uint poolAi)\n      public\n        _logs_\n        _lock_\n    {\n        require(_finalized, ERR_NOT_FINALIZED);\n        require(isPublicExit(), ERR_EXIT_NOT_PUBLIC);\n\n        uint poolTotal = totalSupply();\n        uint ratio = bdiv(poolAi, poolTotal);\n       \n        _pullPoolShare(msg.sender, poolAi); \n        _burnPoolShare(poolAi);\n\n        for( uint i = 0; i < _tokens.length; i++ ) {\n            address t = _tokens[i];\n            uint bal = _records[t].balance;\n            uint tAo = bmul(ratio, bal);\n            _records[t].balance = bsub(_records[t].balance, tAo);\n            _pushUnderlying(t, msg.sender, tAo);\n        }\n    }\n\n\n    function swap_ExactAmountIn(address Ti, uint Ai, address To, uint MinAo, uint MaxP)\n        _logs_\n        _lock_\n        public returns (uint Ao, uint MP)\n    {\n        \n        require( isBound(Ti), ERR_NOT_BOUND );\n        require( isBound(To), ERR_NOT_BOUND );\n        require( isPublicSwap(), ERR_SWAP_NOT_PUBLIC );\n\n        Record storage I = _records[address(Ti)];\n        Record storage O = _records[address(To)];\n\n        require( Ai <= bmul(I.balance, MAX_IN_RATIO), ERR_MAX_IN_RATIO );\n\n        uint SP0 = _calc_SpotPrice(I.balance, I.denorm, O.balance, O.denorm, _swapFee);\n        require( SP0 <= MaxP, ERR_ARG_LIMIT_IN);\n\n        Ao = _calc_OutGivenIn(I.balance, I.denorm, O.balance, O.denorm, Ai, _swapFee);\n        require( Ao >= MinAo, ERR_LIMIT_OUT );\n\n        I.balance = badd(I.balance, Ai);\n        O.balance = bsub(O.balance, Ao);\n\n        uint SP1 = _calc_SpotPrice(I.balance, I.denorm, O.balance, O.denorm, _swapFee);\n        require(SP1 <= MaxP, ERR_LIMIT_PRICE);\n\n        _pullUnderlying(Ti, msg.sender, Ai);\n        _pushUnderlying(To, msg.sender, Ao);\n\n        emit LOG_SWAP(msg.sender, Ti, To, Ai, Ao);\n\n        return (Ao, SP1);\n    }\n\n    function swap_ExactAmountOut(address Ti, uint MaxAi, address To, uint Ao, uint MaxP)\n        _logs_\n        _lock_ \n        public returns (uint Ai, uint MP)\n    {\n        require( isBound(Ti), ERR_NOT_BOUND);\n        require( isBound(To), ERR_NOT_BOUND);\n        require( isPublicSwap(), ERR_SWAP_NOT_PUBLIC );\n\n        Record storage I = _records[address(Ti)];\n        Record storage O = _records[address(To)];\n\n        require(Ao <= bmul(O.balance, MAX_OUT_RATIO), ERR_MAX_OUT_RATIO );\n\n        uint SP0 = _calc_SpotPrice(I.balance, I.denorm, O.balance, O.denorm, _swapFee);\n        require(SP0 <= MaxP, ERR_ARG_LIMIT_PRICE );\n\n        Ai = _calc_InGivenOut(I.balance, I.denorm, O.balance, O.denorm, Ao, _swapFee);\n        require( Ai <= MaxAi, ERR_LIMIT_IN);\n\n        I.balance = badd(I.balance, Ai);\n        O.balance = bsub(O.balance, Ao);\n\n        uint SP1 = _calc_SpotPrice(I.balance, I.denorm, O.balance, O.denorm, _swapFee);\n        require( SP1 <= MaxP, ERR_LIMIT_PRICE);\n\n        _pullUnderlying(Ti, msg.sender, Ai);\n        _pushUnderlying(To, msg.sender, Ao);\n\n        emit LOG_SWAP(msg.sender, Ti, To, Ai, Ao);\n\n        return (Ai, SP1);\n    }\n\n    function swap_ExactMarginalPrice(address Ti, uint Li, address To, uint Lo, uint MarP)\n        _logs_\n        _lock_\n        public returns (uint Ai, uint Ao)\n    {\n        require( isBound(Ti), ERR_NOT_BOUND);\n        require( isBound(To), ERR_NOT_BOUND);\n        require( isPublicSwap(), ERR_SWAP_NOT_PUBLIC );\n\n        Record storage I = _records[address(Ti)];\n        Record storage O = _records[address(To)];\n\n        require(Ao <= bmul(O.balance, MAX_OUT_RATIO), ERR_MAX_OUT_RATIO);\n\n        uint SP0 = _calc_SpotPrice(I.balance, I.denorm, O.balance, O.denorm, _swapFee);\n        require(MarP > SP0, ERR_ARG_LIMIT_PRICE);\n\n        Ai = _calc_InGivenPrice( I.balance, I.denorm, O.balance, O.denorm, MarP, _swapFee );\n        Ao = _calc_OutGivenIn( I.balance, I.denorm, O.balance, O.denorm, Ai, _swapFee );\n\n        require( Ai <= Li, ERR_LIMIT_IN);\n        require( Ao >= Lo, ERR_LIMIT_OUT);\n\n        I.balance = badd(I.balance, Ai);\n        O.balance = bsub(O.balance, Ao);\n\n        _pullUnderlying(Ti, msg.sender, Ai);\n        _pushUnderlying(To, msg.sender, Ao);\n\n        emit LOG_SWAP(msg.sender, Ti, To, Ai, Ao);\n\n        return (Ai, Ao);\n    }\n\n    function joinswap_ExternAmountIn(address Ti, uint256 tAi)\n      public\n        _logs_\n        _lock_\n        returns (uint poolAo)\n    {\n        require( isBound(Ti), ERR_NOT_BOUND );\n        require( isPublicSwap(), ERR_SWAP_NOT_PUBLIC );\n\n        uint oldPoolTotal = _totalSupply;\n\n        Record storage T = _records[Ti];\n\n        poolAo = _calc_PoolOutGivenSingleIn(T.balance, T.denorm, _totalSupply, _totalWeight, tAi, _swapFee);\n\n        _mintPoolShare(poolAo);\n        _pushPoolShare(msg.sender, poolAo);\n        _pullUnderlying(Ti, msg.sender, tAi);\n        T.balance = badd(T.balance, tAi);\n        return poolAo;\n    }\n\n    function joinswap_PoolAmountOut(uint pAo, address Ti)\n      public\n        _logs_\n        _lock_\n        returns (uint tAi)\n    {\n        require( isBound(Ti), ERR_NOT_BOUND );\n        require( isPublicSwap(), ERR_SWAP_NOT_PUBLIC );\n\n        Record storage T = _records[Ti];\n\n        tAi = _calc_SingleInGivenPoolOut(T.balance, T.denorm, _totalSupply, _totalWeight, pAo, _swapFee);\n\n        _mintPoolShare(pAo);\n        _pushPoolShare(msg.sender, pAo);\n        _pullUnderlying(Ti, msg.sender, tAi);\n        T.balance = badd(T.balance, tAi);\n        return tAi;\n    }\n\n    function exitswap_PoolAmountIn(uint pAi, address To)\n      public\n        _logs_\n        _lock_\n        returns (uint tAo)\n    {\n        require( isBound(To), ERR_NOT_BOUND );\n        require( isPublicSwap(), ERR_SWAP_NOT_PUBLIC );\n        require( isPublicExit(), ERR_EXIT_NOT_PUBLIC);\n\n        Record storage T = _records[To];\n\n        tAo = _calc_SingleOutGivenPoolIn(T.balance, T.denorm, _totalSupply, _totalWeight, pAi, _swapFee, _exitFee);\n\n        _pullPoolShare(msg.sender, pAi);\n        // @Nikolai:\n        // TODO: transfer `pAi_exitFee` to _balance[_factory]\n        uint pAiExitFee = bmul(pAi,bsub(BONE,_exitFee)); \n        //_burnPoolShare(bsub(pAi,pAiExitFee));\n        _burnPoolShare(pAi);\n        _pushUnderlying(To, msg.sender, tAo);\n        T.balance = bsub(T.balance, tAo);\n        return tAo;\n    }\n\n    function exitswap_ExternAmountOut(address To, uint tAo)\n      public\n        _logs_\n        _lock_\n        returns (uint poolAiBeforeFees)\n    {\n        require( isBound(To), ERR_NOT_BOUND );\n        require( isPublicSwap(), ERR_SWAP_NOT_PUBLIC );\n        require( isPublicExit(), ERR_EXIT_NOT_PUBLIC);\n\n        Record storage T = _records[To];\n\n        uint poolAiBeforeFees = _calc_PoolInGivenSingleOut(T.balance, T.denorm, _totalSupply, _totalWeight, tAo, _swapFee, _exitFee);\n     \n\n        _pullPoolShare(msg.sender, poolAiBeforeFees);  \n        // @Nikolai:\n        // TODO: transfer `pAi_exitFee` to _balance[_factory]\n        uint pAiExitFee = bmul(poolAiBeforeFees,bsub(BONE,_exitFee)); \n        //_burnPoolShare(bsub(poolAiBeforeFees,pAiExitFee));    \n        _burnPoolShare(poolAiBeforeFees);    \n        _pushUnderlying(To, msg.sender, tAo);\n        T.balance = bsub(T.balance, tAo);\n        return poolAiBeforeFees;\n    }\n\n\n    // ==\n    // 'Underlying' token-manipulation functions make external calls but are NOT locked\n    // You must `_lock_` or otherwise ensure reentry-safety\n\n    function _pullUnderlying(address erc20, address from, uint amt)\n      internal\n    {\n        bool xfer = ERC20(erc20).transferFrom(from, address(this), amt);\n        require(xfer, ERR_ERC20_FALSE);\n    }\n\n    function _pushUnderlying(address erc20, address to, uint amt)\n      internal\n    {\n        bool xfer = ERC20(erc20).transfer(to, amt);\n        require(xfer, ERR_ERC20_FALSE);\n    }\n\n    function _pullPoolShare(address from, uint amount)\n      internal {\n        _pull(from, amount);\n    }\n\n    function _pushPoolShare(address to, uint amount)\n      internal {\n        _push(to, amount);\n    }\n\n    function _mintPoolShare(uint amount)\n      internal {\n        _mint(amount);\n    }\n\n    function _burnPoolShare(uint amount)\n      internal {\n        _burn(amount);\n    }\n\n}\n",
  "sourcePath": "contracts/BPool.sol",
  "compiler": {
    "name": "solc",
    "version": "0.5.11+commit.c082d0b4.Emscripten.clang"
  },
  "schemaVersion": "3.0.11",
  "updatedAt": "2019-10-22T14:50:06.740Z",
  "devdoc": {
    "methods": {}
  },
  "userdoc": {
    "methods": {}
  }
}