{
  "contractName": "BPool",
  "abi": [
    {
      "inputs": [],
      "payable": false,
      "stateMutability": "nonpayable",
      "type": "constructor"
    },
    {
      "anonymous": false,
      "inputs": [
        {
          "indexed": true,
          "internalType": "address",
          "name": "src",
          "type": "address"
        },
        {
          "indexed": true,
          "internalType": "address",
          "name": "dst",
          "type": "address"
        },
        {
          "indexed": false,
          "internalType": "uint256",
          "name": "amt",
          "type": "uint256"
        }
      ],
      "name": "Approval",
      "type": "event"
    },
    {
      "anonymous": true,
      "inputs": [
        {
          "indexed": true,
          "internalType": "bytes4",
          "name": "sig",
          "type": "bytes4"
        },
        {
          "indexed": true,
          "internalType": "address",
          "name": "caller",
          "type": "address"
        },
        {
          "indexed": false,
          "internalType": "bytes",
          "name": "data",
          "type": "bytes"
        }
      ],
      "name": "LOG_CALL",
      "type": "event"
    },
    {
      "anonymous": false,
      "inputs": [
        {
          "indexed": true,
          "internalType": "address",
          "name": "caller",
          "type": "address"
        },
        {
          "indexed": true,
          "internalType": "address",
          "name": "tokenOut",
          "type": "address"
        },
        {
          "indexed": false,
          "internalType": "uint256",
          "name": "tokenAmountOut",
          "type": "uint256"
        }
      ],
      "name": "LOG_EXIT",
      "type": "event"
    },
    {
      "anonymous": false,
      "inputs": [
        {
          "indexed": true,
          "internalType": "address",
          "name": "caller",
          "type": "address"
        },
        {
          "indexed": true,
          "internalType": "address",
          "name": "tokenIn",
          "type": "address"
        },
        {
          "indexed": false,
          "internalType": "uint256",
          "name": "tokenAmountIn",
          "type": "uint256"
        }
      ],
      "name": "LOG_JOIN",
      "type": "event"
    },
    {
      "anonymous": false,
      "inputs": [
        {
          "indexed": true,
          "internalType": "address",
          "name": "caller",
          "type": "address"
        },
        {
          "indexed": true,
          "internalType": "address",
          "name": "tokenIn",
          "type": "address"
        },
        {
          "indexed": true,
          "internalType": "address",
          "name": "tokenOut",
          "type": "address"
        },
        {
          "indexed": false,
          "internalType": "uint256",
          "name": "tokenAmountIn",
          "type": "uint256"
        },
        {
          "indexed": false,
          "internalType": "uint256",
          "name": "tokenAmountOut",
          "type": "uint256"
        }
      ],
      "name": "LOG_SWAP",
      "type": "event"
    },
    {
      "anonymous": false,
      "inputs": [
        {
          "indexed": true,
          "internalType": "address",
          "name": "src",
          "type": "address"
        },
        {
          "indexed": true,
          "internalType": "address",
          "name": "dst",
          "type": "address"
        },
        {
          "indexed": false,
          "internalType": "uint256",
          "name": "amt",
          "type": "uint256"
        }
      ],
      "name": "Transfer",
      "type": "event"
    },
    {
      "constant": true,
      "inputs": [],
      "name": "BONE",
      "outputs": [
        {
          "internalType": "uint256",
          "name": "",
          "type": "uint256"
        }
      ],
      "payable": false,
      "stateMutability": "view",
      "type": "function"
    },
    {
      "constant": true,
      "inputs": [],
      "name": "BPOW_PRECISION",
      "outputs": [
        {
          "internalType": "uint256",
          "name": "",
          "type": "uint256"
        }
      ],
      "payable": false,
      "stateMutability": "view",
      "type": "function"
    },
    {
      "constant": true,
      "inputs": [],
      "name": "EXIT_FEE",
      "outputs": [
        {
          "internalType": "uint256",
          "name": "",
          "type": "uint256"
        }
      ],
      "payable": false,
      "stateMutability": "view",
      "type": "function"
    },
    {
      "constant": true,
      "inputs": [],
      "name": "MAX_BALANCE",
      "outputs": [
        {
          "internalType": "uint256",
          "name": "",
          "type": "uint256"
        }
      ],
      "payable": false,
      "stateMutability": "view",
      "type": "function"
    },
    {
      "constant": true,
      "inputs": [],
      "name": "MAX_BOUND_TOKENS",
      "outputs": [
        {
          "internalType": "uint256",
          "name": "",
          "type": "uint256"
        }
      ],
      "payable": false,
      "stateMutability": "view",
      "type": "function"
    },
    {
      "constant": true,
      "inputs": [],
      "name": "MAX_BPOW_BASE",
      "outputs": [
        {
          "internalType": "uint256",
          "name": "",
          "type": "uint256"
        }
      ],
      "payable": false,
      "stateMutability": "view",
      "type": "function"
    },
    {
      "constant": true,
      "inputs": [],
      "name": "MAX_FEE",
      "outputs": [
        {
          "internalType": "uint256",
          "name": "",
          "type": "uint256"
        }
      ],
      "payable": false,
      "stateMutability": "view",
      "type": "function"
    },
    {
      "constant": true,
      "inputs": [],
      "name": "MAX_IN_RATIO",
      "outputs": [
        {
          "internalType": "uint256",
          "name": "",
          "type": "uint256"
        }
      ],
      "payable": false,
      "stateMutability": "view",
      "type": "function"
    },
    {
      "constant": true,
      "inputs": [],
      "name": "MAX_OUT_RATIO",
      "outputs": [
        {
          "internalType": "uint256",
          "name": "",
          "type": "uint256"
        }
      ],
      "payable": false,
      "stateMutability": "view",
      "type": "function"
    },
    {
      "constant": true,
      "inputs": [],
      "name": "MAX_TOTAL_WEIGHT",
      "outputs": [
        {
          "internalType": "uint256",
          "name": "",
          "type": "uint256"
        }
      ],
      "payable": false,
      "stateMutability": "view",
      "type": "function"
    },
    {
      "constant": true,
      "inputs": [],
      "name": "MAX_WEIGHT",
      "outputs": [
        {
          "internalType": "uint256",
          "name": "",
          "type": "uint256"
        }
      ],
      "payable": false,
      "stateMutability": "view",
      "type": "function"
    },
    {
      "constant": true,
      "inputs": [],
      "name": "MIN_BALANCE",
      "outputs": [
        {
          "internalType": "uint256",
          "name": "",
          "type": "uint256"
        }
      ],
      "payable": false,
      "stateMutability": "view",
      "type": "function"
    },
    {
      "constant": true,
      "inputs": [],
      "name": "MIN_BPOW_BASE",
      "outputs": [
        {
          "internalType": "uint256",
          "name": "",
          "type": "uint256"
        }
      ],
      "payable": false,
      "stateMutability": "view",
      "type": "function"
    },
    {
      "constant": true,
      "inputs": [],
      "name": "MIN_POOL_SUPPLY",
      "outputs": [
        {
          "internalType": "uint256",
          "name": "",
          "type": "uint256"
        }
      ],
      "payable": false,
      "stateMutability": "view",
      "type": "function"
    },
    {
      "constant": true,
      "inputs": [],
      "name": "MIN_WEIGHT",
      "outputs": [
        {
          "internalType": "uint256",
          "name": "",
          "type": "uint256"
        }
      ],
      "payable": false,
      "stateMutability": "view",
      "type": "function"
    },
    {
      "constant": true,
      "inputs": [
        {
          "internalType": "address",
          "name": "src",
          "type": "address"
        },
        {
          "internalType": "address",
          "name": "dst",
          "type": "address"
        }
      ],
      "name": "allowance",
      "outputs": [
        {
          "internalType": "uint256",
          "name": "",
          "type": "uint256"
        }
      ],
      "payable": false,
      "stateMutability": "view",
      "type": "function"
    },
    {
      "constant": false,
      "inputs": [
        {
          "internalType": "address",
          "name": "dst",
          "type": "address"
        },
        {
          "internalType": "uint256",
          "name": "amt",
          "type": "uint256"
        }
      ],
      "name": "approve",
      "outputs": [
        {
          "internalType": "bool",
          "name": "",
          "type": "bool"
        }
      ],
      "payable": false,
      "stateMutability": "nonpayable",
      "type": "function"
    },
    {
      "constant": true,
      "inputs": [
        {
          "internalType": "address",
          "name": "whom",
          "type": "address"
        }
      ],
      "name": "balanceOf",
      "outputs": [
        {
          "internalType": "uint256",
          "name": "",
          "type": "uint256"
        }
      ],
      "payable": false,
      "stateMutability": "view",
      "type": "function"
    },
    {
      "constant": false,
      "inputs": [
        {
          "internalType": "address",
          "name": "dst",
          "type": "address"
        },
        {
          "internalType": "uint256",
          "name": "amt",
          "type": "uint256"
        }
      ],
      "name": "decreaseApproval",
      "outputs": [
        {
          "internalType": "bool",
          "name": "",
          "type": "bool"
        }
      ],
      "payable": false,
      "stateMutability": "nonpayable",
      "type": "function"
    },
    {
      "constant": true,
      "inputs": [],
      "name": "getColor",
      "outputs": [
        {
          "internalType": "bytes32",
          "name": "",
          "type": "bytes32"
        }
      ],
      "payable": false,
      "stateMutability": "view",
      "type": "function"
    },
    {
      "constant": false,
      "inputs": [
        {
          "internalType": "address",
          "name": "dst",
          "type": "address"
        },
        {
          "internalType": "uint256",
          "name": "amt",
          "type": "uint256"
        }
      ],
      "name": "increaseApproval",
      "outputs": [
        {
          "internalType": "bool",
          "name": "",
          "type": "bool"
        }
      ],
      "payable": false,
      "stateMutability": "nonpayable",
      "type": "function"
    },
    {
      "constant": true,
      "inputs": [],
      "name": "totalSupply",
      "outputs": [
        {
          "internalType": "uint256",
          "name": "",
          "type": "uint256"
        }
      ],
      "payable": false,
      "stateMutability": "view",
      "type": "function"
    },
    {
      "constant": false,
      "inputs": [
        {
          "internalType": "address",
          "name": "dst",
          "type": "address"
        },
        {
          "internalType": "uint256",
          "name": "amt",
          "type": "uint256"
        }
      ],
      "name": "transfer",
      "outputs": [
        {
          "internalType": "bool",
          "name": "",
          "type": "bool"
        }
      ],
      "payable": false,
      "stateMutability": "nonpayable",
      "type": "function"
    },
    {
      "constant": false,
      "inputs": [
        {
          "internalType": "address",
          "name": "src",
          "type": "address"
        },
        {
          "internalType": "address",
          "name": "dst",
          "type": "address"
        },
        {
          "internalType": "uint256",
          "name": "amt",
          "type": "uint256"
        }
      ],
      "name": "transferFrom",
      "outputs": [
        {
          "internalType": "bool",
          "name": "",
          "type": "bool"
        }
      ],
      "payable": false,
      "stateMutability": "nonpayable",
      "type": "function"
    },
    {
      "constant": true,
      "inputs": [],
      "name": "isPublicSwap",
      "outputs": [
        {
          "internalType": "bool",
          "name": "",
          "type": "bool"
        }
      ],
      "payable": false,
      "stateMutability": "view",
      "type": "function"
    },
    {
      "constant": true,
      "inputs": [],
      "name": "isFinalized",
      "outputs": [
        {
          "internalType": "bool",
          "name": "",
          "type": "bool"
        }
      ],
      "payable": false,
      "stateMutability": "view",
      "type": "function"
    },
    {
      "constant": true,
      "inputs": [
        {
          "internalType": "address",
          "name": "t",
          "type": "address"
        }
      ],
      "name": "isBound",
      "outputs": [
        {
          "internalType": "bool",
          "name": "",
          "type": "bool"
        }
      ],
      "payable": false,
      "stateMutability": "view",
      "type": "function"
    },
    {
      "constant": true,
      "inputs": [],
      "name": "getNumTokens",
      "outputs": [
        {
          "internalType": "uint256",
          "name": "",
          "type": "uint256"
        }
      ],
      "payable": false,
      "stateMutability": "view",
      "type": "function"
    },
    {
      "constant": true,
      "inputs": [],
      "name": "getCurrentTokens",
      "outputs": [
        {
          "internalType": "address[]",
          "name": "tokens",
          "type": "address[]"
        }
      ],
      "payable": false,
      "stateMutability": "view",
      "type": "function"
    },
    {
      "constant": true,
      "inputs": [],
      "name": "getFinalTokens",
      "outputs": [
        {
          "internalType": "address[]",
          "name": "tokens",
          "type": "address[]"
        }
      ],
      "payable": false,
      "stateMutability": "view",
      "type": "function"
    },
    {
      "constant": true,
      "inputs": [
        {
          "internalType": "address",
          "name": "token",
          "type": "address"
        }
      ],
      "name": "getDenormalizedWeight",
      "outputs": [
        {
          "internalType": "uint256",
          "name": "",
          "type": "uint256"
        }
      ],
      "payable": false,
      "stateMutability": "view",
      "type": "function"
    },
    {
      "constant": true,
      "inputs": [],
      "name": "getTotalDenormalizedWeight",
      "outputs": [
        {
          "internalType": "uint256",
          "name": "",
          "type": "uint256"
        }
      ],
      "payable": false,
      "stateMutability": "view",
      "type": "function"
    },
    {
      "constant": true,
      "inputs": [
        {
          "internalType": "address",
          "name": "token",
          "type": "address"
        }
      ],
      "name": "getNormalizedWeight",
      "outputs": [
        {
          "internalType": "uint256",
          "name": "",
          "type": "uint256"
        }
      ],
      "payable": false,
      "stateMutability": "view",
      "type": "function"
    },
    {
      "constant": true,
      "inputs": [
        {
          "internalType": "address",
          "name": "token",
          "type": "address"
        }
      ],
      "name": "getBalance",
      "outputs": [
        {
          "internalType": "uint256",
          "name": "",
          "type": "uint256"
        }
      ],
      "payable": false,
      "stateMutability": "view",
      "type": "function"
    },
    {
      "constant": true,
      "inputs": [],
      "name": "getSwapFee",
      "outputs": [
        {
          "internalType": "uint256",
          "name": "",
          "type": "uint256"
        }
      ],
      "payable": false,
      "stateMutability": "view",
      "type": "function"
    },
    {
      "constant": true,
      "inputs": [],
      "name": "getController",
      "outputs": [
        {
          "internalType": "address",
          "name": "",
          "type": "address"
        }
      ],
      "payable": false,
      "stateMutability": "view",
      "type": "function"
    },
    {
      "constant": false,
      "inputs": [
        {
          "internalType": "uint256",
          "name": "swapFee",
          "type": "uint256"
        }
      ],
      "name": "setSwapFee",
      "outputs": [],
      "payable": false,
      "stateMutability": "nonpayable",
      "type": "function"
    },
    {
      "constant": false,
      "inputs": [
        {
          "internalType": "address",
          "name": "manager",
          "type": "address"
        }
      ],
      "name": "setController",
      "outputs": [],
      "payable": false,
      "stateMutability": "nonpayable",
      "type": "function"
    },
    {
      "constant": false,
      "inputs": [
        {
          "internalType": "bool",
          "name": "public_",
          "type": "bool"
        }
      ],
      "name": "setPublicSwap",
      "outputs": [],
      "payable": false,
      "stateMutability": "nonpayable",
      "type": "function"
    },
    {
      "constant": false,
      "inputs": [
        {
          "internalType": "uint256",
          "name": "initSupply",
          "type": "uint256"
        }
      ],
      "name": "finalize",
      "outputs": [],
      "payable": false,
      "stateMutability": "nonpayable",
      "type": "function"
    },
    {
      "constant": false,
      "inputs": [
        {
          "internalType": "address",
          "name": "token",
          "type": "address"
        },
        {
          "internalType": "uint256",
          "name": "balance",
          "type": "uint256"
        },
        {
          "internalType": "uint256",
          "name": "denorm",
          "type": "uint256"
        }
      ],
      "name": "bind",
      "outputs": [],
      "payable": false,
      "stateMutability": "nonpayable",
      "type": "function"
    },
    {
      "constant": false,
      "inputs": [
        {
          "internalType": "address",
          "name": "token",
          "type": "address"
        },
        {
          "internalType": "uint256",
          "name": "balance",
          "type": "uint256"
        },
        {
          "internalType": "uint256",
          "name": "denorm",
          "type": "uint256"
        }
      ],
      "name": "rebind",
      "outputs": [],
      "payable": false,
      "stateMutability": "nonpayable",
      "type": "function"
    },
    {
      "constant": false,
      "inputs": [
        {
          "internalType": "address",
          "name": "token",
          "type": "address"
        }
      ],
      "name": "unbind",
      "outputs": [],
      "payable": false,
      "stateMutability": "nonpayable",
      "type": "function"
    },
    {
      "constant": false,
      "inputs": [
        {
          "internalType": "address",
          "name": "token",
          "type": "address"
        }
      ],
      "name": "gulp",
      "outputs": [],
      "payable": false,
      "stateMutability": "nonpayable",
      "type": "function"
    },
    {
      "constant": true,
      "inputs": [
        {
          "internalType": "address",
          "name": "tokenIn",
          "type": "address"
        },
        {
          "internalType": "address",
          "name": "tokenOut",
          "type": "address"
        }
      ],
      "name": "getSpotPrice",
      "outputs": [
        {
          "internalType": "uint256",
          "name": "spotPrice",
          "type": "uint256"
        }
      ],
      "payable": false,
      "stateMutability": "view",
      "type": "function"
    },
    {
      "constant": true,
      "inputs": [
        {
          "internalType": "address",
          "name": "tokenIn",
          "type": "address"
        },
        {
          "internalType": "address",
          "name": "tokenOut",
          "type": "address"
        }
      ],
      "name": "getSpotPriceSansFee",
      "outputs": [
        {
          "internalType": "uint256",
          "name": "spotPrice",
          "type": "uint256"
        }
      ],
      "payable": false,
      "stateMutability": "view",
      "type": "function"
    },
    {
      "constant": false,
      "inputs": [
        {
          "internalType": "uint256",
          "name": "poolAmountOut",
          "type": "uint256"
        }
      ],
      "name": "joinPool",
      "outputs": [],
      "payable": false,
      "stateMutability": "nonpayable",
      "type": "function"
    },
    {
      "constant": false,
      "inputs": [
        {
          "internalType": "uint256",
          "name": "poolAmountIn",
          "type": "uint256"
        }
      ],
      "name": "exitPool",
      "outputs": [],
      "payable": false,
      "stateMutability": "nonpayable",
      "type": "function"
    },
    {
      "constant": false,
      "inputs": [
        {
          "internalType": "address",
          "name": "tokenIn",
          "type": "address"
        },
        {
          "internalType": "uint256",
          "name": "tokenAmountIn",
          "type": "uint256"
        },
        {
          "internalType": "address",
          "name": "tokenOut",
          "type": "address"
        },
        {
          "internalType": "uint256",
          "name": "minAmountOut",
          "type": "uint256"
        },
        {
          "internalType": "uint256",
          "name": "maxPrice",
          "type": "uint256"
        }
      ],
      "name": "swapExactAmountIn",
      "outputs": [
        {
          "internalType": "uint256",
          "name": "tokenAmountOut",
          "type": "uint256"
        },
        {
          "internalType": "uint256",
          "name": "spotPriceTarget",
          "type": "uint256"
        }
      ],
      "payable": false,
      "stateMutability": "nonpayable",
      "type": "function"
    },
    {
      "constant": false,
      "inputs": [
        {
          "internalType": "address",
          "name": "tokenIn",
          "type": "address"
        },
        {
          "internalType": "uint256",
          "name": "maxAmountIn",
          "type": "uint256"
        },
        {
          "internalType": "address",
          "name": "tokenOut",
          "type": "address"
        },
        {
          "internalType": "uint256",
          "name": "tokenAmountOut",
          "type": "uint256"
        },
        {
          "internalType": "uint256",
          "name": "maxPrice",
          "type": "uint256"
        }
      ],
      "name": "swapExactAmountOut",
      "outputs": [
        {
          "internalType": "uint256",
          "name": "tokenAmountIn",
          "type": "uint256"
        },
        {
          "internalType": "uint256",
          "name": "spotPriceTarget",
          "type": "uint256"
        }
      ],
      "payable": false,
      "stateMutability": "nonpayable",
      "type": "function"
    },
    {
      "constant": false,
      "inputs": [
        {
          "internalType": "address",
          "name": "tokenIn",
          "type": "address"
        },
        {
          "internalType": "uint256",
          "name": "tokenAmountIn",
          "type": "uint256"
        }
      ],
      "name": "joinswapExternAmountIn",
      "outputs": [
        {
          "internalType": "uint256",
          "name": "poolAmountOut",
          "type": "uint256"
        }
      ],
      "payable": false,
      "stateMutability": "nonpayable",
      "type": "function"
    },
    {
      "constant": false,
      "inputs": [
        {
          "internalType": "uint256",
          "name": "poolAmountOut",
          "type": "uint256"
        },
        {
          "internalType": "address",
          "name": "tokenIn",
          "type": "address"
        }
      ],
      "name": "joinswapPoolAmountOut",
      "outputs": [
        {
          "internalType": "uint256",
          "name": "tokenAmountIn",
          "type": "uint256"
        }
      ],
      "payable": false,
      "stateMutability": "nonpayable",
      "type": "function"
    },
    {
      "constant": false,
      "inputs": [
        {
          "internalType": "uint256",
          "name": "poolAmountIn",
          "type": "uint256"
        },
        {
          "internalType": "address",
          "name": "tokenOut",
          "type": "address"
        }
      ],
      "name": "exitswapPoolAmountIn",
      "outputs": [
        {
          "internalType": "uint256",
          "name": "tokenAmountOut",
          "type": "uint256"
        }
      ],
      "payable": false,
      "stateMutability": "nonpayable",
      "type": "function"
    },
    {
      "constant": false,
      "inputs": [
        {
          "internalType": "address",
          "name": "tokenOut",
          "type": "address"
        },
        {
          "internalType": "uint256",
          "name": "tokenAmountOut",
          "type": "uint256"
        }
      ],
      "name": "exitswapExternAmountOut",
      "outputs": [
        {
          "internalType": "uint256",
          "name": "poolAmountIn",
          "type": "uint256"
        }
      ],
      "payable": false,
      "stateMutability": "nonpayable",
      "type": "function"
    }
  ],
  "bytecode": "0x608060405234801561001057600080fd5b50600480546003805461010060a860020a03191633610100810291909117909155600160a060020a03199091161760a060020a60ff02191690556006805460ff19169055614db0806100636000396000f3fe608060405234801561001057600080fd5b506004361061035f576000357c010000000000000000000000000000000000000000000000000000000090048063948d8ce6116101d5578063cc77828d11610121578063e4a28a52116100bf578063ec09302111610099578063ec0930211461092c578063f1b8a9b714610934578063f8b2cb4f1461095a578063fde924f7146109805761035f565b8063e4a28a52146103c3578063e4e1e538146108ce578063e4f348f7146109005761035f565b8063d4cadf68116100fb578063d4cadf6814610864578063d73dd6231461086c578063dd62ed3e14610898578063def92c69146108c65761035f565b8063cc77828d1461082e578063cd2ed8fb14610836578063cf5e7bd31461083e5761035f565b8063bc063e1a1161018e578063be3bbd2e11610168578063be3bbd2e146107a2578063c36596a614610449578063c424fe89146107fa578063c6580d12146108265761035f565b8063bc063e1a14610775578063bc694ea21461077d578063be1d24ad146107855761035f565b8063948d8ce614610703578063992e2a92146107295780639a86139b14610731578063a9059cbb14610739578063b0e0d13614610765578063ba019dab1461076d5761035f565b80633fdddaa2116102af5780637e88781c1161024d5780638c28cbe8116102275780638c28cbe8146106a75780638d4e4083146106cd57806392eefe9b146106d5578063936c3477146106fb5761035f565b80637e88781c146104495780638201aa3f1461065f578063867378c51461069f5761035f565b8063661884631161028957806366188463146105885780636d4fd626146105b457806370a08231146105e05780637c5e9ea4146106065761035f565b80633fdddaa21461050b578063447fc5cc1461053d57806349b59552146105695761035f565b8063189d00ca1161031c5780632f37b624116102f65780632f37b624146104875780633018205f146104ad57806334e19907146104d157806334e7a19f146104ee5761035f565b8063189d00ca14610441578063218b53821461044957806323b872dd146104515761035f565b806305261aea14610364578063095ea7b31461038357806309a3bbe4146103c35780631446a7ff146103dd57806315e84af91461040b57806318160ddd14610439575b600080fd5b6103816004803603602081101561037a57600080fd5b5035610988565b005b6103af6004803603604081101561039957600080fd5b50600160a060020a038135169060200135610b9c565b604080519115158252519081900360200190f35b6103cb610bef565b60408051918252519081900360200190f35b6103cb600480360360408110156103f357600080fd5b50600160a060020a0381358116916020013516610bfc565b6103cb6004803603604081101561042157600080fd5b50600160a060020a0381358116916020013516610d2b565b6103cb610e51565b6103cb610e57565b6103cb610e6b565b6103af6004803603606081101561046757600080fd5b50600160a060020a03813581169160208101359091169060400135610e77565b6103af6004803603602081101561049d57600080fd5b5035600160a060020a0316610fd4565b6104b5610ff2565b60408051600160a060020a039092168252519081900360200190f35b610381600480360360208110156104e757600080fd5b503561104e565b6103816004803603602081101561050457600080fd5b503561120d565b6103816004803603606081101561052157600080fd5b50600160a060020a03813516906020810135906040013561144d565b6103cb6004803603604081101561055357600080fd5b50600160a060020a0381351690602001356118f0565b6103816004803603602081101561057f57600080fd5b50351515611b3c565b6103af6004803603604081101561059e57600080fd5b50600160a060020a038135169060200135611cd6565b6103cb600480360360408110156105ca57600080fd5b5080359060200135600160a060020a0316611da6565b6103cb600480360360208110156105f657600080fd5b5035600160a060020a0316611fb2565b610646600480360360a081101561061c57600080fd5b50600160a060020a0381358116916020810135916040820135169060608101359060800135611fcd565b6040805192835260208301919091528051918290030190f35b610646600480360360a081101561067557600080fd5b50600160a060020a03813581169160208101359160408201351690606081013590608001356124a3565b6103cb612960565b610381600480360360208110156106bd57600080fd5b5035600160a060020a0316612972565b6103af612b2b565b610381600480360360208110156106eb57600080fd5b5035600160a060020a0316612b34565b6103cb612c76565b6103cb6004803603602081101561071957600080fd5b5035600160a060020a0316612cc9565b6103cb612d7f565b6103cb612d8b565b6103af6004803603604081101561074f57600080fd5b50600160a060020a038135169060200135612daf565b6103cb612dc5565b6103cb612dca565b6103cb612dcf565b6103cb612ddf565b6103816004803603602081101561079b57600080fd5b5035612deb565b6107aa61306f565b60408051602080825283518183015283519192839290830191858101910280838360005b838110156107e65781810151838201526020016107ce565b505050509050019250505060405180910390f35b6103cb6004803603604081101561081057600080fd5b5080359060200135600160a060020a0316613175565b6103cb6133aa565b6107aa6133bb565b6103cb613407565b6103816004803603602081101561085457600080fd5b5035600160a060020a031661340d565b6103cb613787565b6103af6004803603604081101561088257600080fd5b50600160a060020a0381351690602001356137da565b6103cb600480360360408110156108ae57600080fd5b50600160a060020a0381358116916020013516613857565b6103cb613880565b610381600480360360608110156108e457600080fd5b50600160a060020a038135169060208101359060400135613891565b6103cb6004803603604081101561091657600080fd5b50600160a060020a038135169060200135613b04565b6103cb613cff565b6103cb6004803603602081101561094a57600080fd5b5035600160a060020a0316613d0f565b6103cb6004803603602081101561097057600080fd5b5035600160a060020a0316613dd7565b6103af613e8d565b33600160a060020a0316600035600160e060020a031916600160e060020a03191660003660405180806020018281038252848482818152602001925080828437600083820152604051601f909101601f19169092018290039550909350505050a260035460ff1615610a32576040805160e560020a62461bcd02815260206004820152600b6024820152600080516020614c9c833981519152604482015290519081900360640190fd5b6003805460ff1916600117905560045433600160a060020a0390911614610a91576040805160e560020a62461bcd0281526020600482015260126024820152600080516020614cdc833981519152604482015290519081900360640190fd5b60065460ff1615610ada576040805160e560020a62461bcd0281526020600482015260106024820152600080516020614d3c833981519152604482015290519081900360640190fd5b670de0b6b3a7640000811015610b3a576040805160e560020a62461bcd02815260206004820152601360248201527f4552525f4d494e5f504f4f4c5f535550504c5900000000000000000000000000604482015290519081900360640190fd5b6006805460ff191660011790556004805474ff0000000000000000000000000000000000000000191674010000000000000000000000000000000000000000179055610b8581613eae565b610b8f3382613eba565b506003805460ff19169055565b33600081815260208181526040808320600160a060020a03871680855290835281842086905581518681529151939490939092600080516020614d1c833981519152928290030190a35060015b92915050565b6802b5e3af16b188000081565b60035460009060ff1615610c48576040805160e560020a62461bcd02815260206004820152600b6024820152600080516020614c9c833981519152604482015290519081900360640190fd5b610c5183610fd4565b610c93576040805160e560020a62461bcd02815260206004820152600d6024820152600080516020614cfc833981519152604482015290519081900360640190fd5b610c9c82610fd4565b610cde576040805160e560020a62461bcd02815260206004820152600d6024820152600080516020614cfc833981519152604482015290519081900360640190fd5b600160a060020a038084166000908152600860205260408082209285168252812060038084015460028086015492840154908401549394610d229492939290613ec8565b95945050505050565b60035460009060ff1615610d77576040805160e560020a62461bcd02815260206004820152600b6024820152600080516020614c9c833981519152604482015290519081900360640190fd5b610d8083610fd4565b610dc2576040805160e560020a62461bcd02815260206004820152600d6024820152600080516020614cfc833981519152604482015290519081900360640190fd5b610dcb82610fd4565b610e0d576040805160e560020a62461bcd02815260206004820152600d6024820152600080516020614cfc833981519152604482015290519081900360640190fd5b600160a060020a03808416600090815260086020526040808220928516825290206003808301546002808501549284015490840154600554610d2294929190613ec8565b60025490565b6402540be400670de0b6b3a76400005b0481565b670de0b6b3a764000081565b600033600160a060020a0385161480610eb15750600160a060020a0384166000908152602081815260408083203384529091529020548211155b610f05576040805160e560020a62461bcd02815260206004820152601560248201527f4552525f42544f4b454e5f4241445f43414c4c45520000000000000000000000604482015290519081900360640190fd5b610f10848484613f32565b33600160a060020a03851614801590610f4c5750600160a060020a03841660009081526020818152604080832033845290915290205460001914155b15610fca57600160a060020a038416600090815260208181526040808320338452909152902054610f7d9083614050565b600160a060020a038581166000908152602081815260408083203380855290835292819020859055805194855251928716939192600080516020614d1c8339815191529281900390910190a35b5060019392505050565b600160a060020a031660009081526008602052604090205460ff1690565b60035460009060ff161561103e576040805160e560020a62461bcd02815260206004820152600b6024820152600080516020614c9c833981519152604482015290519081900360640190fd5b50600454600160a060020a031690565b33600160a060020a0316600035600160e060020a031916600160e060020a03191660003660405180806020018281038252848482818152602001925080828437600083820152604051601f909101601f19169092018290039550909350505050a260035460ff16156110f8576040805160e560020a62461bcd02815260206004820152600b6024820152600080516020614c9c833981519152604482015290519081900360640190fd5b6003805460ff1916600117905560065460ff161561114e576040805160e560020a62461bcd0281526020600482015260106024820152600080516020614d3c833981519152604482015290519081900360640190fd5b600454600160a060020a0316331461119e576040805160e560020a62461bcd0281526020600482015260126024820152600080516020614cdc833981519152604482015290519081900360640190fd5b67016345785d8a00008111156111fe576040805160e560020a62461bcd02815260206004820152600b60248201527f4552525f4d41585f464545000000000000000000000000000000000000000000604482015290519081900360640190fd5b6005556003805460ff19169055565b33600160a060020a0316600035600160e060020a031916600160e060020a03191660003660405180806020018281038252848482818152602001925080828437600083820152604051601f909101601f19169092018290039550909350505050a260035460ff16156112b7576040805160e560020a62461bcd02815260206004820152600b6024820152600080516020614c9c833981519152604482015290519081900360640190fd5b6003805460ff1916600117905560065460ff1661131e576040805160e560020a62461bcd02815260206004820152601160248201527f4552525f4e4f545f46494e414c495a4544000000000000000000000000000000604482015290519081900360640190fd5b6000611328610e51565b9050600061133683836140c1565b90508061134257600080fd5b60005b60075481101561142a5760006007828154811061135e57fe5b6000918252602080832090910154600160a060020a031680835260089091526040822060030154909250906113938583614208565b600160a060020a0384166000908152600860205260409020600301549091506113bc90826142ea565b600160a060020a0384166000818152600860209081526040918290206003019390935580518481529051919233927f63982df10efd8dfaaaa0fcc7f50b2d93b7cba26ccc48adee2873220d485dc39a9281900390910190a361141f833383614347565b505050600101611345565b5061143483613eae565b61143e3384613eba565b50506003805460ff1916905550565b33600160a060020a0316600035600160e060020a031916600160e060020a03191660003660405180806020018281038252848482818152602001925080828437600083820152604051601f909101601f19169092018290039550909350505050a260035460ff16156114f7576040805160e560020a62461bcd02815260206004820152600b6024820152600080516020614c9c833981519152604482015290519081900360640190fd5b6003805460ff1916600117905560045433600160a060020a0390911614611556576040805160e560020a62461bcd0281526020600482015260126024820152600080516020614cdc833981519152604482015290519081900360640190fd5b61155f83610fd4565b6115a1576040805160e560020a62461bcd02815260206004820152600d6024820152600080516020614cfc833981519152604482015290519081900360640190fd5b60065460ff16156115ea576040805160e560020a62461bcd0281526020600482015260106024820152600080516020614d3c833981519152604482015290519081900360640190fd5b670de0b6b3a764000081101561164a576040805160e560020a62461bcd02815260206004820152600e60248201527f4552525f4d494e5f574549474854000000000000000000000000000000000000604482015290519081900360640190fd5b6802b5e3af16b18800008111156116ab576040805160e560020a62461bcd02815260206004820152600e60248201527f4552525f4d41585f574549474854000000000000000000000000000000000000604482015290519081900360640190fd5b64e8d4a51000821015611708576040805160e560020a62461bcd02815260206004820152600f60248201527f4552525f4d494e5f42414c414e43450000000000000000000000000000000000604482015290519081900360640190fd5b6c0c9f2c9cd04674edea4000000082111561176d576040805160e560020a62461bcd02815260206004820152600f60248201527f4552525f4d41585f42414c414e43450000000000000000000000000000000000604482015290519081900360640190fd5b600160a060020a03831660009081526008602052604090206002015480821115611810576117a66009546117a18484614050565b6142ea565b60098190556802b5e3af16b1880000101561180b576040805160e560020a62461bcd02815260206004820152601460248201527f4552525f4d41585f544f54414c5f574549474854000000000000000000000000604482015290519081900360640190fd5b611831565b808210156118315761182d6009546118288385614050565b614050565b6009555b600160a060020a0384166000908152600860205260409020600281018390556003018054908490558084111561187a5761187585336118708785614050565b614347565b6118df565b808410156118df57600061188e8286614050565b905060006118a982612710670de0b6b3a76400005b04614208565b90506118bf87336118ba8585614050565b614442565b6003546118dc9088906101009004600160a060020a031683614442565b50505b50506003805460ff19169055505050565b600033600160a060020a0316600035600160e060020a031916600160e060020a03191660003660405180806020018281038252848482818152602001925080828437600083820152604051601f909101601f19169092018290039550909350505050a260035460ff161561199c576040805160e560020a62461bcd02815260206004820152600b6024820152600080516020614c9c833981519152604482015290519081900360640190fd5b6003805460ff191660011790556119b283610fd4565b6119f4576040805160e560020a62461bcd02815260206004820152600d6024820152600080516020614cfc833981519152604482015290519081900360640190fd5b6119fc613e8d565b611a3e576040805160e560020a62461bcd0281526020600482015260136024820152600080516020614cbc833981519152604482015290519081900360640190fd5b600160a060020a038316600090815260086020526040902060038101546002808301549054600954600554611a78949392919088906144ae565b9150611a88816003015484614050565b60038201556000611aa483612710670de0b6b3a76400006118a3565b604080518681529051919250600160a060020a0387169133917fe74c91552b64c2e2e7bd255639e004e693bd3e1d01cc33e65610b86afcc1ffed919081900360200190a3611af23384614571565b611b04611aff8483614050565b61457b565b600354611b1f906101009004600160a060020a031682613eba565b611b2a853386614442565b50506003805460ff1916905592915050565b33600160a060020a0316600035600160e060020a031916600160e060020a03191660003660405180806020018281038252848482818152602001925080828437600083820152604051601f909101601f19169092018290039550909350505050a260035460ff1615611be6576040805160e560020a62461bcd02815260206004820152600b6024820152600080516020614c9c833981519152604482015290519081900360640190fd5b6003805460ff1916600117905560065460ff1615611c3c576040805160e560020a62461bcd0281526020600482015260106024820152600080516020614d3c833981519152604482015290519081900360640190fd5b600454600160a060020a03163314611c8c576040805160e560020a62461bcd0281526020600482015260126024820152600080516020614cdc833981519152604482015290519081900360640190fd5b60048054911515740100000000000000000000000000000000000000000274ff0000000000000000000000000000000000000000199092169190911790556003805460ff19169055565b33600090815260208181526040808320600160a060020a038616845290915281205480831115611d275733600090815260208181526040808320600160a060020a0388168452909152812055611d54565b611d318184614050565b33600090815260208181526040808320600160a060020a03891684529091529020555b33600081815260208181526040808320600160a060020a038916808552908352928190205481519081529051929392600080516020614d1c833981519152929181900390910190a35060019392505050565b600033600160a060020a0316600035600160e060020a031916600160e060020a03191660003660405180806020018281038252848482818152602001925080828437600083820152604051601f909101601f19169092018290039550909350505050a260035460ff1615611e52576040805160e560020a62461bcd02815260206004820152600b6024820152600080516020614c9c833981519152604482015290519081900360640190fd5b6003805460ff19166001179055611e6882610fd4565b611eaa576040805160e560020a62461bcd02815260206004820152600d6024820152600080516020614cfc833981519152604482015290519081900360640190fd5b611eb2613e8d565b611ef4576040805160e560020a62461bcd0281526020600482015260136024820152600080516020614cbc833981519152604482015290519081900360640190fd5b600160a060020a038216600090815260086020526040902060038101546002808301549054600954600554611f2e94939291908990614584565b9150611f3e8160030154836142ea565b6003820155604080518381529051600160a060020a0385169133917f63982df10efd8dfaaaa0fcc7f50b2d93b7cba26ccc48adee2873220d485dc39a9181900360200190a3611f8c84613eae565b611f963385613eba565b611fa1833384614347565b506003805460ff1916905592915050565b600160a060020a031660009081526001602052604090205490565b6040805160208082523690820181905260009283923392600160e060020a03198535169285929081908101848480828437600083820152604051601f909101601f19169092018290039550909350505050a260035460ff1615612068576040805160e560020a62461bcd02815260206004820152600b6024820152600080516020614c9c833981519152604482015290519081900360640190fd5b6003805460ff1916600117905561207e87610fd4565b6120c0576040805160e560020a62461bcd02815260206004820152600d6024820152600080516020614cfc833981519152604482015290519081900360640190fd5b6120c985610fd4565b61210b576040805160e560020a62461bcd02815260206004820152600d6024820152600080516020614cfc833981519152604482015290519081900360640190fd5b612113613e8d565b612155576040805160e560020a62461bcd0281526020600482015260136024820152600080516020614cbc833981519152604482015290519081900360640190fd5b600160a060020a0387811660009081526008602052604080822092881682529020600381015461218d906704a03ce68d215556614208565b8611156121e4576040805160e560020a62461bcd02815260206004820152601160248201527f4552525f4d41585f4f55545f524154494f000000000000000000000000000000604482015290519081900360640190fd5b60006122058360030154846002015484600301548560020154600554613ec8565b90508581111561225f576040805160e560020a62461bcd02815260206004820152601360248201527f4552525f4241445f4c494d49545f505249434500000000000000000000000000604482015290519081900360640190fd5b61227f83600301548460020154846003015485600201548b600554614637565b9450888511156122d9576040805160e560020a62461bcd02815260206004820152600c60248201527f4552525f4c494d49545f494e0000000000000000000000000000000000000000604482015290519081900360640190fd5b6122e78360030154866142ea565b83600301819055506122fd826003015488614050565b826003018190555060006123268460030154856002015485600301548660020154600554613ec8565b90508181101561236e576040805160e560020a62461bcd02815260206004820152600f6024820152600080516020614d5c833981519152604482015290519081900360640190fd5b868111156123c6576040805160e560020a62461bcd02815260206004820152600f60248201527f4552525f4c494d49545f50524943450000000000000000000000000000000000604482015290519081900360640190fd5b6123d086896140c1565b821115612415576040805160e560020a62461bcd02815260206004820152600f6024820152600080516020614d5c833981519152604482015290519081900360640190fd5b88600160a060020a03168b600160a060020a031633600160a060020a03167f908fb5ee8f16c6bc9bc3690973819f32a4d4b10188134543c88706e0e1d43378898c604051808381526020018281526020019250505060405180910390a461247d8b3388614347565b61248889338a614442565b93505050506003805460ff1916905590969095509350505050565b6040805160208082523690820181905260009283923392600160e060020a03198535169285929081908101848480828437600083820152604051601f909101601f19169092018290039550909350505050a260035460ff161561253e576040805160e560020a62461bcd02815260206004820152600b6024820152600080516020614c9c833981519152604482015290519081900360640190fd5b6003805460ff1916600117905561255487610fd4565b612596576040805160e560020a62461bcd02815260206004820152600d6024820152600080516020614cfc833981519152604482015290519081900360640190fd5b61259f85610fd4565b6125e1576040805160e560020a62461bcd02815260206004820152600d6024820152600080516020614cfc833981519152604482015290519081900360640190fd5b6125e9613e8d565b61262b576040805160e560020a62461bcd0281526020600482015260136024820152600080516020614cbc833981519152604482015290519081900360640190fd5b600160a060020a03808816600090815260086020526040808220928816825290206003820154612665906002670de0b6b3a76400006118a3565b8811156126bc576040805160e560020a62461bcd02815260206004820152601060248201527f4552525f4d41585f494e5f524154494f00000000000000000000000000000000604482015290519081900360640190fd5b60006126dd8360030154846002015484600301548560020154600554613ec8565b905085811115612737576040805160e560020a62461bcd02815260206004820152601360248201527f4552525f4241445f4c494d49545f505249434500000000000000000000000000604482015290519081900360640190fd5b61275783600301548460020154846003015485600201548d6005546146ba565b9450868510156127b1576040805160e560020a62461bcd02815260206004820152600d60248201527f4552525f4c494d49545f4f555400000000000000000000000000000000000000604482015290519081900360640190fd5b6127bf83600301548a6142ea565b83600301819055506127d5826003015486614050565b826003018190555060006127fe8460030154856002015485600301548660020154600554613ec8565b905081811015612846576040805160e560020a62461bcd02815260206004820152600f6024820152600080516020614d5c833981519152604482015290519081900360640190fd5b8681111561289e576040805160e560020a62461bcd02815260206004820152600f60248201527f4552525f4c494d49545f50524943450000000000000000000000000000000000604482015290519081900360640190fd5b6128a88a876140c1565b8211156128ed576040805160e560020a62461bcd02815260206004820152600f6024820152600080516020614d5c833981519152604482015290519081900360640190fd5b88600160a060020a03168b600160a060020a031633600160a060020a03167f908fb5ee8f16c6bc9bc3690973819f32a4d4b10188134543c88706e0e1d433788d8a604051808381526020018281526020019250505060405180910390a46129558b338c614347565b612488893388614442565b620f4240670de0b6b3a7640000610e67565b33600160a060020a0316600035600160e060020a031916600160e060020a03191660003660405180806020018281038252848482818152602001925080828437600083820152604051601f909101601f19169092018290039550909350505050a260035460ff1615612a1c576040805160e560020a62461bcd02815260206004820152600b6024820152600080516020614c9c833981519152604482015290519081900360640190fd5b6003805460ff19166001179055612a3281610fd4565b612a74576040805160e560020a62461bcd02815260206004820152600d6024820152600080516020614cfc833981519152604482015290519081900360640190fd5b604080517f70a082310000000000000000000000000000000000000000000000000000000081523060048201529051600160a060020a038316916370a08231916024808301926020929190829003018186803b158015612ad357600080fd5b505afa158015612ae7573d6000803e3d6000fd5b505050506040513d6020811015612afd57600080fd5b5051600160a060020a039091166000908152600860205260409020600390810191909155805460ff19169055565b60065460ff1690565b33600160a060020a0316600035600160e060020a031916600160e060020a03191660003660405180806020018281038252848482818152602001925080828437600083820152604051601f909101601f19169092018290039550909350505050a260035460ff1615612bde576040805160e560020a62461bcd02815260206004820152600b6024820152600080516020614c9c833981519152604482015290519081900360640190fd5b6003805460ff1916600117905560045433600160a060020a0390911614612c3d576040805160e560020a62461bcd0281526020600482015260126024820152600080516020614cdc833981519152604482015290519081900360640190fd5b6004805473ffffffffffffffffffffffffffffffffffffffff1916600160a060020a03929092169190911790556003805460ff19169055565b60035460009060ff1615612cc2576040805160e560020a62461bcd02815260206004820152600b6024820152600080516020614c9c833981519152604482015290519081900360640190fd5b5060095490565b60035460009060ff1615612d15576040805160e560020a62461bcd02815260206004820152600b6024820152600080516020614c9c833981519152604482015290519081900360640190fd5b612d1e82610fd4565b612d60576040805160e560020a62461bcd02815260206004820152600d6024820152600080516020614cfc833981519152604482015290519081900360640190fd5b50600160a060020a031660009081526008602052604090206002015490565b6704a03ce68d21555681565b7f42524f4e5a45000000000000000000000000000000000000000000000000000090565b6000612dbc338484613f32565b50600192915050565b600881565b600181565b600a670de0b6b3a7640000610e67565b671bc16d674ec7ffff81565b33600160a060020a0316600035600160e060020a031916600160e060020a03191660003660405180806020018281038252848482818152602001925080828437600083820152604051601f909101601f19169092018290039550909350505050a260035460ff1615612e95576040805160e560020a62461bcd02815260206004820152600b6024820152600080516020614c9c833981519152604482015290519081900360640190fd5b6003805460ff1916600117905560065460ff16612efc576040805160e560020a62461bcd02815260206004820152601160248201527f4552525f4e4f545f46494e414c495a4544000000000000000000000000000000604482015290519081900360640190fd5b6000612f06610e51565b90506000612f1f83612710670de0b6b3a76400006118a3565b90506000612f2d8483614050565b90506000612f3b82856140c1565b905080612f4757600080fd5b612f513386614571565b600354612f6c906101009004600160a060020a031684613eba565b612f758261457b565b60005b60075481101561305d57600060078281548110612f9157fe5b6000918252602080832090910154600160a060020a03168083526008909152604082206003015490925090612fc68583614208565b600160a060020a038416600090815260086020526040902060030154909150612fef9082614050565b600160a060020a0384166000818152600860209081526040918290206003019390935580518481529051919233927fe74c91552b64c2e2e7bd255639e004e693bd3e1d01cc33e65610b86afcc1ffed9281900390910190a3613052833383614442565b505050600101612f78565b50506003805460ff1916905550505050565b60035460609060ff16156130bb576040805160e560020a62461bcd02815260206004820152600b6024820152600080516020614c9c833981519152604482015290519081900360640190fd5b60065460ff16613115576040805160e560020a62461bcd02815260206004820152601160248201527f4552525f4e4f545f46494e414c495a4544000000000000000000000000000000604482015290519081900360640190fd5b600780548060200260200160405190810160405280929190818152602001828054801561316b57602002820191906000526020600020905b8154600160a060020a0316815260019091019060200180831161314d575b5050505050905090565b600033600160a060020a0316600035600160e060020a031916600160e060020a03191660003660405180806020018281038252848482818152602001925080828437600083820152604051601f909101601f19169092018290039550909350505050a260035460ff1615613221576040805160e560020a62461bcd02815260206004820152600b6024820152600080516020614c9c833981519152604482015290519081900360640190fd5b6003805460ff1916600117905561323782610fd4565b613279576040805160e560020a62461bcd02815260206004820152600d6024820152600080516020614cfc833981519152604482015290519081900360640190fd5b613281613e8d565b6132c3576040805160e560020a62461bcd0281526020600482015260136024820152600080516020614cbc833981519152604482015290519081900360640190fd5b600160a060020a0382166000908152600860205260409020600381015460028083015490546009546005546132fd9493929190899061473b565b915061330d816003015483614050565b6003820155600061332985612710670de0b6b3a76400006118a3565b604080518581529051919250600160a060020a0386169133917fe74c91552b64c2e2e7bd255639e004e693bd3e1d01cc33e65610b86afcc1ffed919081900360200190a36133773386614571565b613384611aff8683614050565b60035461339f906101009004600160a060020a031682613eba565b611b2a843385614442565b612710670de0b6b3a7640000610e67565b60035460609060ff1615613115576040805160e560020a62461bcd02815260206004820152600b6024820152600080516020614c9c833981519152604482015290519081900360640190fd5b60075490565b33600160a060020a0316600035600160e060020a031916600160e060020a03191660003660405180806020018281038252848482818152602001925080828437600083820152604051601f909101601f19169092018290039550909350505050a260035460ff16156134b7576040805160e560020a62461bcd02815260206004820152600b6024820152600080516020614c9c833981519152604482015290519081900360640190fd5b6003805460ff1916600117905560045433600160a060020a0390911614613516576040805160e560020a62461bcd0281526020600482015260126024820152600080516020614cdc833981519152604482015290519081900360640190fd5b61351f81610fd4565b613561576040805160e560020a62461bcd02815260206004820152600d6024820152600080516020614cfc833981519152604482015290519081900360640190fd5b60065460ff16156135aa576040805160e560020a62461bcd0281526020600482015260106024820152600080516020614d3c833981519152604482015290519081900360640190fd5b600160a060020a038116600090815260086020526040812060030154906135dc82612710670de0b6b3a76400006118a3565b600954600160a060020a03851660009081526008602052604090206002015491925061360791614050565b600955600160a060020a0383166000908152600860205260409020600101546007805460001992830192810191908290811061363f57fe5b60009182526020909120015460078054600160a060020a03909216918490811061366557fe5b9060005260206000200160006101000a815481600160a060020a030219169083600160a060020a03160217905550600780548061369e57fe5b6001900381819060005260206000200160006101000a815490600160a060020a03021916905590558160086000600785815481106136d857fe5b600091825260208083209190910154600160a060020a0390811684528382019490945260409283018220600190810195909555825160808101845282815280820183815281850184815260608301858152968d1685526008909352939092209151825460ff19169015151782559151938101939093555160028301555160039091015561376a85336118ba8787614050565b6003546118df9086906101009004600160a060020a031685614442565b60035460009060ff16156137d3576040805160e560020a62461bcd02815260206004820152600b6024820152600080516020614c9c833981519152604482015290519081900360640190fd5b5060055490565b33600090815260208181526040808320600160a060020a038616845290915281205461380690836142ea565b33600081815260208181526040808320600160a060020a038916808552908352928190208590558051948552519193600080516020614d1c833981519152929081900390910190a350600192915050565b600160a060020a0391821660009081526020818152604080832093909416825291909152205490565b6c0c9f2c9cd04674edea4000000081565b33600160a060020a0316600035600160e060020a031916600160e060020a03191660003660405180806020018281038252848482818152602001925080828437600083820152604051601f909101601f19169092018290039550909350505050a2600454600160a060020a03163314613942576040805160e560020a62461bcd0281526020600482015260126024820152600080516020614cdc833981519152604482015290519081900360640190fd5b61394b83610fd4565b156139a0576040805160e560020a62461bcd02815260206004820152600c60248201527f4552525f49535f424f554e440000000000000000000000000000000000000000604482015290519081900360640190fd5b6139a8612b2b565b156139eb576040805160e560020a62461bcd0281526020600482015260106024820152600080516020614d3c833981519152604482015290519081900360640190fd5b600754600811613a45576040805160e560020a62461bcd02815260206004820152600e60248201527f4552525f4d41585f544f4b454e53000000000000000000000000000000000000604482015290519081900360640190fd5b604080516080810182526001808252600780546020808501918252600085870181815260608701828152600160a060020a038c1680845260089094529782209651875460ff1916901515178755925186860155915160028601559451600390940193909355805491820181559091527fa66cc928b5edb82af9bd49922954155ab7b0942694bea4ce44661d9a8736c68801805473ffffffffffffffffffffffffffffffffffffffff19169091179055613aff83838361144d565b505050565b600033600160a060020a0316600035600160e060020a031916600160e060020a03191660003660405180806020018281038252848482818152602001925080828437600083820152604051601f909101601f19169092018290039550909350505050a260035460ff1615613bb0576040805160e560020a62461bcd02815260206004820152600b6024820152600080516020614c9c833981519152604482015290519081900360640190fd5b6003805460ff19166001179055613bc683610fd4565b613c08576040805160e560020a62461bcd02815260206004820152600d6024820152600080516020614cfc833981519152604482015290519081900360640190fd5b613c10613e8d565b613c52576040805160e560020a62461bcd0281526020600482015260136024820152600080516020614cbc833981519152604482015290519081900360640190fd5b600160a060020a038316600090815260086020526040902060038101546002808301549054600954600554613c8c949392919088906147f2565b9150613c9c8160030154846142ea565b6003820155604080518481529051600160a060020a0386169133917f63982df10efd8dfaaaa0fcc7f50b2d93b7cba26ccc48adee2873220d485dc39a9181900360200190a3613cea82613eae565b613cf43383613eba565b611fa1843385614347565b6002670de0b6b3a7640000610e67565b60035460009060ff1615613d5b576040805160e560020a62461bcd02815260206004820152600b6024820152600080516020614c9c833981519152604482015290519081900360640190fd5b613d6482610fd4565b613da6576040805160e560020a62461bcd02815260206004820152600d6024820152600080516020614cfc833981519152604482015290519081900360640190fd5b600160a060020a038216600090815260086020526040902060020154600954613dd09082906140c1565b9392505050565b60035460009060ff1615613e23576040805160e560020a62461bcd02815260206004820152600b6024820152600080516020614c9c833981519152604482015290519081900360640190fd5b613e2c82610fd4565b613e6e576040805160e560020a62461bcd02815260206004820152600d6024820152600080516020614cfc833981519152604482015290519081900360640190fd5b50600160a060020a031660009081526008602052604090206003015490565b60045474010000000000000000000000000000000000000000900460ff1690565b613eb78161488e565b50565b613ec48282614903565b5050565b600080613ed587876140c1565b90506000613ee386866140c1565b90506000613ef183836140c1565b90506000613f18670de0b6b3a7640000613f13670de0b6b3a764000089614050565b6140c1565b9050613f248282614208565b9a9950505050505050505050565b600160a060020a038316600090815260016020526040902054811115613fa2576040805160e560020a62461bcd02815260206004820152601460248201527f4552525f494e53554646494349454e545f42414c000000000000000000000000604482015290519081900360640190fd5b600160a060020a038316600090815260016020526040902054613fc59082614050565b600160a060020a038085166000908152600160205260408082209390935590841681522054613ff490826142ea565b600160a060020a0380841660008181526001602090815260409182902094909455805185815290519193928716927fddf252ad1be2c89b69c2b068fc378daa952ba7f163c4a11628f55a4df523b3ef92918290030190a3505050565b600080600061405f858561490e565b9150915080156140b9576040805160e560020a62461bcd02815260206004820152601160248201527f4552525f5355425f554e444552464c4f57000000000000000000000000000000604482015290519081900360640190fd5b509392505050565b600081614118576040805160e560020a62461bcd02815260206004820152600c60248201527f4552525f4449565f5a45524f0000000000000000000000000000000000000000604482015290519081900360640190fd5b670de0b6b3a764000083028315806141405750670de0b6b3a764000084828161413d57fe5b04145b614194576040805160e560020a62461bcd02815260206004820152601060248201527f4552525f4449565f494e5445524e414c00000000000000000000000000000000604482015290519081900360640190fd5b600283048101818110156141f2576040805160e560020a62461bcd02815260206004820152601060248201527f4552525f4449565f494e5445524e414c00000000000000000000000000000000604482015290519081900360640190fd5b60008482816141fd57fe5b049695505050505050565b600082820283158061422257508284828161421f57fe5b04145b614276576040805160e560020a62461bcd02815260206004820152601060248201527f4552525f4d554c5f4f564552464c4f5700000000000000000000000000000000604482015290519081900360640190fd5b6706f05b59d3b200008101818110156142d9576040805160e560020a62461bcd02815260206004820152601060248201527f4552525f4d554c5f4f564552464c4f5700000000000000000000000000000000604482015290519081900360640190fd5b6000670de0b6b3a7640000826141fd565b600082820183811015613dd0576040805160e560020a62461bcd02815260206004820152601060248201527f4552525f4144445f4f564552464c4f5700000000000000000000000000000000604482015290519081900360640190fd5b604080517f23b872dd000000000000000000000000000000000000000000000000000000008152600160a060020a0384811660048301523060248301526044820184905291516000928616916323b872dd91606480830192602092919082900301818787803b1580156143b957600080fd5b505af11580156143cd573d6000803e3d6000fd5b505050506040513d60208110156143e357600080fd5b505190508061443c576040805160e560020a62461bcd02815260206004820152600f60248201527f4552525f45524332305f46414c53450000000000000000000000000000000000604482015290519081900360640190fd5b50505050565b604080517fa9059cbb000000000000000000000000000000000000000000000000000000008152600160a060020a03848116600483015260248201849052915160009286169163a9059cbb91604480830192602092919082900301818787803b1580156143b957600080fd5b6000806144bb87866140c1565b905060006144d1670de0b6b3a764000083614050565b905060006144df8286614208565b905060006144f987613f13670de0b6b3a764000085614050565b905060006145078c83614050565b90506000614515828e6140c1565b905060006145238288614933565b90506000614531828e614208565b9050600061453f8e83614050565b905061455c81613f13670de0b6b3a7640000612710815b04614050565b99505050505050505050509695505050505050565b613ec48282614a56565b613eb781614a61565b60008061459187866140c1565b9050600061459f87866142ea565b905060006145ad82896140c1565b905060006145c3670de0b6b3a7640000856140c1565b905060006145d18383614933565b905060006145df828e614208565b905060006145ed828f614050565b9050600061460c614606670de0b6b3a76400008a614050565b8b614208565b905061462482613f13670de0b6b3a764000084614050565b9f9e505050505050505050505050505050565b60008061464485886140c1565b905060006146528786614050565b9050600061466088836140c1565b9050600061466e8285614933565b905061468281670de0b6b3a7640000614050565b9050614696670de0b6b3a764000087614050565b94506146ab6146a58c83614208565b866140c1565b9b9a5050505050505050505050565b6000806146c787866140c1565b905060006146dd670de0b6b3a764000085614050565b90506146e98582614208565b905060006146fb8a613f138c856142ea565b905060006147098285614933565b9050600061471f670de0b6b3a764000083614050565b905061472b8a82614208565b9c9b505050505050505050505050565b60008061474887866140c1565b9050600061476a85614765670de0b6b3a764000061271081614556565b614208565b905060006147788883614050565b90506000614786828a6140c1565b905060006147a5826147a0670de0b6b3a7640000886140c1565b614933565b905060006147b3828e614208565b905060006147c18e83614050565b905060006147da614606670de0b6b3a76400008a614050565b905061462482614765670de0b6b3a764000084614050565b6000806147ff87866140c1565b9050600061481e614818670de0b6b3a764000084614050565b85614208565b9050600061483886614765670de0b6b3a764000085614050565b905060006148468b836142ea565b90506000614854828d6140c1565b905060006148628287614933565b90506000614870828d614208565b905061487c818d614050565b9e9d5050505050505050505050505050565b306000908152600160205260409020546148a890826142ea565b306000908152600160205260409020556002546148c590826142ea565b60025560408051828152905130916000917fddf252ad1be2c89b69c2b068fc378daa952ba7f163c4a11628f55a4df523b3ef9181900360200190a350565b613ec4308383613f32565b600080828410614924575050808203600061492c565b505081810360015b9250929050565b6000600183101561498e576040805160e560020a62461bcd02815260206004820152601560248201527f4552525f42504f575f424153455f544f4f5f4c4f570000000000000000000000604482015290519081900360640190fd5b671bc16d674ec7ffff8311156149ee576040805160e560020a62461bcd02815260206004820152601660248201527f4552525f42504f575f424153455f544f4f5f4849474800000000000000000000604482015290519081900360640190fd5b60006149f983614b3d565b90506000614a078483614050565b90506000614a1d86614a1885614b58565b614b66565b905081614a2e579250610be9915050565b6000614a3f87846305f5e100614bbd565b9050614a4b8282614208565b979650505050505050565b613ec4823083613f32565b30600090815260016020526040902054811115614ac8576040805160e560020a62461bcd02815260206004820152601460248201527f4552525f494e53554646494349454e545f42414c000000000000000000000000604482015290519081900360640190fd5b30600090815260016020526040902054614ae29082614050565b30600090815260016020526040902055600254614aff9082614050565b60025560408051828152905160009130917fddf252ad1be2c89b69c2b068fc378daa952ba7f163c4a11628f55a4df523b3ef9181900360200190a350565b6000670de0b6b3a7640000614b5183614b58565b0292915050565b670de0b6b3a7640000900490565b60008060028306614b7f57670de0b6b3a7640000614b81565b835b90506002830492505b8215613dd057614b9a8485614208565b93506002830615614bb257614baf8185614208565b90505b600283049250614b8a565b6000828180614bd487670de0b6b3a764000061490e565b9092509050670de0b6b3a764000080600060015b888410614c8c576000670de0b6b3a764000082029050600080614c1c8a614c1785670de0b6b3a7640000614050565b61490e565b91509150614c2e87614765848c614208565b9650614c3a87846140c1565b965086614c4957505050614c8c565b8715614c53579315935b8015614c5d579315935b8415614c7457614c6d8688614050565b9550614c81565b614c7e86886142ea565b95505b505050600101614be8565b5090999850505050505050505056fe4552525f5245454e5452590000000000000000000000000000000000000000004552525f535741505f4e4f545f5055424c4943000000000000000000000000004552525f4e4f545f434f4e54524f4c4c455200000000000000000000000000004552525f4e4f545f424f554e44000000000000000000000000000000000000008c5be1e5ebec7d5bd14f71427d1e84f3dd0314c0f7b2291e5b200ac8c7c3b9254552525f49535f46494e414c495a4544000000000000000000000000000000004552525f4d4154485f415050524f580000000000000000000000000000000000a265627a7a723158205e863900cc66c6ffb2d35bc28bfe3ca01d35caca8af6a6f29d38fdb6bc9d2cb564736f6c634300050c0032",
  "source": "// This program is free software: you can redistribute it and/or modify\n// it under the terms of the GNU General Public License as published by\n// the Free Software Foundation, either version 3 of the License, or\n// (at your option) any later version.\n\n// This program is distributed in the hope that it will be useful,\n// but WITHOUT ANY WARRANTY; without even the implied warranty of\n// MERCHANTABILITY or FITNESS FOR A PARTICULAR PURPOSE.  See the\n// GNU General Public License for more details.\n\n// You should have received a copy of the GNU General Public License\n// along with this program.  If not, see <http://www.gnu.org/licenses/>.\n\npragma solidity 0.5.12;\n\nimport \"./BToken.sol\";\nimport \"./BMath.sol\";\n\ncontract BPool is BBronze, BToken, BMath {\n\n    struct Record {\n        bool bound;\n        uint index;   // private\n        uint denorm;  // denormalized weight\n        uint balance;\n    }\n\n    event LOG_SWAP(\n        address indexed caller,\n        address indexed tokenIn,\n        address indexed tokenOut,\n        uint256         tokenAmountIn,\n        uint256         tokenAmountOut\n    );\n\n    event LOG_JOIN(\n        address indexed caller,\n        address indexed tokenIn,\n        uint256         tokenAmountIn\n    );\n\n    event LOG_EXIT(\n        address indexed caller,\n        address indexed tokenOut,\n        uint256         tokenAmountOut\n    );\n\n    event LOG_CALL(\n        bytes4  indexed sig,\n        address indexed caller,\n        bytes           data\n    ) anonymous;\n\n    modifier _logs_() {\n        emit LOG_CALL(msg.sig, msg.sender, msg.data);\n        _;\n    }\n\n    modifier _lock_() {\n        require(!_mutex, \"ERR_REENTRY\");\n        _mutex = true;\n        _;\n        _mutex = false;\n    }\n\n    modifier _viewlock_() {\n        require(!_mutex, \"ERR_REENTRY\");\n        _;\n    }\n\n    bool private _mutex; // TODO: consider  messageNonce\n\n    // Emulates a rudimentary role-based access control system\n    address private _factory;    // has FACTORY role\n    address private _controller; // has CONTROL role\n    bool private _publicSwap; // true if PUBLIC can call SWAP functions\n\n    // `setSwapFee` and `finalize` require CONTROL\n    // `finalize` sets `PUBLIC can SWAP`, `PUBLIC can JOIN`\n    uint private _swapFee;\n    bool private _finalized;\n\n    address[] private _tokens;\n    mapping(address=>Record) private  _records;\n    uint private _totalWeight;\n\n    constructor() public {\n        _controller = msg.sender;\n        _factory = msg.sender;\n\n        _publicSwap = false;\n        _finalized = false;\n    }\n\n    function isPublicSwap()\n        public view\n        returns (bool)\n    {\n        return _publicSwap;\n    }\n\n    function isFinalized()\n        public view\n        returns (bool)\n    {\n        return _finalized;\n    }\n\n    function isBound(address t)\n        public view\n        returns (bool)\n    {\n        return _records[t].bound;\n    }\n\n    function getNumTokens()\n        external view\n        returns (uint) \n    {\n        return _tokens.length;\n    }\n\n    function getCurrentTokens()\n        external view _viewlock_\n        returns (address[] memory tokens)\n    {\n        return _tokens;\n    }\n\n    function getFinalTokens()\n        external view\n        _viewlock_\n        returns (address[] memory tokens)\n    {\n        require(_finalized, \"ERR_NOT_FINALIZED\");\n        return _tokens;\n    }\n\n    function getDenormalizedWeight(address token)\n        external view\n        _viewlock_\n        returns (uint)\n    {\n\n        require(isBound(token), \"ERR_NOT_BOUND\");\n        return _records[token].denorm;\n    }\n\n    function getTotalDenormalizedWeight()\n        external view\n        _viewlock_\n        returns (uint)\n    {\n        return _totalWeight;\n    }\n\n    function getNormalizedWeight(address token)\n        external view\n        _viewlock_\n        returns (uint)\n    {\n\n        require(isBound(token), \"ERR_NOT_BOUND\");\n        uint denorm = _records[token].denorm;\n        return bdiv(denorm, _totalWeight);\n    }\n\n    function getBalance(address token)\n        external view\n        _viewlock_\n        returns (uint)\n    {\n\n        require(isBound(token), \"ERR_NOT_BOUND\");\n        return _records[token].balance;\n    }\n\n    function getSwapFee()\n        external view\n        _viewlock_\n        returns (uint)\n    {\n        return _swapFee;\n    }\n\n    function getController()\n        external view\n        _viewlock_\n        returns (address)\n    {\n        return _controller;\n    }\n\n    function setSwapFee(uint swapFee)\n        external\n        _logs_\n        _lock_\n    { \n        require(!_finalized, \"ERR_IS_FINALIZED\");\n        require(msg.sender == _controller, \"ERR_NOT_CONTROLLER\");\n        // TODO min fees\n        require(swapFee <= MAX_FEE, \"ERR_MAX_FEE\");\n        _swapFee = swapFee;\n    }\n\n    function setController(address manager)\n        external\n        _logs_\n        _lock_\n    {\n        require(msg.sender == _controller, \"ERR_NOT_CONTROLLER\");\n        _controller = manager;\n    }\n\n    function setPublicSwap(bool public_)\n        external\n        _logs_\n        _lock_\n    {\n        require(!_finalized, \"ERR_IS_FINALIZED\");\n        require(msg.sender == _controller, \"ERR_NOT_CONTROLLER\");\n        _publicSwap = public_;\n    }\n\n    function finalize(uint initSupply)\n        external\n        _logs_\n        _lock_\n    {\n        require(msg.sender == _controller, \"ERR_NOT_CONTROLLER\");\n        require(!_finalized, \"ERR_IS_FINALIZED\");\n        require(initSupply >= MIN_POOL_SUPPLY, \"ERR_MIN_POOL_SUPPLY\");\n\n        _finalized = true;\n        _publicSwap = true;\n\n        _mintPoolShare(initSupply);\n        _pushPoolShare(msg.sender, initSupply);\n    }\n\n\n    function bind(address token, uint balance, uint denorm)\n        external\n        _logs_\n        // _lock_  Bind does not lock because it jumps to `rebind`, which does\n    {\n        require(msg.sender == _controller, \"ERR_NOT_CONTROLLER\");\n        require(!isBound(token), \"ERR_IS_BOUND\");\n        require(!isFinalized(), \"ERR_IS_FINALIZED\");\n\n        require(_tokens.length < MAX_BOUND_TOKENS, \"ERR_MAX_TOKENS\");\n\n        _records[token] = Record({\n            bound: true,\n            index: _tokens.length, // 1-indexed (0 is 'unbound' state)\n            denorm: 0,    // balance and denorm will be validated\n            balance: 0   // and set by `rebind`\n        });\n        _tokens.push(token);\n        rebind(token, balance, denorm);\n    }\n\n    function rebind(address token, uint balance, uint denorm)\n        public\n        _logs_\n        _lock_\n    {\n\n        require(msg.sender == _controller, \"ERR_NOT_CONTROLLER\");\n        require(isBound(token), \"ERR_NOT_BOUND\");\n        require(!_finalized, \"ERR_IS_FINALIZED\");\n\n        require(denorm >= MIN_WEIGHT, \"ERR_MIN_WEIGHT\");\n        require(denorm <= MAX_WEIGHT, \"ERR_MAX_WEIGHT\");\n        require(balance >= MIN_BALANCE, \"ERR_MIN_BALANCE\");\n        require(balance <= MAX_BALANCE, \"ERR_MAX_BALANCE\");\n\n        // Adjust the denorm and totalWeight\n        uint oldWeight = _records[token].denorm;\n        if (denorm > oldWeight) {\n            _totalWeight = badd(_totalWeight, bsub(denorm, oldWeight));\n            require(_totalWeight <= MAX_TOTAL_WEIGHT, \"ERR_MAX_TOTAL_WEIGHT\");\n        } else if (denorm < oldWeight) {\n            _totalWeight = bsub(_totalWeight, bsub(oldWeight, denorm));\n        }        \n        _records[token].denorm = denorm;\n\n        // Adjust the balance record and actual token balance\n        uint oldBalance = _records[token].balance;\n        _records[token].balance = balance;\n        if (balance > oldBalance) {\n            _pullUnderlying(token, msg.sender, bsub(balance, oldBalance));\n        } else if (balance < oldBalance) {\n            // In this case liquidity is being withdrawn, so charge EXIT_FEE\n            uint tokenBalanceWithdrawn = bsub(oldBalance, balance);\n            uint tokenExitFee = bmul(tokenBalanceWithdrawn, EXIT_FEE);\n            _pushUnderlying(token, msg.sender, bsub(tokenBalanceWithdrawn, tokenExitFee));\n            _pushUnderlying(token, _factory, tokenExitFee);\n        }\n    }\n\n    function unbind(address token)\n        external\n        _logs_\n        _lock_\n    {\n\n        require(msg.sender == _controller, \"ERR_NOT_CONTROLLER\");\n        require(isBound(token), \"ERR_NOT_BOUND\");\n        require(!_finalized, \"ERR_IS_FINALIZED\");\n\n        uint tokenBalance = _records[token].balance;\n        uint tokenExitFee = bmul(tokenBalance, EXIT_FEE);\n\n        _totalWeight = bsub(_totalWeight, _records[token].denorm);\n\n        // Swap the token-to-unbind with the last token,\n        // then delete the last token\n        uint index = _records[token].index - 1;\n        uint last = _tokens.length - 1;\n        _tokens[index] = _tokens[last];\n        _tokens.pop();\n        _records[_tokens[index]].index = index;\n        _records[token] = Record({\n            bound: false,\n            index: 0,\n            denorm: 0,\n            balance: 0\n        });\n\n        _pushUnderlying(token, msg.sender, bsub(tokenBalance, tokenExitFee));\n        _pushUnderlying(token, _factory, tokenExitFee);\n    }\n\n    // Absorb any tokens that have been sent to this contract into the pool\n    function gulp(address token)\n        external\n        _logs_\n        _lock_\n    {\n        require(isBound(token), \"ERR_NOT_BOUND\");\n        _records[token].balance = IERC20(token).balanceOf(address(this));\n    }\n\n    function getSpotPrice(address tokenIn, address tokenOut)\n        external view\n        _viewlock_\n        returns (uint spotPrice)\n    {\n        require(isBound(tokenIn), \"ERR_NOT_BOUND\");\n        require(isBound(tokenOut), \"ERR_NOT_BOUND\");\n        Record storage inRecord = _records[tokenIn];\n        Record storage outRecord = _records[tokenOut];\n        return calcSpotPrice(inRecord.balance, inRecord.denorm, outRecord.balance, outRecord.denorm, _swapFee);\n    }\n\n    function getSpotPriceSansFee(address tokenIn, address tokenOut)\n        external view\n        _viewlock_\n        returns (uint spotPrice)\n    {\n        require(isBound(tokenIn), \"ERR_NOT_BOUND\");\n        require(isBound(tokenOut), \"ERR_NOT_BOUND\");\n        Record storage inRecord = _records[tokenIn];\n        Record storage outRecord = _records[tokenOut];\n        return calcSpotPrice(inRecord.balance, inRecord.denorm, outRecord.balance, outRecord.denorm, 0);\n    }\n\n    function joinPool(uint poolAmountOut)\n        external\n        _logs_\n        _lock_\n    {\n        require(_finalized, \"ERR_NOT_FINALIZED\");\n\n        uint poolTotal = totalSupply();\n        uint ratio = bdiv(poolAmountOut, poolTotal);\n        require(ratio != 0);\n\n        for (uint i = 0; i < _tokens.length; i++) {\n            address t = _tokens[i];\n            uint bal = _records[t].balance;\n            uint tokenAmountIn = bmul(ratio, bal);\n            _records[t].balance = badd(_records[t].balance, tokenAmountIn);\n            emit LOG_JOIN(msg.sender, t, tokenAmountIn);\n            _pullUnderlying(t, msg.sender, tokenAmountIn);\n        }\n        _mintPoolShare(poolAmountOut);\n        _pushPoolShare(msg.sender, poolAmountOut);\n    }\n\n    function exitPool(uint poolAmountIn)\n        external\n        _logs_\n        _lock_\n    {\n        require(_finalized, \"ERR_NOT_FINALIZED\");\n\n        uint poolTotal = totalSupply();\n        uint exitFee = bmul(poolAmountIn, EXIT_FEE);\n        uint pAiAfterExitFee = bsub(poolAmountIn, exitFee);\n        uint ratio = bdiv(pAiAfterExitFee, poolTotal);\n        require(ratio != 0);\n\n        _pullPoolShare(msg.sender, poolAmountIn);\n        _pushPoolShare(_factory, exitFee);\n        _burnPoolShare(pAiAfterExitFee);\n\n        for (uint i = 0; i < _tokens.length; i++) {\n            address t = _tokens[i];\n            uint bal = _records[t].balance;\n            uint tAo = bmul(ratio, bal);\n            _records[t].balance = bsub(_records[t].balance, tAo);\n            emit LOG_EXIT(msg.sender, t, tAo);\n            _pushUnderlying(t, msg.sender, tAo);\n        }\n\n    }\n\n\n    function swapExactAmountIn(\n        address tokenIn,\n        uint tokenAmountIn,\n        address tokenOut,\n        uint minAmountOut,\n        uint maxPrice\n    )\n        external\n        _logs_\n        _lock_\n        returns (uint tokenAmountOut, uint spotPriceTarget)\n    {\n\n        require(isBound(tokenIn), \"ERR_NOT_BOUND\");\n        require(isBound(tokenOut), \"ERR_NOT_BOUND\");\n        require(isPublicSwap(), \"ERR_SWAP_NOT_PUBLIC\");\n\n        Record storage inRecord = _records[address(tokenIn)];\n        Record storage outRecord = _records[address(tokenOut)];\n\n        require(tokenAmountIn <= bmul(inRecord.balance, MAX_IN_RATIO), \"ERR_MAX_IN_RATIO\");\n\n        uint spotPriceBefore = calcSpotPrice(\n                                    inRecord.balance,\n                                    inRecord.denorm,\n                                    outRecord.balance,\n                                    outRecord.denorm,\n                                    _swapFee\n                                );\n        require(spotPriceBefore <= maxPrice, \"ERR_BAD_LIMIT_PRICE\");\n\n        tokenAmountOut = calcOutGivenIn(\n                            inRecord.balance,\n                            inRecord.denorm,\n                            outRecord.balance,\n                            outRecord.denorm,\n                            tokenAmountIn,\n                            _swapFee\n                        );\n        require(tokenAmountOut >= minAmountOut, \"ERR_LIMIT_OUT\");\n\n        inRecord.balance = badd(inRecord.balance, tokenAmountIn);\n        outRecord.balance = bsub(outRecord.balance, tokenAmountOut);\n\n        uint spotPriceAfter = calcSpotPrice(\n                                inRecord.balance,\n                                inRecord.denorm,\n                                outRecord.balance,\n                                outRecord.denorm,\n                                _swapFee\n                            );\n        require(spotPriceAfter >= spotPriceBefore, \"ERR_MATH_APPROX\");     \n        require(spotPriceAfter <= maxPrice, \"ERR_LIMIT_PRICE\");\n        require(spotPriceBefore <= bdiv(tokenAmountIn, tokenAmountOut), \"ERR_MATH_APPROX\");\n\n        emit LOG_SWAP(msg.sender, tokenIn, tokenOut, tokenAmountIn, tokenAmountOut);\n\n        _pullUnderlying(tokenIn, msg.sender, tokenAmountIn);\n        _pushUnderlying(tokenOut, msg.sender, tokenAmountOut);\n\n        return (tokenAmountOut, spotPriceAfter);\n    }\n\n    function swapExactAmountOut(\n        address tokenIn,\n        uint maxAmountIn,\n        address tokenOut,\n        uint tokenAmountOut,\n        uint maxPrice\n    )\n        external\n        _logs_\n        _lock_ \n        returns (uint tokenAmountIn, uint spotPriceTarget)\n    {\n        require(isBound(tokenIn), \"ERR_NOT_BOUND\");\n        require(isBound(tokenOut), \"ERR_NOT_BOUND\");\n        require(isPublicSwap(), \"ERR_SWAP_NOT_PUBLIC\");\n\n        Record storage inRecord = _records[address(tokenIn)];\n        Record storage outRecord = _records[address(tokenOut)];\n\n        require(tokenAmountOut <= bmul(outRecord.balance, MAX_OUT_RATIO), \"ERR_MAX_OUT_RATIO\");\n\n        uint spotPriceBefore = calcSpotPrice(\n                                    inRecord.balance,\n                                    inRecord.denorm,\n                                    outRecord.balance,\n                                    outRecord.denorm,\n                                    _swapFee\n                                );\n        require(spotPriceBefore <= maxPrice, \"ERR_BAD_LIMIT_PRICE\");\n\n        tokenAmountIn = calcInGivenOut(\n                            inRecord.balance,\n                            inRecord.denorm,\n                            outRecord.balance,\n                            outRecord.denorm,\n                            tokenAmountOut,\n                            _swapFee\n                        );\n        require(tokenAmountIn <= maxAmountIn, \"ERR_LIMIT_IN\");\n\n        inRecord.balance = badd(inRecord.balance, tokenAmountIn);\n        outRecord.balance = bsub(outRecord.balance, tokenAmountOut);\n\n        uint spotPriceAfter = calcSpotPrice(\n                                inRecord.balance,\n                                inRecord.denorm,\n                                outRecord.balance,\n                                outRecord.denorm,\n                                _swapFee\n                            );\n        require(spotPriceAfter >= spotPriceBefore, \"ERR_MATH_APPROX\");\n        require(spotPriceAfter <= maxPrice, \"ERR_LIMIT_PRICE\");\n        require(spotPriceBefore <= bdiv(tokenAmountIn, tokenAmountOut), \"ERR_MATH_APPROX\");\n\n        emit LOG_SWAP(msg.sender, tokenIn, tokenOut, tokenAmountIn, tokenAmountOut);\n\n        _pullUnderlying(tokenIn, msg.sender, tokenAmountIn);\n        _pushUnderlying(tokenOut, msg.sender, tokenAmountOut);\n\n        return (tokenAmountIn, spotPriceAfter);\n    }\n\n\n    function joinswapExternAmountIn(address tokenIn, uint256 tokenAmountIn)\n        external\n        _logs_\n        _lock_\n        returns (uint poolAmountOut)\n    {\n\n        require(isBound(tokenIn), \"ERR_NOT_BOUND\");\n        require(isPublicSwap(), \"ERR_SWAP_NOT_PUBLIC\");\n\n        Record storage inRecord = _records[tokenIn];\n\n        poolAmountOut = calcPoolOutGivenSingleIn(\n                            inRecord.balance,\n                            inRecord.denorm,\n                            _totalSupply,\n                            _totalWeight,\n                            tokenAmountIn,\n                            _swapFee\n                        );\n        inRecord.balance = badd(inRecord.balance, tokenAmountIn);\n\n        emit LOG_JOIN(msg.sender, tokenIn, tokenAmountIn);\n\n        _mintPoolShare(poolAmountOut);\n        _pushPoolShare(msg.sender, poolAmountOut);\n        _pullUnderlying(tokenIn, msg.sender, tokenAmountIn);\n\n        return poolAmountOut;\n    }\n\n    function joinswapPoolAmountOut(uint poolAmountOut, address tokenIn)\n        external\n        _logs_\n        _lock_\n        returns (uint tokenAmountIn)\n    {\n        require(isBound(tokenIn), \"ERR_NOT_BOUND\");\n        require(isPublicSwap(), \"ERR_SWAP_NOT_PUBLIC\");\n\n        Record storage inRecord = _records[tokenIn];\n\n        tokenAmountIn = calcSingleInGivenPoolOut(\n                            inRecord.balance,\n                            inRecord.denorm,\n                            _totalSupply,\n                            _totalWeight,\n                            poolAmountOut,\n                            _swapFee\n                        );\n        inRecord.balance = badd(inRecord.balance, tokenAmountIn);\n\n        emit LOG_JOIN(msg.sender, tokenIn, tokenAmountIn);\n\n        _mintPoolShare(poolAmountOut);\n        _pushPoolShare(msg.sender, poolAmountOut);\n        _pullUnderlying(tokenIn, msg.sender, tokenAmountIn);\n\n        return tokenAmountIn;\n    }\n\n    function exitswapPoolAmountIn(uint poolAmountIn, address tokenOut)\n        external\n        _logs_\n        _lock_\n        returns (uint tokenAmountOut)\n    {\n        require(isBound(tokenOut), \"ERR_NOT_BOUND\");\n        require(isPublicSwap(), \"ERR_SWAP_NOT_PUBLIC\");\n\n        Record storage outRecord = _records[tokenOut];\n\n        tokenAmountOut = calcSingleOutGivenPoolIn(\n                            outRecord.balance,\n                            outRecord.denorm,\n                            _totalSupply,\n                            _totalWeight,\n                            poolAmountIn,\n                            _swapFee\n                        );\n        outRecord.balance = bsub(outRecord.balance, tokenAmountOut);\n\n        uint exitFee = bmul(poolAmountIn, EXIT_FEE);\n\n        emit LOG_EXIT(msg.sender, tokenOut, tokenAmountOut);\n\n        _pullPoolShare(msg.sender, poolAmountIn);\n        _burnPoolShare(bsub(poolAmountIn, exitFee));\n        _pushPoolShare(_factory, exitFee);\n        _pushUnderlying(tokenOut, msg.sender, tokenAmountOut);\n\n        return tokenAmountOut;\n    }\n\n    function exitswapExternAmountOut(address tokenOut, uint tokenAmountOut)\n        external\n        _logs_\n        _lock_\n        returns (uint poolAmountIn)\n    {\n\n        require(isBound(tokenOut), \"ERR_NOT_BOUND\");\n        require(isPublicSwap(), \"ERR_SWAP_NOT_PUBLIC\");\n\n        Record storage outRecord = _records[tokenOut];\n\n        poolAmountIn = calcPoolInGivenSingleOut(\n                            outRecord.balance,\n                            outRecord.denorm,\n                            _totalSupply,\n                            _totalWeight,\n                            tokenAmountOut,\n                            _swapFee\n                        );\n        outRecord.balance = bsub(outRecord.balance, tokenAmountOut);\n\n        uint exitFee = bmul(poolAmountIn, EXIT_FEE);\n\n        emit LOG_EXIT(msg.sender, tokenOut, tokenAmountOut);\n\n        _pullPoolShare(msg.sender, poolAmountIn);\n        _burnPoolShare(bsub(poolAmountIn, exitFee));\n        _pushPoolShare(_factory, exitFee);\n        _pushUnderlying(tokenOut, msg.sender, tokenAmountOut);        \n\n        return poolAmountIn;\n    }\n\n\n    // ==\n    // 'Underlying' token-manipulation functions make external calls but are NOT locked\n    // You must `_lock_` or otherwise ensure reentry-safety\n\n    function _pullUnderlying(address erc20, address from, uint amount)\n        internal\n    {\n        bool xfer = IERC20(erc20).transferFrom(from, address(this), amount);\n        require(xfer, \"ERR_ERC20_FALSE\");\n    }\n\n    function _pushUnderlying(address erc20, address to, uint amount)\n        internal\n    {\n        bool xfer = IERC20(erc20).transfer(to, amount);\n        require(xfer, \"ERR_ERC20_FALSE\");\n    }\n\n    function _pullPoolShare(address from, uint amount)\n        internal\n    {\n        _pull(from, amount);\n    }\n\n    function _pushPoolShare(address to, uint amount)\n        internal\n    {\n        _push(to, amount);\n    }\n\n    function _mintPoolShare(uint amount)\n        internal\n    {\n        _mint(amount);\n    }\n\n    function _burnPoolShare(uint amount)\n        internal\n    {\n        _burn(amount);\n    }\n\n}\n",
  "sourcePath": "/Users/mike/Projects/balancer/balancer-core/contracts/BPool.sol",
  "compiler": {
    "name": "solc",
    "version": "0.5.12+commit.7709ece9.Emscripten.clang"
  },
  "schemaVersion": "3.0.16",
  "updatedAt": "2019-12-05T15:58:24.744Z",
  "devdoc": {
    "methods": {}
  },
  "userdoc": {
    "methods": {}
  }
}