{
  "contractName": "BStub",
  "abi": [
    {
      "constant": true,
      "inputs": [],
      "name": "getColor",
      "outputs": [
        {
          "internalType": "bytes32",
          "name": "",
          "type": "bytes32"
        }
      ],
      "payable": false,
      "stateMutability": "view",
      "type": "function"
    },
    {
      "constant": true,
      "inputs": [
        {
          "internalType": "uint256",
          "name": "Bi",
          "type": "uint256"
        },
        {
          "internalType": "uint256",
          "name": "Wi",
          "type": "uint256"
        },
        {
          "internalType": "uint256",
          "name": "Bo",
          "type": "uint256"
        },
        {
          "internalType": "uint256",
          "name": "Wo",
          "type": "uint256"
        },
        {
          "internalType": "uint256",
          "name": "f",
          "type": "uint256"
        }
      ],
      "name": "calc_SpotPrice",
      "outputs": [
        {
          "internalType": "uint256",
          "name": "price",
          "type": "uint256"
        }
      ],
      "payable": false,
      "stateMutability": "pure",
      "type": "function"
    },
    {
      "constant": true,
      "inputs": [
        {
          "internalType": "uint256",
          "name": "Bi",
          "type": "uint256"
        },
        {
          "internalType": "uint256",
          "name": "Wi",
          "type": "uint256"
        },
        {
          "internalType": "uint256",
          "name": "Bo",
          "type": "uint256"
        },
        {
          "internalType": "uint256",
          "name": "Wo",
          "type": "uint256"
        },
        {
          "internalType": "uint256",
          "name": "Ai",
          "type": "uint256"
        },
        {
          "internalType": "uint256",
          "name": "fee",
          "type": "uint256"
        }
      ],
      "name": "calc_OutGivenIn",
      "outputs": [
        {
          "internalType": "uint256",
          "name": "Ao",
          "type": "uint256"
        }
      ],
      "payable": false,
      "stateMutability": "pure",
      "type": "function"
    },
    {
      "constant": true,
      "inputs": [
        {
          "internalType": "uint256",
          "name": "Bi",
          "type": "uint256"
        },
        {
          "internalType": "uint256",
          "name": "Wi",
          "type": "uint256"
        },
        {
          "internalType": "uint256",
          "name": "Bo",
          "type": "uint256"
        },
        {
          "internalType": "uint256",
          "name": "Wo",
          "type": "uint256"
        },
        {
          "internalType": "uint256",
          "name": "Ao",
          "type": "uint256"
        },
        {
          "internalType": "uint256",
          "name": "fee",
          "type": "uint256"
        }
      ],
      "name": "calc_InGivenOut",
      "outputs": [
        {
          "internalType": "uint256",
          "name": "Ai",
          "type": "uint256"
        }
      ],
      "payable": false,
      "stateMutability": "pure",
      "type": "function"
    },
    {
      "constant": true,
      "inputs": [
        {
          "internalType": "uint256",
          "name": "Bi",
          "type": "uint256"
        },
        {
          "internalType": "uint256",
          "name": "Wi",
          "type": "uint256"
        },
        {
          "internalType": "uint256",
          "name": "Bo",
          "type": "uint256"
        },
        {
          "internalType": "uint256",
          "name": "Wo",
          "type": "uint256"
        },
        {
          "internalType": "uint256",
          "name": "SER1",
          "type": "uint256"
        },
        {
          "internalType": "uint256",
          "name": "fee",
          "type": "uint256"
        }
      ],
      "name": "calc_InGivenPrice",
      "outputs": [
        {
          "internalType": "uint256",
          "name": "Ai",
          "type": "uint256"
        }
      ],
      "payable": false,
      "stateMutability": "pure",
      "type": "function"
    },
    {
      "constant": true,
      "inputs": [
        {
          "internalType": "uint256",
          "name": "balance",
          "type": "uint256"
        },
        {
          "internalType": "uint256",
          "name": "weight",
          "type": "uint256"
        },
        {
          "internalType": "uint256",
          "name": "poolBalance",
          "type": "uint256"
        },
        {
          "internalType": "uint256",
          "name": "totalWeight",
          "type": "uint256"
        },
        {
          "internalType": "uint256",
          "name": "tAi",
          "type": "uint256"
        },
        {
          "internalType": "uint256",
          "name": "fee",
          "type": "uint256"
        }
      ],
      "name": "calc_PoolOutGivenSingleIn",
      "outputs": [
        {
          "internalType": "uint256",
          "name": "pAo",
          "type": "uint256"
        }
      ],
      "payable": false,
      "stateMutability": "pure",
      "type": "function"
    },
    {
      "constant": true,
      "inputs": [
        {
          "internalType": "uint256",
          "name": "balance",
          "type": "uint256"
        },
        {
          "internalType": "uint256",
          "name": "weight",
          "type": "uint256"
        },
        {
          "internalType": "uint256",
          "name": "poolSupply",
          "type": "uint256"
        },
        {
          "internalType": "uint256",
          "name": "totalWeight",
          "type": "uint256"
        },
        {
          "internalType": "uint256",
          "name": "pAo",
          "type": "uint256"
        },
        {
          "internalType": "uint256",
          "name": "fee",
          "type": "uint256"
        }
      ],
      "name": "calc_SingleInGivenPoolOut",
      "outputs": [
        {
          "internalType": "uint256",
          "name": "tokenIn",
          "type": "uint256"
        }
      ],
      "payable": false,
      "stateMutability": "pure",
      "type": "function"
    },
    {
      "constant": true,
      "inputs": [
        {
          "internalType": "uint256",
          "name": "balance",
          "type": "uint256"
        },
        {
          "internalType": "uint256",
          "name": "weight",
          "type": "uint256"
        },
        {
          "internalType": "uint256",
          "name": "poolSupply",
          "type": "uint256"
        },
        {
          "internalType": "uint256",
          "name": "totalWeight",
          "type": "uint256"
        },
        {
          "internalType": "uint256",
          "name": "pAi",
          "type": "uint256"
        },
        {
          "internalType": "uint256",
          "name": "fee",
          "type": "uint256"
        },
        {
          "internalType": "uint256",
          "name": "exitFee",
          "type": "uint256"
        }
      ],
      "name": "calc_SingleOutGivenPoolIn",
      "outputs": [
        {
          "internalType": "uint256",
          "name": "tAo",
          "type": "uint256"
        }
      ],
      "payable": false,
      "stateMutability": "pure",
      "type": "function"
    },
    {
      "constant": true,
      "inputs": [
        {
          "internalType": "uint256",
          "name": "balance",
          "type": "uint256"
        },
        {
          "internalType": "uint256",
          "name": "weight",
          "type": "uint256"
        },
        {
          "internalType": "uint256",
          "name": "poolSupply",
          "type": "uint256"
        },
        {
          "internalType": "uint256",
          "name": "totalWeight",
          "type": "uint256"
        },
        {
          "internalType": "uint256",
          "name": "tAo",
          "type": "uint256"
        },
        {
          "internalType": "uint256",
          "name": "swapFee",
          "type": "uint256"
        },
        {
          "internalType": "uint256",
          "name": "exitFee",
          "type": "uint256"
        }
      ],
      "name": "calc_PoolInGivenSingleOut",
      "outputs": [
        {
          "internalType": "uint256",
          "name": "pAi",
          "type": "uint256"
        }
      ],
      "payable": false,
      "stateMutability": "pure",
      "type": "function"
    },
    {
      "constant": true,
      "inputs": [
        {
          "internalType": "uint256",
          "name": "base",
          "type": "uint256"
        },
        {
          "internalType": "uint256",
          "name": "exp",
          "type": "uint256"
        }
      ],
      "name": "calc_bpow",
      "outputs": [
        {
          "internalType": "uint256",
          "name": "",
          "type": "uint256"
        }
      ],
      "payable": false,
      "stateMutability": "pure",
      "type": "function"
    },
    {
      "constant": true,
      "inputs": [
        {
          "internalType": "uint256",
          "name": "base",
          "type": "uint256"
        },
        {
          "internalType": "uint256",
          "name": "exp",
          "type": "uint256"
        },
        {
          "internalType": "uint256",
          "name": "precision",
          "type": "uint256"
        }
      ],
      "name": "calc_bpowApprox",
      "outputs": [
        {
          "internalType": "uint256",
          "name": "",
          "type": "uint256"
        }
      ],
      "payable": false,
      "stateMutability": "pure",
      "type": "function"
    }
  ],
  "bytecode": "0x608060405234801561001057600080fd5b50610fcb806100206000396000f3fe608060405234801561001057600080fd5b50600436106100c6576000357c01000000000000000000000000000000000000000000000000000000009004806396e19f841161008e57806396e19f84146101ec5780639a86139b1461022d578063a7f39e3714610235578063e7d5c9c414610270578063f5f5b148146102b1578063fd241f29146102d4576100c6565b80630f82749d146100cb57806318b098cf14610118578063311243721461015357806351b03ec31461017c57806374434dca146101b1575b600080fd5b610106600480360360c08110156100e157600080fd5b5080359060208101359060408101359060608101359060808101359060a0013561030f565b60408051918252519081900360200190f35b610106600480360360c081101561012e57600080fd5b5080359060208101359060408101359060608101359060808101359060a0013561032a565b6101066004803603606081101561016957600080fd5b508035906020810135906040013561033a565b610106600480360360a081101561019257600080fd5b508035906020810135906040810135906060810135906080013561034f565b610106600480360360c08110156101c757600080fd5b5080359060208101359060408101359060608101359060808101359060a00135610368565b610106600480360360e081101561020257600080fd5b5080359060208101359060408101359060608101359060808101359060a08101359060c00135610378565b610106610395565b610106600480360360c081101561024b57600080fd5b5080359060208101359060408101359060608101359060808101359060a001356103b9565b610106600480360360e081101561028657600080fd5b5080359060208101359060408101359060608101359060808101359060a08101359060c001356103c9565b610106600480360360408110156102c757600080fd5b50803590602001356103da565b610106600480360360c08110156102ea57600080fd5b5080359060208101359060408101359060608101359060808101359060a001356103ef565b600061031f8787878787876103ff565b979650505050505050565b600061031f87878787878761048f565b6000610347848484610530565b949350505050565b600061035e868686868661060e565b9695505050505050565b600061031f878787878787610673565b6000610389888888888888886106f4565b98975050505050505050565b7f42524f4e5a45000000000000000000000000000000000000000000000000000090565b600061031f8787878787876107be565b6000610389888888888888886103c9565b60006103e68383610832565b90505b92915050565b600061031f8787878787876109e8565b60008061041088888888600061060e565b9050600061041e8583610a9b565b9050600061043587610430898c610c74565b610a9b565b90506104526104448383610832565b670de0b6b3a7640000610d09565b935061045e848b610dad565b93506000610474670de0b6b3a764000087610d09565b90506104808582610a9b565b9b9a5050505050505050505050565b60008061049c8786610a9b565b905060006104bb6104b5670de0b6b3a764000084610d09565b85610dad565b905060006104da866104d5670de0b6b3a764000085610d09565b610dad565b905060006104e88b83610c74565b905060006104f6828d610a9b565b905060006105048287610832565b90506000610512828d610dad565b905061051e818d610d09565b9e9d5050505050505050505050505050565b600082818061054787670de0b6b3a7640000610ef1565b9092509050670de0b6b3a764000080600060015b8884106105ff576000670de0b6b3a76400008202905060008061058f8a61058a85670de0b6b3a7640000610d09565b610ef1565b915091506105a1876104d5848c610dad565b96506105ad8784610a9b565b9650866105bc575050506105ff565b87156105c6579315935b80156105d0579315935b84156105e7576105e08688610d09565b95506105f4565b6105f18688610c74565b95505b50505060010161055b565b50909998505050505050505050565b60008061061b8787610a9b565b905060006106298686610a9b565b905060006106378383610a9b565b90506000610659670de0b6b3a7640000610430670de0b6b3a764000089610d09565b90506106658282610dad565b9a9950505050505050505050565b6000806106808786610a9b565b90506000610696670de0b6b3a764000085610d09565b90506106a28582610dad565b905060006106b48a6104308c85610c74565b905060006106c28285610832565b905060006106d8670de0b6b3a764000083610d09565b90506106e48a82610dad565b9c9b505050505050505050505050565b6000806107018887610a9b565b9050600061071b866104d5670de0b6b3a764000087610d09565b905060006107298983610d09565b90506000610737828b610a9b565b9050600061075682610751670de0b6b3a764000088610a9b565b610832565b90506000610764828f610dad565b905060006107728f83610d09565b9050600061079161078b670de0b6b3a76400008a610d09565b8c610dad565b90506107a9826104d5670de0b6b3a764000084610d09565b98505050505050505050979650505050505050565b6000806107cb8588610a9b565b905060006107d98786610d09565b905060006107e78883610a9b565b905060006107f58285610832565b905061080981670de0b6b3a7640000610d09565b905061081d670de0b6b3a764000087610d09565b945061048061082c8c83610dad565b86610a9b565b600060018310156040518060400160405280601581526020017f4552525f42504f575f424153455f544f4f5f4c4f570000000000000000000000815250906108fb5760405160e560020a62461bcd0281526004018080602001828103825283818151815260200191508051906020019080838360005b838110156108c05781810151838201526020016108a8565b50505050905090810190601f1680156108ed5780820380516001836020036101000a031916815260200191505b509250505060405180910390fd5b5060408051808201909152601681527f4552525f42504f575f424153455f544f4f5f48494748000000000000000000006020820152671bc16d674ec7ffff84111561098a5760405160e560020a62461bcd0281526020600482018181528351602484015283519092839260449091019190850190808383600083156108c05781810151838201526020016108a8565b50600061099683610f16565b905060006109a48483610d09565b905060006109ba866109b585610f31565b610f3f565b9050816109cb5792506103e9915050565b60006109dc87846305f5e100610530565b905061031f8282610dad565b6000806109f58786610a9b565b90506000610a038786610c74565b90506000610a118289610a9b565b90506000610a27670de0b6b3a764000085610a9b565b90506000610a358383610832565b90506000610a43828e610dad565b90506000610a51828f610d09565b90506000610a70610a6a670de0b6b3a76400008a610d09565b8b610dad565b9050610a8882610430670de0b6b3a764000084610d09565b9f9e505050505050505050505050505050565b60408051808201909152600c81527f4552525f4449565f5a45524f0000000000000000000000000000000000000000602082015260009082610b215760405160e560020a62461bcd0281526020600482018181528351602484015283519092839260449091019190850190808383600083156108c05781810151838201526020016108a8565b50670de0b6b3a76400008302831580610b4a5750670de0b6b3a7640000848281610b4757fe5b04145b6040518060400160405280601081526020017f4552525f4449565f494e5445524e414c0000000000000000000000000000000081525090610bcf5760405160e560020a62461bcd0281526020600482018181528351602484015283519092839260449091019190850190808383600083156108c05781810151838201526020016108a8565b5060408051808201909152601081527f4552525f4449565f494e5445524e414c0000000000000000000000000000000060208201526002840482019082821015610c5d5760405160e560020a62461bcd0281526020600482018181528351602484015283519092839260449091019190850190808383600083156108c05781810151838201526020016108a8565b506000848281610c6957fe5b049695505050505050565b60408051808201909152601081527f4552525f4144445f4f564552464c4f570000000000000000000000000000000060208201526000908383019084821015610d015760405160e560020a62461bcd0281526020600482018181528351602484015283519092839260449091019190850190808383600083156108c05781810151838201526020016108a8565b509392505050565b6000806000610d188585610ef1565b9150915080156040518060400160405280601181526020017f4552525f5355425f554e444552464c4f5700000000000000000000000000000081525090610da35760405160e560020a62461bcd0281526020600482018181528351602484015283519092839260449091019190850190808383600083156108c05781810151838201526020016108a8565b5090949350505050565b6000828202831580610dc7575082848281610dc457fe5b04145b6040518060400160405280601081526020017f4552525f4d554c5f4f564552464c4f570000000000000000000000000000000081525090610e4c5760405160e560020a62461bcd0281526020600482018181528351602484015283519092839260449091019190850190808383600083156108c05781810151838201526020016108a8565b5060408051808201909152601081527f4552525f4d554c5f4f564552464c4f570000000000000000000000000000000060208201526706f05b59d3b2000082019082821015610edf5760405160e560020a62461bcd0281526020600482018181528351602484015283519092839260449091019190850190808383600083156108c05781810151838201526020016108a8565b506000670de0b6b3a764000082610c69565b600080828410610f075750508082036000610f0f565b505081810360015b9250929050565b6000670de0b6b3a7640000610f2a83610f31565b0292915050565b670de0b6b3a7640000900490565b60008060028306610f5857670de0b6b3a7640000610f5a565b835b90506002830492505b82156103e657610f738485610dad565b93506002830615610f8b57610f888185610dad565b90505b600283049250610f6356fea265627a7a7231582004f560695ec2626de2a972f076708fa7b569d94bd9a52e8461eba474dfc7c78b64736f6c634300050b0032",
  "source": "// This program is free software: you can redistribute it and/or modify\n// it under the terms of the GNU General Public License as published by\n// the Free Software Foundation, either version 3 of the License, or\n// (at your option) any later version.\n\n// This program is distributed in the hope that it will be useful,\n// but WITHOUT ANY WARRANTY; without even the implied warranty of\n// MERCHANTABILITY or FITNESS FOR A PARTICULAR PURPOSE.  See the\n// GNU General Public License for more details.\n\n// You should have received a copy of the GNU General Public License\n// along with this program.  If not, see <http://www.gnu.org/licenses/>.\n\npragma solidity ^0.5.11;\n\nimport \"contracts/BColor.sol\";\nimport \"contracts/BMath.sol\";\n\n// BStub exposes BMath internal functions\n\ncontract BStub is BBronze, BMath\n{\n    function calc_SpotPrice( uint Bi, uint Wi, uint Bo, uint Wo, uint f )\n      public pure\n        returns ( uint price ) \n    {\n        return (price = _calc_SpotPrice(Bi, Wi, Bo, Wo, f));\n    }\n\n    function calc_OutGivenIn( uint Bi, uint Wi\n                            , uint Bo, uint Wo\n                            , uint Ai\n                            , uint fee\n                            )\n      public pure\n        returns ( uint Ao )\n    {\n        return _calc_OutGivenIn(Bi, Wi, Bo, Wo, Ai, fee);\n    }\n\n    function calc_InGivenOut( uint Bi, uint Wi\n                            , uint Bo, uint Wo\n                            , uint Ao\n                            , uint fee\n                            )\n      public pure\n        returns ( uint Ai )\n    {\n        return _calc_InGivenOut(Bi, Wi, Bo, Wo, Ao, fee);\n    }\n\n    function calc_InGivenPrice( uint Bi, uint Wi\n                              , uint Bo , uint Wo\n                              , uint SER1\n                              , uint fee)\n      public pure\n        returns ( uint Ai )\n    {\n        return _calc_InGivenPrice(Bi, Wi, Bo, Wo, SER1, fee);\n    }\n\n    function calc_PoolOutGivenSingleIn( uint balance, uint weight\n                                      , uint poolBalance, uint totalWeight\n                                      , uint tAi, uint fee )\n      public pure\n        returns (uint pAo)\n    {\n        return  _calc_PoolOutGivenSingleIn( balance, weight, poolBalance, totalWeight , tAi, fee );\n    }\n\n    function calc_SingleInGivenPoolOut( uint balance, uint weight\n                                      , uint poolSupply, uint totalWeight\n                                      , uint pAo, uint fee)\n      public pure\n        returns (uint tokenIn)\n    {\n        return _calc_SingleInGivenPoolOut( balance, weight, poolSupply, totalWeight, pAo, fee);\n    }\n\n    function calc_SingleOutGivenPoolIn( uint balance, uint weight\n                                       , uint poolSupply, uint totalWeight\n                                       , uint pAi, uint fee, uint exitFee)\n      public pure\n        returns (uint tAo)\n    {\n        return _calc_SingleOutGivenPoolIn( balance, weight, poolSupply, totalWeight, pAi, fee, exitFee);\n    }\n\n    function calc_PoolInGivenSingleOut( uint balance, uint weight\n                                      , uint poolSupply, uint totalWeight\n                                      , uint tAo, uint swapFee, uint exitFee)\n      public pure\n        returns (uint pAi)\n    {\n        return calc_PoolInGivenSingleOut( balance, weight, poolSupply, totalWeight, tAo, swapFee, exitFee);\n    }\n\n\n    function calc_bpow(uint base, uint exp)\n      public pure\n        returns (uint)\n    {\n        return bpow(base, exp);\n    }\n\n    function calc_bpowApprox(uint base, uint exp, uint precision)\n      public pure\n        returns (uint)\n    {\n        return bpowApprox(base, exp, precision);\n    }\n\n}\n",
  "sourcePath": "contracts/BStub.sol",
  "compiler": {
    "name": "solc",
    "version": "0.5.11+commit.c082d0b4.Emscripten.clang"
  },
  "schemaVersion": "3.0.16",
  "updatedAt": "2019-10-29T00:16:43.951Z",
  "devdoc": {
    "methods": {}
  },
  "userdoc": {
    "methods": {}
  }
}