{
  "contractName": "BStub",
  "abi": [
    {
      "constant": true,
      "inputs": [],
      "name": "getColor",
      "outputs": [
        {
          "internalType": "bytes32",
          "name": "",
          "type": "bytes32"
        }
      ],
      "payable": false,
      "stateMutability": "view",
      "type": "function"
    },
    {
      "constant": true,
      "inputs": [
        {
          "internalType": "uint256",
          "name": "Bi",
          "type": "uint256"
        },
        {
          "internalType": "uint256",
          "name": "Wi",
          "type": "uint256"
        },
        {
          "internalType": "uint256",
          "name": "Bo",
          "type": "uint256"
        },
        {
          "internalType": "uint256",
          "name": "Wo",
          "type": "uint256"
        },
        {
          "internalType": "uint256",
          "name": "f",
          "type": "uint256"
        }
      ],
      "name": "calc_SpotPrice",
      "outputs": [
        {
          "internalType": "uint256",
          "name": "price",
          "type": "uint256"
        }
      ],
      "payable": false,
      "stateMutability": "pure",
      "type": "function"
    },
    {
      "constant": true,
      "inputs": [
        {
          "internalType": "uint256",
          "name": "Bi",
          "type": "uint256"
        },
        {
          "internalType": "uint256",
          "name": "Wi",
          "type": "uint256"
        },
        {
          "internalType": "uint256",
          "name": "Bo",
          "type": "uint256"
        },
        {
          "internalType": "uint256",
          "name": "Wo",
          "type": "uint256"
        },
        {
          "internalType": "uint256",
          "name": "Ai",
          "type": "uint256"
        },
        {
          "internalType": "uint256",
          "name": "fee",
          "type": "uint256"
        }
      ],
      "name": "calc_OutGivenIn",
      "outputs": [
        {
          "internalType": "uint256",
          "name": "Ao",
          "type": "uint256"
        }
      ],
      "payable": false,
      "stateMutability": "pure",
      "type": "function"
    },
    {
      "constant": true,
      "inputs": [
        {
          "internalType": "uint256",
          "name": "Bi",
          "type": "uint256"
        },
        {
          "internalType": "uint256",
          "name": "Wi",
          "type": "uint256"
        },
        {
          "internalType": "uint256",
          "name": "Bo",
          "type": "uint256"
        },
        {
          "internalType": "uint256",
          "name": "Wo",
          "type": "uint256"
        },
        {
          "internalType": "uint256",
          "name": "Ao",
          "type": "uint256"
        },
        {
          "internalType": "uint256",
          "name": "fee",
          "type": "uint256"
        }
      ],
      "name": "calc_InGivenOut",
      "outputs": [
        {
          "internalType": "uint256",
          "name": "Ai",
          "type": "uint256"
        }
      ],
      "payable": false,
      "stateMutability": "pure",
      "type": "function"
    },
    {
      "constant": true,
      "inputs": [
        {
          "internalType": "uint256",
          "name": "Bi",
          "type": "uint256"
        },
        {
          "internalType": "uint256",
          "name": "Wi",
          "type": "uint256"
        },
        {
          "internalType": "uint256",
          "name": "Bo",
          "type": "uint256"
        },
        {
          "internalType": "uint256",
          "name": "Wo",
          "type": "uint256"
        },
        {
          "internalType": "uint256",
          "name": "SER1",
          "type": "uint256"
        },
        {
          "internalType": "uint256",
          "name": "fee",
          "type": "uint256"
        }
      ],
      "name": "calc_InGivenPrice",
      "outputs": [
        {
          "internalType": "uint256",
          "name": "Ai",
          "type": "uint256"
        }
      ],
      "payable": false,
      "stateMutability": "pure",
      "type": "function"
    },
    {
      "constant": true,
      "inputs": [
        {
          "internalType": "uint256",
          "name": "balance",
          "type": "uint256"
        },
        {
          "internalType": "uint256",
          "name": "weight",
          "type": "uint256"
        },
        {
          "internalType": "uint256",
          "name": "poolBalance",
          "type": "uint256"
        },
        {
          "internalType": "uint256",
          "name": "totalWeight",
          "type": "uint256"
        },
        {
          "internalType": "uint256",
          "name": "tAi",
          "type": "uint256"
        },
        {
          "internalType": "uint256",
          "name": "fee",
          "type": "uint256"
        }
      ],
      "name": "calc_PoolOutGivenSingleIn",
      "outputs": [
        {
          "internalType": "uint256",
          "name": "pAo",
          "type": "uint256"
        }
      ],
      "payable": false,
      "stateMutability": "pure",
      "type": "function"
    },
    {
      "constant": true,
      "inputs": [
        {
          "internalType": "uint256",
          "name": "balance",
          "type": "uint256"
        },
        {
          "internalType": "uint256",
          "name": "weight",
          "type": "uint256"
        },
        {
          "internalType": "uint256",
          "name": "poolSupply",
          "type": "uint256"
        },
        {
          "internalType": "uint256",
          "name": "totalWeight",
          "type": "uint256"
        },
        {
          "internalType": "uint256",
          "name": "pAo",
          "type": "uint256"
        },
        {
          "internalType": "uint256",
          "name": "fee",
          "type": "uint256"
        }
      ],
      "name": "calc_SingleInGivenPoolOut",
      "outputs": [
        {
          "internalType": "uint256",
          "name": "tokenIn",
          "type": "uint256"
        }
      ],
      "payable": false,
      "stateMutability": "pure",
      "type": "function"
    },
    {
      "constant": true,
      "inputs": [
        {
          "internalType": "uint256",
          "name": "balance",
          "type": "uint256"
        },
        {
          "internalType": "uint256",
          "name": "weight",
          "type": "uint256"
        },
        {
          "internalType": "uint256",
          "name": "poolSupply",
          "type": "uint256"
        },
        {
          "internalType": "uint256",
          "name": "totalWeight",
          "type": "uint256"
        },
        {
          "internalType": "uint256",
          "name": "pAi",
          "type": "uint256"
        },
        {
          "internalType": "uint256",
          "name": "fee",
          "type": "uint256"
        },
        {
          "internalType": "uint256",
          "name": "exitFee",
          "type": "uint256"
        }
      ],
      "name": "calc_SingleOutGivenPoolIn",
      "outputs": [
        {
          "internalType": "uint256",
          "name": "tAo",
          "type": "uint256"
        }
      ],
      "payable": false,
      "stateMutability": "pure",
      "type": "function"
    },
    {
      "constant": true,
      "inputs": [
        {
          "internalType": "uint256",
          "name": "balance",
          "type": "uint256"
        },
        {
          "internalType": "uint256",
          "name": "weight",
          "type": "uint256"
        },
        {
          "internalType": "uint256",
          "name": "poolSupply",
          "type": "uint256"
        },
        {
          "internalType": "uint256",
          "name": "totalWeight",
          "type": "uint256"
        },
        {
          "internalType": "uint256",
          "name": "tAo",
          "type": "uint256"
        },
        {
          "internalType": "uint256",
          "name": "swapFee",
          "type": "uint256"
        },
        {
          "internalType": "uint256",
          "name": "exitFee",
          "type": "uint256"
        }
      ],
      "name": "calc_PoolInGivenSingleOut",
      "outputs": [
        {
          "internalType": "uint256",
          "name": "pAi",
          "type": "uint256"
        }
      ],
      "payable": false,
      "stateMutability": "pure",
      "type": "function"
    },
    {
      "constant": true,
      "inputs": [
        {
          "internalType": "uint256",
          "name": "base",
          "type": "uint256"
        },
        {
          "internalType": "uint256",
          "name": "exp",
          "type": "uint256"
        }
      ],
      "name": "calc_bpow",
      "outputs": [
        {
          "internalType": "uint256",
          "name": "",
          "type": "uint256"
        }
      ],
      "payable": false,
      "stateMutability": "pure",
      "type": "function"
    },
    {
      "constant": true,
      "inputs": [
        {
          "internalType": "uint256",
          "name": "base",
          "type": "uint256"
        },
        {
          "internalType": "uint256",
          "name": "exp",
          "type": "uint256"
        },
        {
          "internalType": "uint256",
          "name": "precision",
          "type": "uint256"
        }
      ],
      "name": "calc_bpowApprox",
      "outputs": [
        {
          "internalType": "uint256",
          "name": "",
          "type": "uint256"
        }
      ],
      "payable": false,
      "stateMutability": "pure",
      "type": "function"
    }
  ],
  "bytecode": "0x608060405234801561001057600080fd5b50610fba806100206000396000f3fe608060405234801561001057600080fd5b50600436106100c6576000357c01000000000000000000000000000000000000000000000000000000009004806396e19f841161008e57806396e19f84146101ec5780639a86139b1461022d578063a7f39e3714610235578063e7d5c9c414610270578063f5f5b148146102b1578063fd241f29146102d4576100c6565b80630f82749d146100cb57806318b098cf14610118578063311243721461015357806351b03ec31461017c57806374434dca146101b1575b600080fd5b610106600480360360c08110156100e157600080fd5b5080359060208101359060408101359060608101359060808101359060a0013561030f565b60408051918252519081900360200190f35b610106600480360360c081101561012e57600080fd5b5080359060208101359060408101359060608101359060808101359060a0013561032a565b6101066004803603606081101561016957600080fd5b508035906020810135906040013561033a565b610106600480360360a081101561019257600080fd5b508035906020810135906040810135906060810135906080013561034f565b610106600480360360c08110156101c757600080fd5b5080359060208101359060408101359060608101359060808101359060a00135610368565b610106600480360360e081101561020257600080fd5b5080359060208101359060408101359060608101359060808101359060a08101359060c00135610378565b610106610395565b610106600480360360c081101561024b57600080fd5b5080359060208101359060408101359060608101359060808101359060a001356103b9565b610106600480360360e081101561028657600080fd5b5080359060208101359060408101359060608101359060808101359060a08101359060c001356103c9565b610106600480360360408110156102c757600080fd5b50803590602001356103da565b610106600480360360c08110156102ea57600080fd5b5080359060208101359060408101359060608101359060808101359060a001356103ef565b600061031f8787878787876103ff565b979650505050505050565b600061031f87878787878761048f565b6000610347848484610531565b949350505050565b600061035e8686868686610610565b9695505050505050565b600061031f878787878787610675565b6000610389888888888888886106f6565b98975050505050505050565b7f42524f4e5a45000000000000000000000000000000000000000000000000000090565b600061031f878787878787610764565b6000610389888888888888886103c9565b60006103e683836107d8565b90505b92915050565b600061031f87878787878761098e565b600080610410888888886000610610565b9050600061041e8583610a56565b9050600061043587610430898c610c2f565b610a56565b905061045261044483836107d8565b670de0b6b3a7640000610cc4565b935061045e848b610d68565b93506000610474670de0b6b3a764000087610cc4565b90506104808582610a56565b9b9a5050505050505050505050565b60008061049c8786610a56565b905060006104b2670de0b6b3a764000083610cc4565b905060006104c9866104c48488610d68565b610d68565b905060006104d78783610cc4565b90508060006104e68d83610c2f565b905060006104f4828f610a56565b9050600061050282896107d8565b90506000610510828f610d68565b905061051c818f610cc4565b99505050505050505050509695505050505050565b600082818061054887670de0b6b3a7640000610eac565b9092509050670de0b6b3a764000080600060015b88841115610601576000670de0b6b3a7640000820290506000806105918a61058c85670de0b6b3a7640000610cc4565b610eac565b915091506105a3876104c4848c610d68565b96506105af8784610a56565b9650866105be57505050610601565b87156105c8579315935b80156105d2579315935b84156105e9576105e28688610cc4565b95506105f6565b6105f38688610c2f565b95505b50505060010161055c565b50909998505050505050505050565b60008061061d8787610a56565b9050600061062b8686610a56565b905060006106398383610a56565b9050600061065b670de0b6b3a7640000610430670de0b6b3a764000089610cc4565b90506106678282610d68565b9a9950505050505050505050565b6000806106828786610a56565b90506000610698670de0b6b3a764000085610cc4565b90506106a48582610d68565b905060006106b68a6104308c85610c2f565b905060006106c482856107d8565b905060006106da670de0b6b3a764000083610cc4565b90506106e68a82610d68565b9c9b505050505050505050505050565b6000806107038887610a56565b90506000610712828787610ed1565b9050808803600061072b670de0b6b3a764000085610a56565b9050600061074261073c848d610a56565b836107d8565b90506000610750828f610d68565b909d039d9c50505050505050505050505050565b6000806107718588610a56565b9050600061077f8786610cc4565b9050600061078d8883610a56565b9050600061079b82856107d8565b90506107af81670de0b6b3a7640000610cc4565b90506107c3670de0b6b3a764000087610cc4565b94506104806107d28c83610d68565b86610a56565b600060018310156040518060400160405280601581526020017f4552525f42504f575f424153455f544f4f5f4c4f570000000000000000000000815250906108a15760405160e560020a62461bcd0281526004018080602001828103825283818151815260200191508051906020019080838360005b8381101561086657818101518382015260200161084e565b50505050905090810190601f1680156108935780820380516001836020036101000a031916815260200191505b509250505060405180910390fd5b5060408051808201909152601681527f4552525f42504f575f424153455f544f4f5f48494748000000000000000000006020820152671bc16d674ec7ffff8411156109305760405160e560020a62461bcd02815260206004820181815283516024840152835190928392604490910191908501908083836000831561086657818101518382015260200161084e565b50600061093c83610f05565b9050600061094a8483610cc4565b905060006109608661095b85610f20565b610f2e565b9050816109715792506103e9915050565b600061098287846305f5e100610531565b905061031f8282610d68565b60008061099b8786610a56565b905060006109a98786610c2f565b905060006109b78289610a56565b905060006109cd670de0b6b3a764000085610a56565b905060006109db83836107d8565b905060006109e9828e610d68565b905060006109f7828f610cc4565b90506000610a0d670de0b6b3a764000089610cc4565b90506000610a1b828c610d68565b90506000610a31670de0b6b3a764000083610cc4565b90506000610a3f8583610a56565b9b5050505050505050505050509695505050505050565b60408051808201909152600c81527f4552525f4449565f5a45524f0000000000000000000000000000000000000000602082015260009082610adc5760405160e560020a62461bcd02815260206004820181815283516024840152835190928392604490910191908501908083836000831561086657818101518382015260200161084e565b50670de0b6b3a76400008302831580610b055750670de0b6b3a7640000848281610b0257fe5b04145b6040518060400160405280601081526020017f4552525f4449565f494e5445524e414c0000000000000000000000000000000081525090610b8a5760405160e560020a62461bcd02815260206004820181815283516024840152835190928392604490910191908501908083836000831561086657818101518382015260200161084e565b5060408051808201909152601081527f4552525f4449565f494e5445524e414c0000000000000000000000000000000060208201526002840482019082821015610c185760405160e560020a62461bcd02815260206004820181815283516024840152835190928392604490910191908501908083836000831561086657818101518382015260200161084e565b506000848281610c2457fe5b049695505050505050565b60408051808201909152601081527f4552525f4144445f4f564552464c4f570000000000000000000000000000000060208201526000908383019084821015610cbc5760405160e560020a62461bcd02815260206004820181815283516024840152835190928392604490910191908501908083836000831561086657818101518382015260200161084e565b509392505050565b6000806000610cd38585610eac565b9150915080156040518060400160405280601181526020017f4552525f5355425f554e444552464c4f5700000000000000000000000000000081525090610d5e5760405160e560020a62461bcd02815260206004820181815283516024840152835190928392604490910191908501908083836000831561086657818101518382015260200161084e565b5090949350505050565b6000828202831580610d82575082848281610d7f57fe5b04145b6040518060400160405280601081526020017f4552525f4d554c5f4f564552464c4f570000000000000000000000000000000081525090610e075760405160e560020a62461bcd02815260206004820181815283516024840152835190928392604490910191908501908083836000831561086657818101518382015260200161084e565b5060408051808201909152601081527f4552525f4d554c5f4f564552464c4f570000000000000000000000000000000060208201526706f05b59d3b2000082019082821015610e9a5760405160e560020a62461bcd02815260206004820181815283516024840152835190928392604490910191908501908083836000831561086657818101518382015260200161084e565b506000670de0b6b3a764000082610c24565b600080828410610ec25750508082036000610eca565b505081810360015b9250929050565b6000670de0b6b3a764000084900381610eea8583610d68565b90506000610ef88286610d68565b9095039695505050505050565b6000670de0b6b3a7640000610f1983610f20565b0292915050565b670de0b6b3a7640000900490565b60008060028306610f4757670de0b6b3a7640000610f49565b835b90506002830492505b82156103e657610f628485610d68565b93506002830615610f7a57610f778185610d68565b90505b600283049250610f5256fea265627a7a723158203b241c6cbee30b545e9cdee12a4930eb0dd503b740186b26abf7f0fd1e03120d64736f6c634300050b0032",
  "source": "// This program is free software: you can redistribute it and/or modify\n// it under the terms of the GNU General Public License as published by\n// the Free Software Foundation, either version 3 of the License, or\n// (at your option) any later version.\n\n// This program is distributed in the hope that it will be useful,\n// but WITHOUT ANY WARRANTY; without even the implied warranty of\n// MERCHANTABILITY or FITNESS FOR A PARTICULAR PURPOSE.  See the\n// GNU General Public License for more details.\n\n// You should have received a copy of the GNU General Public License\n// along with this program.  If not, see <http://www.gnu.org/licenses/>.\n\npragma solidity ^0.5.11;\n\nimport \"contracts/BColor.sol\";\nimport \"contracts/BMath.sol\";\n\n// BStub exposes BMath internal functions\n\ncontract BStub is BBronze, BMath\n{\n    function calc_SpotPrice( uint Bi, uint Wi, uint Bo, uint Wo, uint f )\n      public pure\n        returns ( uint price ) \n    {\n        return (price = _calc_SpotPrice(Bi, Wi, Bo, Wo, f));\n    }\n\n    function calc_OutGivenIn( uint Bi, uint Wi\n                            , uint Bo, uint Wo\n                            , uint Ai\n                            , uint fee\n                            )\n      public pure\n        returns ( uint Ao )\n    {\n        return _calc_OutGivenIn(Bi, Wi, Bo, Wo, Ai, fee);\n    }\n\n    function calc_InGivenOut( uint Bi, uint Wi\n                            , uint Bo, uint Wo\n                            , uint Ao\n                            , uint fee\n                            )\n      public pure\n        returns ( uint Ai )\n    {\n        return _calc_InGivenOut(Bi, Wi, Bo, Wo, Ao, fee);\n    }\n\n    function calc_InGivenPrice( uint Bi, uint Wi\n                              , uint Bo , uint Wo\n                              , uint SER1\n                              , uint fee)\n      public pure\n        returns ( uint Ai )\n    {\n        return _calc_InGivenPrice(Bi, Wi, Bo, Wo, SER1, fee);\n    }\n\n    function calc_PoolOutGivenSingleIn( uint balance, uint weight\n                                      , uint poolBalance, uint totalWeight\n                                      , uint tAi, uint fee )\n      public pure\n        returns (uint pAo)\n    {\n        return  _calc_PoolOutGivenSingleIn( balance, weight, poolBalance, totalWeight , tAi, fee );\n    }\n\n    function calc_SingleInGivenPoolOut( uint balance, uint weight\n                                      , uint poolSupply, uint totalWeight\n                                      , uint pAo, uint fee)\n      public pure\n        returns (uint tokenIn)\n    {\n        return _calc_SingleInGivenPoolOut( balance, weight, poolSupply, totalWeight, pAo, fee);\n    }\n\n    function calc_SingleOutGivenPoolIn( uint balance, uint weight\n                                       , uint poolSupply, uint totalWeight\n                                       , uint pAi, uint fee, uint exitFee)\n      public pure\n        returns (uint tAo)\n    {\n        return _calc_SingleOutGivenPoolIn( balance, weight, poolSupply, totalWeight, pAi, fee, exitFee);\n    }\n\n    function calc_PoolInGivenSingleOut( uint balance, uint weight\n                                      , uint poolSupply, uint totalWeight\n                                      , uint tAo, uint swapFee, uint exitFee)\n      public pure\n        returns (uint pAi)\n    {\n        return calc_PoolInGivenSingleOut( balance, weight, poolSupply, totalWeight, tAo, swapFee, exitFee);\n    }\n\n\n    function calc_bpow(uint base, uint exp)\n      public pure\n        returns (uint)\n    {\n        return bpow(base, exp);\n    }\n\n    function calc_bpowApprox(uint base, uint exp, uint precision)\n      public pure\n        returns (uint)\n    {\n        return bpowApprox(base, exp, precision);\n    }\n\n}\n",
  "sourcePath": "contracts/BStub.sol",
  "compiler": {
    "name": "solc",
    "version": "0.5.11+commit.c082d0b4.Emscripten.clang"
  },
  "schemaVersion": "3.0.11",
  "updatedAt": "2019-10-22T14:50:06.755Z",
  "devdoc": {
    "methods": {}
  },
  "userdoc": {
    "methods": {}
  }
}