{
  "contractName": "BTokenBase",
  "abi": [
    {
      "constant": true,
      "inputs": [],
      "name": "getColor",
      "outputs": [
        {
          "internalType": "bytes32",
          "name": "",
          "type": "bytes32"
        }
      ],
      "payable": false,
      "stateMutability": "view",
      "type": "function"
    },
    {
      "anonymous": false,
      "inputs": [
        {
          "indexed": false,
          "internalType": "uint256",
          "name": "amt",
          "type": "uint256"
        }
      ],
      "name": "Mint",
      "type": "event"
    },
    {
      "anonymous": false,
      "inputs": [
        {
          "indexed": false,
          "internalType": "uint256",
          "name": "amt",
          "type": "uint256"
        }
      ],
      "name": "Burn",
      "type": "event"
    },
    {
      "anonymous": false,
      "inputs": [
        {
          "indexed": true,
          "internalType": "address",
          "name": "src",
          "type": "address"
        },
        {
          "indexed": true,
          "internalType": "address",
          "name": "dst",
          "type": "address"
        },
        {
          "indexed": false,
          "internalType": "uint256",
          "name": "amt",
          "type": "uint256"
        }
      ],
      "name": "Move",
      "type": "event"
    }
  ],
  "bytecode": "0x6080604052348015600f57600080fd5b5060ba8061001e6000396000f3fe6080604052348015600f57600080fd5b50600436106044577c010000000000000000000000000000000000000000000000000000000060003504639a86139b81146049575b600080fd5b604f6061565b60408051918252519081900360200190f35b7f42524f4e5a4500000000000000000000000000000000000000000000000000009056fea265627a7a72315820b1a1e89107922f61b6828d058b69ab3d420a9e2337120c6cff712f070f01a2ee64736f6c634300050b0032",
  "source": "// This program is free software: you can redistribute it and/or modify\n// it under the terms of the GNU General Public License as published by\n// the Free Software Foundation, either version 3 of the License, or\n// (at your option) any later version.\n\n// This program is distributed in the hope that it will be useful,\n// but WITHOUT ANY WARRANTY; without even the implied warranty of\n// MERCHANTABILITY or FITNESS FOR A PARTICULAR PURPOSE.  See the\n// GNU General Public License for more details.\n\n// You should have received a copy of the GNU General Public License\n// along with this program.  If not, see <http://www.gnu.org/licenses/>.\n\npragma solidity ^0.5.11;\n\nimport \"contracts/BNum.sol\";\n\n// Highly opinionated token implementation\n\ncontract BTokenBase is BNum\n{\n    mapping(address=>\n      mapping(address=>uint))   internal _allowance;\n    mapping(address=>uint)      internal _balance;\n    uint                        internal _totalSupply;\n\n    event Mint(uint amt);\n    event Burn(uint amt);\n    event Move(address indexed src, address indexed dst, uint amt);\n\n    function sub(uint a, uint b) internal returns (uint) {\n        require(a >= b, \"ERR_BTOKEN_UNDERFLOW\"); // TODO report 'insufficient balance' if that's the case\n        return a - b;\n    }\n\n    function _mint(uint amt) internal {\n        _balance[address(this)] = badd(_balance[address(this)], amt);\n        _totalSupply   = badd(_totalSupply, amt);\n        emit Mint(amt);\n    }\n\n    function _burn(uint amt) internal {\n        _balance[address(this)] = sub(_balance[address(this)], amt);\n        _totalSupply   = sub(_totalSupply, amt);\n        emit Burn(amt);\n    }\n\n    function _move(address src, address dst, uint amt) internal {\n        _balance[src] = sub(_balance[src], amt);\n        _balance[dst] = badd(_balance[dst], amt);\n        emit Move(src, dst, amt);\n    }\n\n    function _push(address to, uint amt) internal {\n        _move(address(this), to, amt);\n    }\n\n    function _pull(address from, uint amt) internal {\n        _move(from, address(this), amt);\n    }\n\n}\n\ncontract ERC20 {\n    event Approval(address indexed src, address indexed guy, uint wad);\n    event Transfer(address indexed src, address indexed dst, uint wad);\n\n    function totalSupply() public view returns (uint);\n    function balanceOf(address guy) public view returns (uint);\n    function allowance(address src, address guy) public view returns (uint);\n\n    function approve(address guy, uint wad) public returns (bool);\n    function transfer(address dst, uint wad) public returns (bool);\n    function transferFrom(\n        address src, address dst, uint wad\n    ) public returns (bool);\n}\n\ncontract BToken is BBronze, BTokenBase, ERC20\n{\n    function allowance(address src, address guy) public view returns (uint) {\n        return _allowance[src][guy];\n    }\n    function balanceOf(address whom) public view returns (uint) {\n        return _balance[whom];\n    }\n    function totalSupply() public view returns (uint) {\n        return _totalSupply;\n    }\n\n    function approve(address guy, uint wad) public returns (bool) {\n        _allowance[msg.sender][guy] = wad;\n        emit Approval(msg.sender, guy, wad);\n        return true;\n    }\n\n    function transfer(address dst, uint wad) public returns (bool) {\n        _move(msg.sender, dst, wad);\n        emit Transfer(msg.sender, dst, wad);\n        return true;\n    }\n\n    function transferFrom(address src, address dst, uint wad) public returns (bool) {\n        require(msg.sender == src || wad <= _allowance[src][msg.sender], \"ERR_BTOKEN_BAD_CALLER\");\n        _move(src, dst, wad);\n        emit Transfer(src, dst, wad);\n        if( msg.sender != src && _allowance[src][msg.sender] != uint256(-1) ) {\n            _allowance[src][msg.sender] = sub(_allowance[src][msg.sender], wad);\n        }\n        return true;\n    }\n}\n\n\n",
  "sourcePath": "contracts/BToken.sol",
  "compiler": {
    "name": "solc",
    "version": "0.5.11+commit.c082d0b4.Emscripten.clang"
  },
  "schemaVersion": "3.0.11",
  "updatedAt": "2019-10-22T14:50:06.760Z",
  "devdoc": {
    "methods": {}
  },
  "userdoc": {
    "methods": {}
  }
}