{
  "contractName": "Faucet",
  "abi": [
    {
      "inputs": [],
      "payable": false,
      "stateMutability": "nonpayable",
      "type": "constructor"
    },
    {
      "anonymous": true,
      "inputs": [
        {
          "indexed": true,
          "internalType": "bytes4",
          "name": "sig",
          "type": "bytes4"
        },
        {
          "indexed": true,
          "internalType": "address",
          "name": "caller",
          "type": "address"
        },
        {
          "indexed": false,
          "internalType": "bytes",
          "name": "data",
          "type": "bytes"
        }
      ],
      "name": "LOG_CALL",
      "type": "event"
    },
    {
      "constant": true,
      "inputs": [],
      "name": "BONE",
      "outputs": [
        {
          "internalType": "uint256",
          "name": "",
          "type": "uint256"
        }
      ],
      "payable": false,
      "stateMutability": "view",
      "type": "function"
    },
    {
      "constant": true,
      "inputs": [
        {
          "internalType": "address",
          "name": "",
          "type": "address"
        }
      ],
      "name": "amount",
      "outputs": [
        {
          "internalType": "uint256",
          "name": "",
          "type": "uint256"
        }
      ],
      "payable": false,
      "stateMutability": "view",
      "type": "function"
    },
    {
      "constant": true,
      "inputs": [
        {
          "internalType": "address",
          "name": "",
          "type": "address"
        },
        {
          "internalType": "address",
          "name": "",
          "type": "address"
        }
      ],
      "name": "lastDrip",
      "outputs": [
        {
          "internalType": "uint256",
          "name": "",
          "type": "uint256"
        }
      ],
      "payable": false,
      "stateMutability": "view",
      "type": "function"
    },
    {
      "constant": false,
      "inputs": [
        {
          "internalType": "address",
          "name": "token",
          "type": "address"
        },
        {
          "internalType": "uint256",
          "name": "amount_",
          "type": "uint256"
        }
      ],
      "name": "setAmount",
      "outputs": [],
      "payable": false,
      "stateMutability": "nonpayable",
      "type": "function"
    },
    {
      "constant": false,
      "inputs": [
        {
          "internalType": "address",
          "name": "token",
          "type": "address"
        }
      ],
      "name": "drip",
      "outputs": [],
      "payable": false,
      "stateMutability": "nonpayable",
      "type": "function"
    },
    {
      "constant": false,
      "inputs": [
        {
          "internalType": "contract TokenInterface",
          "name": "token",
          "type": "address"
        }
      ],
      "name": "seal",
      "outputs": [],
      "payable": false,
      "stateMutability": "nonpayable",
      "type": "function"
    }
  ],
  "bytecode": "0x608060405234801561001057600080fd5b5060008054600160a060020a0319163317905561078a806100326000396000f3fe608060405234801561001057600080fd5b506004361061007e577c0100000000000000000000000000000000000000000000000000000000600035046367a5cd068114610083578063b9f0bf66146100ab578063c36596a6146100e3578063d2fafb19146100eb578063e0d760f814610117578063eab23a401461013d575b600080fd5b6100a96004803603602081101561009957600080fd5b5035600160a060020a031661016b565b005b6100d1600480360360208110156100c157600080fd5b5035600160a060020a0316610426565b60408051918252519081900360200190f35b6100d1610438565b6100a96004803603604081101561010157600080fd5b50600160a060020a038135169060200135610444565b6100a96004803603602081101561012d57600080fd5b5035600160a060020a031661054d565b6100d16004803603604081101561015357600080fd5b50600160a060020a0381358116916020013516610738565b33600160a060020a03166000357bffffffffffffffffffffffffffffffffffffffffffffffffffffffff19167bffffffffffffffffffffffffffffffffffffffffffffffffffffffff191660003660405180806020018281038252848482818152602001925080828437600083820152604051601f909101601f19169092018290039550909350505050a2336000908152600260209081526040808320600160a060020a03851684529091529020546201518042919091031015610279576040805160e560020a62461bcd02815260206004820152601160248201527f4552525f445249505f5448524f54544c45000000000000000000000000000000604482015290519081900360640190fd5b600160a060020a03811660008181526001602090815260408083205481517f70a0823100000000000000000000000000000000000000000000000000000000815230600482015291519094936370a0823193602480850194919392918390030190829087803b1580156102eb57600080fd5b505af11580156102ff573d6000803e3d6000fd5b505050506040513d602081101561031557600080fd5b5051101561036d576040805160e560020a62461bcd02815260206004820152601060248201527f4552525f4e454544535f524546494c4c00000000000000000000000000000000604482015290519081900360640190fd5b336000818152600260209081526040808320600160a060020a038616808552908352818420429055600183528184205482517fa9059cbb000000000000000000000000000000000000000000000000000000008152600481019690965260248601529051909363a9059cbb9360448083019493928390030190829087803b1580156103f757600080fd5b505af115801561040b573d6000803e3d6000fd5b505050506040513d602081101561042157600080fd5b505050565b60016020526000908152604090205481565b670de0b6b3a764000081565b600054600160a060020a031633146104a6576040805160e560020a62461bcd02815260206004820152600d60248201527f4552525f4e4f545f4f574e455200000000000000000000000000000000000000604482015290519081900360640190fd5b33600160a060020a03166000357bffffffffffffffffffffffffffffffffffffffffffffffffffffffff19167bffffffffffffffffffffffffffffffffffffffffffffffffffffffff191660003660405180806020018281038252848482818152602001925080828437600083820152604051601f909101601f19169092018290039550909350505050a2600160a060020a03909116600090815260016020526040902055565b600054600160a060020a031633146105af576040805160e560020a62461bcd02815260206004820152600d60248201527f4552525f4e4f545f4f574e455200000000000000000000000000000000000000604482015290519081900360640190fd5b33600160a060020a03166000357bffffffffffffffffffffffffffffffffffffffffffffffffffffffff19167bffffffffffffffffffffffffffffffffffffffffffffffffffffffff191660003660405180806020018281038252848482818152602001925080828437600083820152604051601f909101601f19169092018290039550909350505050a2604080517f70a082310000000000000000000000000000000000000000000000000000000081523060048201529051600160a060020a0383169163a9059cbb91339184916370a08231916024808201926020929091908290030181600087803b1580156106a657600080fd5b505af11580156106ba573d6000803e3d6000fd5b505050506040513d60208110156106d057600080fd5b5051604080517c010000000000000000000000000000000000000000000000000000000063ffffffff8616028152600160a060020a03909316600484015260248301919091525160448083019260209291908290030181600087803b1580156103f757600080fd5b60026020908152600092835260408084209091529082529020548156fea265627a7a723158206864a50cdd35480fbca2a1d772d00ec94d6aa25b9478c95ef62d75adc1b340e664736f6c634300050c0032",
  "source": "// This program is free software: you can redistribute it and/or modify\n// it under the terms of the GNU General Public License as published by\n// the Free Software Foundation, either version 3 of the License, or\n// (at your option) any later version.\n\n// This program is distributed in the hope that it will be useful,\n// but WITHOUT ANY WARRANTY; without even the implied warranty of\n// MERCHANTABILITY or FITNESS FOR A PARTICULAR PURPOSE.  See the\n// GNU General Public License for more details.\n\n// You should have received a copy of the GNU General Public License\n// along with this program.  If not, see <http://www.gnu.org/licenses/>.\n\npragma solidity 0.5.12;\n\ncontract TokenInterface {\n    function balanceOf(address) public returns (uint);\n    function transfer(address, uint) public returns (bool);\n}\n\ncontract Faucet {\n\n    event LOG_CALL(\n        bytes4  indexed sig,\n        address indexed caller,\n        bytes           data\n    ) anonymous;\n\n    address private _owner;\n\n    constructor () public {\n        _owner = msg.sender;\n    }\n\n    modifier _logs_() {\n        emit LOG_CALL(msg.sig, msg.sender, msg.data);\n        _;\n    }\n\n    modifier _onlyOwner_() {\n        require(msg.sender == _owner, \"ERR_NOT_OWNER\");\n        _;\n    }\n\n    mapping (address => uint256) public amount;\n    mapping (address => mapping (address => uint)) public lastDrip;\n\n    uint public constant BONE = 10**18;\n\n    function setAmount(address token, uint256 amount_)\n        external\n        _onlyOwner_\n        _logs_\n    {\n        amount[token] = amount_;\n    }\n\n    function drip(address token)\n        external\n        _logs_\n    {\n        require(now - lastDrip[msg.sender][address(token)] >= 1 days, \"ERR_DRIP_THROTTLE\");\n        require(TokenInterface(token).balanceOf(address(this)) >= amount[token], \"ERR_NEEDS_REFILL\");\n        lastDrip[msg.sender][address(token)] = now;\n        TokenInterface(token).transfer(msg.sender, amount[token]);\n    }\n\n    function seal(TokenInterface token)\n        external\n        _onlyOwner_\n        _logs_\n    {\n        token.transfer(msg.sender, token.balanceOf(address(this)));\n    }\n}",
  "sourcePath": "/Users/mike/Projects/balancer/token-faucet/contracts/Faucet.sol",
  "compiler": {
    "name": "solc",
    "version": "0.5.12+commit.7709ece9.Emscripten.clang"
  },
  "schemaVersion": "3.0.21",
  "updatedAt": "2020-01-21T23:37:33.123Z",
  "networkType": "ethereum",
  "devdoc": {
    "methods": {}
  },
  "userdoc": {
    "methods": {}
  }
}