{
  "contractName": "TToken",
  "abi": [
    {
      "anonymous": false,
      "inputs": [
        {
          "indexed": true,
          "internalType": "address",
          "name": "src",
          "type": "address"
        },
        {
          "indexed": true,
          "internalType": "address",
          "name": "dst",
          "type": "address"
        },
        {
          "indexed": false,
          "internalType": "uint256",
          "name": "amt",
          "type": "uint256"
        }
      ],
      "name": "Approval",
      "type": "event"
    },
    {
      "anonymous": false,
      "inputs": [
        {
          "indexed": true,
          "internalType": "address",
          "name": "src",
          "type": "address"
        },
        {
          "indexed": true,
          "internalType": "address",
          "name": "dst",
          "type": "address"
        },
        {
          "indexed": false,
          "internalType": "uint256",
          "name": "amt",
          "type": "uint256"
        }
      ],
      "name": "Transfer",
      "type": "event"
    },
    {
      "constant": true,
      "inputs": [],
      "name": "BONE",
      "outputs": [
        {
          "internalType": "uint256",
          "name": "",
          "type": "uint256"
        }
      ],
      "payable": false,
      "stateMutability": "view",
      "type": "function"
    },
    {
      "constant": true,
      "inputs": [],
      "name": "BPOW_PRECISION",
      "outputs": [
        {
          "internalType": "uint256",
          "name": "",
          "type": "uint256"
        }
      ],
      "payable": false,
      "stateMutability": "view",
      "type": "function"
    },
    {
      "constant": true,
      "inputs": [],
      "name": "EXIT_FEE",
      "outputs": [
        {
          "internalType": "uint256",
          "name": "",
          "type": "uint256"
        }
      ],
      "payable": false,
      "stateMutability": "view",
      "type": "function"
    },
    {
      "constant": true,
      "inputs": [],
      "name": "MAX_BALANCE",
      "outputs": [
        {
          "internalType": "uint256",
          "name": "",
          "type": "uint256"
        }
      ],
      "payable": false,
      "stateMutability": "view",
      "type": "function"
    },
    {
      "constant": true,
      "inputs": [],
      "name": "MAX_BOUND_TOKENS",
      "outputs": [
        {
          "internalType": "uint256",
          "name": "",
          "type": "uint256"
        }
      ],
      "payable": false,
      "stateMutability": "view",
      "type": "function"
    },
    {
      "constant": true,
      "inputs": [],
      "name": "MAX_BPOW_BASE",
      "outputs": [
        {
          "internalType": "uint256",
          "name": "",
          "type": "uint256"
        }
      ],
      "payable": false,
      "stateMutability": "view",
      "type": "function"
    },
    {
      "constant": true,
      "inputs": [],
      "name": "MAX_FEE",
      "outputs": [
        {
          "internalType": "uint256",
          "name": "",
          "type": "uint256"
        }
      ],
      "payable": false,
      "stateMutability": "view",
      "type": "function"
    },
    {
      "constant": true,
      "inputs": [],
      "name": "MAX_IN_RATIO",
      "outputs": [
        {
          "internalType": "uint256",
          "name": "",
          "type": "uint256"
        }
      ],
      "payable": false,
      "stateMutability": "view",
      "type": "function"
    },
    {
      "constant": true,
      "inputs": [],
      "name": "MAX_OUT_RATIO",
      "outputs": [
        {
          "internalType": "uint256",
          "name": "",
          "type": "uint256"
        }
      ],
      "payable": false,
      "stateMutability": "view",
      "type": "function"
    },
    {
      "constant": true,
      "inputs": [],
      "name": "MAX_TOTAL_WEIGHT",
      "outputs": [
        {
          "internalType": "uint256",
          "name": "",
          "type": "uint256"
        }
      ],
      "payable": false,
      "stateMutability": "view",
      "type": "function"
    },
    {
      "constant": true,
      "inputs": [],
      "name": "MAX_WEIGHT",
      "outputs": [
        {
          "internalType": "uint256",
          "name": "",
          "type": "uint256"
        }
      ],
      "payable": false,
      "stateMutability": "view",
      "type": "function"
    },
    {
      "constant": true,
      "inputs": [],
      "name": "MIN_BALANCE",
      "outputs": [
        {
          "internalType": "uint256",
          "name": "",
          "type": "uint256"
        }
      ],
      "payable": false,
      "stateMutability": "view",
      "type": "function"
    },
    {
      "constant": true,
      "inputs": [],
      "name": "MIN_BPOW_BASE",
      "outputs": [
        {
          "internalType": "uint256",
          "name": "",
          "type": "uint256"
        }
      ],
      "payable": false,
      "stateMutability": "view",
      "type": "function"
    },
    {
      "constant": true,
      "inputs": [],
      "name": "MIN_FEE",
      "outputs": [
        {
          "internalType": "uint256",
          "name": "",
          "type": "uint256"
        }
      ],
      "payable": false,
      "stateMutability": "view",
      "type": "function"
    },
    {
      "constant": true,
      "inputs": [],
      "name": "MIN_POOL_SUPPLY",
      "outputs": [
        {
          "internalType": "uint256",
          "name": "",
          "type": "uint256"
        }
      ],
      "payable": false,
      "stateMutability": "view",
      "type": "function"
    },
    {
      "constant": true,
      "inputs": [],
      "name": "MIN_WEIGHT",
      "outputs": [
        {
          "internalType": "uint256",
          "name": "",
          "type": "uint256"
        }
      ],
      "payable": false,
      "stateMutability": "view",
      "type": "function"
    },
    {
      "constant": true,
      "inputs": [
        {
          "internalType": "address",
          "name": "src",
          "type": "address"
        },
        {
          "internalType": "address",
          "name": "dst",
          "type": "address"
        }
      ],
      "name": "allowance",
      "outputs": [
        {
          "internalType": "uint256",
          "name": "",
          "type": "uint256"
        }
      ],
      "payable": false,
      "stateMutability": "view",
      "type": "function"
    },
    {
      "constant": false,
      "inputs": [
        {
          "internalType": "address",
          "name": "dst",
          "type": "address"
        },
        {
          "internalType": "uint256",
          "name": "amt",
          "type": "uint256"
        }
      ],
      "name": "approve",
      "outputs": [
        {
          "internalType": "bool",
          "name": "",
          "type": "bool"
        }
      ],
      "payable": false,
      "stateMutability": "nonpayable",
      "type": "function"
    },
    {
      "constant": true,
      "inputs": [
        {
          "internalType": "address",
          "name": "whom",
          "type": "address"
        }
      ],
      "name": "balanceOf",
      "outputs": [
        {
          "internalType": "uint256",
          "name": "",
          "type": "uint256"
        }
      ],
      "payable": false,
      "stateMutability": "view",
      "type": "function"
    },
    {
      "constant": false,
      "inputs": [
        {
          "internalType": "address",
          "name": "dst",
          "type": "address"
        },
        {
          "internalType": "uint256",
          "name": "amt",
          "type": "uint256"
        }
      ],
      "name": "decreaseApproval",
      "outputs": [
        {
          "internalType": "bool",
          "name": "",
          "type": "bool"
        }
      ],
      "payable": false,
      "stateMutability": "nonpayable",
      "type": "function"
    },
    {
      "constant": true,
      "inputs": [],
      "name": "getColor",
      "outputs": [
        {
          "internalType": "bytes32",
          "name": "",
          "type": "bytes32"
        }
      ],
      "payable": false,
      "stateMutability": "view",
      "type": "function"
    },
    {
      "constant": false,
      "inputs": [
        {
          "internalType": "address",
          "name": "dst",
          "type": "address"
        },
        {
          "internalType": "uint256",
          "name": "amt",
          "type": "uint256"
        }
      ],
      "name": "increaseApproval",
      "outputs": [
        {
          "internalType": "bool",
          "name": "",
          "type": "bool"
        }
      ],
      "payable": false,
      "stateMutability": "nonpayable",
      "type": "function"
    },
    {
      "constant": true,
      "inputs": [],
      "name": "totalSupply",
      "outputs": [
        {
          "internalType": "uint256",
          "name": "",
          "type": "uint256"
        }
      ],
      "payable": false,
      "stateMutability": "view",
      "type": "function"
    },
    {
      "constant": false,
      "inputs": [
        {
          "internalType": "address",
          "name": "dst",
          "type": "address"
        },
        {
          "internalType": "uint256",
          "name": "amt",
          "type": "uint256"
        }
      ],
      "name": "transfer",
      "outputs": [
        {
          "internalType": "bool",
          "name": "",
          "type": "bool"
        }
      ],
      "payable": false,
      "stateMutability": "nonpayable",
      "type": "function"
    },
    {
      "constant": false,
      "inputs": [
        {
          "internalType": "address",
          "name": "src",
          "type": "address"
        },
        {
          "internalType": "address",
          "name": "dst",
          "type": "address"
        },
        {
          "internalType": "uint256",
          "name": "amt",
          "type": "uint256"
        }
      ],
      "name": "transferFrom",
      "outputs": [
        {
          "internalType": "bool",
          "name": "",
          "type": "bool"
        }
      ],
      "payable": false,
      "stateMutability": "nonpayable",
      "type": "function"
    },
    {
      "constant": false,
      "inputs": [
        {
          "internalType": "uint256",
          "name": "amt",
          "type": "uint256"
        }
      ],
      "name": "mint",
      "outputs": [],
      "payable": false,
      "stateMutability": "nonpayable",
      "type": "function"
    },
    {
      "constant": false,
      "inputs": [
        {
          "internalType": "uint256",
          "name": "amt",
          "type": "uint256"
        }
      ],
      "name": "burn",
      "outputs": [],
      "payable": false,
      "stateMutability": "nonpayable",
      "type": "function"
    }
  ],
  "bytecode": "0x608060405234801561001057600080fd5b50610bfb806100206000396000f3fe608060405234801561001057600080fd5b50600436106101c6576000357c0100000000000000000000000000000000000000000000000000000000900480639a86139b11610116578063c36596a6116100b4578063dd62ed3e1161008e578063dd62ed3e14610399578063def92c69146103c7578063e4a28a521461020b578063ec093021146103cf576101c6565b8063c36596a614610235578063c6580d1214610365578063d73dd6231461036d576101c6565b8063b0e0d136116100f0578063b0e0d13614610345578063ba019dab1461034d578063bc063e1a14610355578063bc694ea21461035d576101c6565b80639a86139b146102f4578063a0712d68146102fc578063a9059cbb14610319576101c6565b806342966c681161018357806376c7a3c71161015d57806376c7a3c7146102e45780637e88781c14610235578063867378c5146102e4578063992e2a92146102ec576101c6565b806342966c6814610273578063661884631461029257806370a08231146102be576101c6565b8063095ea7b3146101cb57806309a3bbe41461020b57806318160ddd14610225578063189d00ca1461022d578063218b53821461023557806323b872dd1461023d575b600080fd5b6101f7600480360360408110156101e157600080fd5b50600160a060020a0381351690602001356103d7565b604080519115158252519081900360200190f35b610213610429565b60408051918252519081900360200190f35b610213610436565b61021361043c565b610213610450565b6101f76004803603606081101561025357600080fd5b50600160a060020a0381358116916020810135909116906040013561045c565b6102906004803603602081101561028957600080fd5b50356105b9565b005b6101f7600480360360408110156102a857600080fd5b50600160a060020a0381351690602001356105cf565b610213600480360360208110156102d457600080fd5b5035600160a060020a031661069f565b6102136106ba565b6102136106cc565b6102136106d8565b6102906004803603602081101561031257600080fd5b50356106fc565b6101f76004803603604081101561032f57600080fd5b50600160a060020a03813516906020013561070f565b610213610725565b61021361072a565b61021361072f565b61021361073f565b61021361074b565b6101f76004803603604081101561038357600080fd5b50600160a060020a03813516906020013561075c565b610213600480360360408110156103af57600080fd5b50600160a060020a03813581169160200135166107d9565b610213610802565b610213610813565b33600081815260208181526040808320600160a060020a03871680855290835281842086905581518681529151939490939092600080516020610ba7833981519152928290030190a350600192915050565b6802b5e3af16b188000081565b60025490565b6402540be400670de0b6b3a76400005b0481565b670de0b6b3a764000081565b600033600160a060020a03851614806104965750600160a060020a0384166000908152602081815260408083203384529091529020548211155b6104ea576040805160e560020a62461bcd02815260206004820152601560248201527f4552525f42544f4b454e5f4241445f43414c4c45520000000000000000000000604482015290519081900360640190fd5b6104f5848484610823565b33600160a060020a038516148015906105315750600160a060020a03841660009081526020818152604080832033845290915290205460001914155b156105af57600160a060020a0384166000908152602081815260408083203384529091529020546105629083610941565b600160a060020a038581166000908152602081815260408083203380855290835292819020859055805194855251928716939192600080516020610ba78339815191529281900390910190a35b5060019392505050565b6105c333826109b2565b6105cc816109c1565b50565b33600090815260208181526040808320600160a060020a0386168452909152812054808311156106205733600090815260208181526040808320600160a060020a038816845290915281205561064d565b61062a8184610941565b33600090815260208181526040808320600160a060020a03891684529091529020555b33600081815260208181526040808320600160a060020a038916808552908352928190205481519081529051929392600080516020610ba7833981519152929181900390910190a35060019392505050565b600160a060020a031660009081526001602052604090205490565b620f4240670de0b6b3a764000061044c565b6704a03ce68d21555681565b7f42524f4e5a45000000000000000000000000000000000000000000000000000090565b61070581610a9d565b6105cc3382610b12565b600061071c338484610823565b50600192915050565b600881565b600181565b600a670de0b6b3a764000061044c565b671bc16d674ec7ffff81565b612710670de0b6b3a764000061044c565b33600090815260208181526040808320600160a060020a03861684529091528120546107889083610b1d565b33600081815260208181526040808320600160a060020a038916808552908352928190208590558051948552519193600080516020610ba7833981519152929081900390910190a350600192915050565b600160a060020a0391821660009081526020818152604080832093909416825291909152205490565b6c0c9f2c9cd04674edea4000000081565b6002670de0b6b3a764000061044c565b600160a060020a038316600090815260016020526040902054811115610893576040805160e560020a62461bcd02815260206004820152601460248201527f4552525f494e53554646494349454e545f42414c000000000000000000000000604482015290519081900360640190fd5b600160a060020a0383166000908152600160205260409020546108b69082610941565b600160a060020a0380851660009081526001602052604080822093909355908416815220546108e59082610b1d565b600160a060020a0380841660008181526001602090815260409182902094909455805185815290519193928716927fddf252ad1be2c89b69c2b068fc378daa952ba7f163c4a11628f55a4df523b3ef92918290030190a3505050565b60008060006109508585610b81565b9150915080156109aa576040805160e560020a62461bcd02815260206004820152601160248201527f4552525f5355425f554e444552464c4f57000000000000000000000000000000604482015290519081900360640190fd5b509392505050565b6109bd823083610823565b5050565b30600090815260016020526040902054811115610a28576040805160e560020a62461bcd02815260206004820152601460248201527f4552525f494e53554646494349454e545f42414c000000000000000000000000604482015290519081900360640190fd5b30600090815260016020526040902054610a429082610941565b30600090815260016020526040902055600254610a5f9082610941565b60025560408051828152905160009130917fddf252ad1be2c89b69c2b068fc378daa952ba7f163c4a11628f55a4df523b3ef9181900360200190a350565b30600090815260016020526040902054610ab79082610b1d565b30600090815260016020526040902055600254610ad49082610b1d565b60025560408051828152905130916000917fddf252ad1be2c89b69c2b068fc378daa952ba7f163c4a11628f55a4df523b3ef9181900360200190a350565b6109bd308383610823565b600082820183811015610b7a576040805160e560020a62461bcd02815260206004820152601060248201527f4552525f4144445f4f564552464c4f5700000000000000000000000000000000604482015290519081900360640190fd5b9392505050565b600080828410610b975750508082036000610b9f565b505081810360015b925092905056fe8c5be1e5ebec7d5bd14f71427d1e84f3dd0314c0f7b2291e5b200ac8c7c3b925a265627a7a72315820864e69b7fb413db9db9972aea7fabcf4db7b28a939dc02d1652592ae3a76419f64736f6c634300050c0032",
  "source": "// This program is free software: you can redistribute it and/or modify\n// it under the terms of the GNU General Public License as published by\n// the Free Software Foundation, either version 3 of the License, or\n// (at your option) any later version.\n\n// This program is distributed in the hope that it will be useful,\n// but WITHOUT ANY WARRANTY; without even the implied warranty of\n// MERCHANTABILITY or FITNESS FOR A PARTICULAR PURPOSE.  See the\n// GNU General Public License for more details.\n\n// You should have received a copy of the GNU General Public License\n// along with this program.  If not, see <http://www.gnu.org/licenses/>.\n\npragma solidity 0.5.12;\n\nimport \"../BToken.sol\";\n\n// TToken is a test token with public `mint` and `burn`.\n\ncontract TToken is BToken {\n    function mint(uint amt) external {\n        _mint(amt);\n        _push(msg.sender, amt);\n    }\n    function burn(uint amt) external {\n        _pull(msg.sender, amt);\n        _burn(amt);\n    }\n}\n",
  "sourcePath": "/Users/mike/Projects/balancer/balancer-core/contracts/test/TToken.sol",
  "compiler": {
    "name": "solc",
    "version": "0.5.12+commit.7709ece9.Emscripten.clang"
  },
  "schemaVersion": "3.0.16",
  "updatedAt": "2019-12-06T19:39:51.050Z",
  "devdoc": {
    "methods": {}
  },
  "userdoc": {
    "methods": {}
  }
}