{
  "contractName": "TTokenFactory",
  "abi": [
    {
      "constant": false,
      "inputs": [
        {
          "internalType": "bytes32",
          "name": "name",
          "type": "bytes32"
        }
      ],
      "name": "get",
      "outputs": [
        {
          "internalType": "contract TToken",
          "name": "",
          "type": "address"
        }
      ],
      "payable": false,
      "stateMutability": "nonpayable",
      "type": "function"
    },
    {
      "constant": false,
      "inputs": [
        {
          "internalType": "bytes32",
          "name": "name",
          "type": "bytes32"
        }
      ],
      "name": "build",
      "outputs": [
        {
          "internalType": "contract TToken",
          "name": "",
          "type": "address"
        }
      ],
      "payable": false,
      "stateMutability": "nonpayable",
      "type": "function"
    }
  ],
  "bytecode": "0x608060405234801561001057600080fd5b506109e8806100206000396000f3fe608060405234801561001057600080fd5b5060043610610052577c010000000000000000000000000000000000000000000000000000000060003504638eaa6ac08114610057578063956122e21461009d575b600080fd5b6100746004803603602081101561006d57600080fd5b50356100ba565b6040805173ffffffffffffffffffffffffffffffffffffffff9092168252519081900360200190f35b610074600480360360208110156100b357600080fd5b50356100e2565b60009081526020819052604090205473ffffffffffffffffffffffffffffffffffffffff1690565b60006040516100f09061015a565b604051809103906000f08015801561010c573d6000803e3d6000fd5b50600092835260208390526040909220805473ffffffffffffffffffffffffffffffffffffffff191673ffffffffffffffffffffffffffffffffffffffff9384161790819055909116919050565b61084c806101688339019056fe608060405234801561001057600080fd5b5061082c806100206000396000f3fe608060405234801561001057600080fd5b50600436106100b0576000357c01000000000000000000000000000000000000000000000000000000009004806370a082311161008357806370a08231146101645780639a86139b1461018a578063a0712d6814610192578063a9059cbb146101af578063dd62ed3e146101db576100b0565b8063095ea7b3146100b557806318160ddd146100f557806323b872dd1461010f57806342966c6814610145575b600080fd5b6100e1600480360360408110156100cb57600080fd5b50600160a060020a038135169060200135610209565b604080519115158252519081900360200190f35b6100fd61026d565b60408051918252519081900360200190f35b6100e16004803603606081101561012557600080fd5b50600160a060020a03813581169160208101359091169060400135610273565b6101626004803603602081101561015b57600080fd5b5035610408565b005b6100fd6004803603602081101561017a57600080fd5b5035600160a060020a031661041e565b6100fd610439565b610162600480360360208110156101a857600080fd5b503561045d565b6100e1600480360360408110156101c557600080fd5b50600160a060020a038135169060200135610470565b6100fd600480360360408110156101f157600080fd5b50600160a060020a03813581169160200135166104c6565b33600081815260208181526040808320600160a060020a038716808552908352818420869055815186815291519394909390927f8c5be1e5ebec7d5bd14f71427d1e84f3dd0314c0f7b2291e5b200ac8c7c3b925928290030190a350600192915050565b60025490565b600033600160a060020a03851614806102ad5750600160a060020a0384166000908152602081815260408083203384529091529020548211155b61031857604080517f08c379a000000000000000000000000000000000000000000000000000000000815260206004820152601560248201527f4552525f42544f4b454e5f4241445f43414c4c45520000000000000000000000604482015290519081900360640190fd5b6103238484846104ef565b82600160a060020a031684600160a060020a03167fddf252ad1be2c89b69c2b068fc378daa952ba7f163c4a11628f55a4df523b3ef846040518082815260200191505060405180910390a333600160a060020a038516148015906103aa5750600160a060020a03841660009081526020818152604080832033845290915290205460001914155b156103fe57600160a060020a0384166000908152602081815260408083203384529091529020546103db908361059d565b600160a060020a0385166000908152602081815260408083203384529091529020555b5060019392505050565b6104123382610614565b61041b81610623565b50565b600160a060020a031660009081526001602052604090205490565b7f42524f4e5a45000000000000000000000000000000000000000000000000000090565b61046681610693565b61041b3382610703565b600061047d3384846104ef565b604080518381529051600160a060020a0385169133917fddf252ad1be2c89b69c2b068fc378daa952ba7f163c4a11628f55a4df523b3ef9181900360200190a350600192915050565b600160a060020a0391821660009081526020818152604080832093909416825291909152205490565b600160a060020a038316600090815260016020526040902054610512908261059d565b600160a060020a038085166000908152600160205260408082209390935590841681522054610541908261070e565b600160a060020a0380841660008181526001602090815260409182902094909455805185815290519193928716927fdeb3a6837278f6e9914a507e4d73f08e841d8fca434fb97d4307b3b0d3d6b10592918290030190a3505050565b60008183101561060e57604080517f08c379a000000000000000000000000000000000000000000000000000000000815260206004820152601460248201527f4552525f42544f4b454e5f554e444552464c4f57000000000000000000000000604482015290519081900360640190fd5b50900390565b61061f8230836104ef565b5050565b3060009081526001602052604090205461063d908261059d565b3060009081526001602052604090205560025461065a908261059d565b6002556040805182815290517fb90306ad06b2a6ff86ddc9327db583062895ef6540e62dc50add009db5b356eb9181900360200190a150565b306000908152600160205260409020546106ad908261070e565b306000908152600160205260409020556002546106ca908261070e565b6002556040805182815290517f07883703ed0e86588a40d76551c92f8a4b329e3bf19765e0e6749473c1a846659181900360200190a150565b61061f3083836104ef565b60408051808201909152601081527f4552525f4144445f4f564552464c4f5700000000000000000000000000000000602082015260009083830190848210156107ef576040517f08c379a00000000000000000000000000000000000000000000000000000000081526004018080602001828103825283818151815260200191508051906020019080838360005b838110156107b457818101518382015260200161079c565b50505050905090810190601f1680156107e15780820380516001836020036101000a031916815260200191505b509250505060405180910390fd5b50939250505056fea265627a7a7231582024fd12524d49525b16bd37754944020f7cd314481fccaa82fa9e636ad90b972964736f6c634300050b0032a265627a7a723158206700caabd9eeb680ffc7897612886dee0467cc83feb55729b37c358b010ce9ae64736f6c634300050b0032",
  "source": "// This program is free software: you can redistribute it and/or modify\n// it under the terms of the GNU General Public License as published by\n// the Free Software Foundation, either version 3 of the License, or\n// (at your option) any later version.\n\n// This program is distributed in the hope that it will be useful,\n// but WITHOUT ANY WARRANTY; without even the implied warranty of\n// MERCHANTABILITY or FITNESS FOR A PARTICULAR PURPOSE.  See the\n// GNU General Public License for more details.\n\n// You should have received a copy of the GNU General Public License\n// along with this program.  If not, see <http://www.gnu.org/licenses/>.\n\npragma solidity ^0.5.11;\n\nimport \"contracts/TToken.sol\";\n\ncontract TTokenFactory {\n    mapping(bytes32=>TToken) tokens;\n    function get(bytes32 name) public returns (TToken) {\n        return tokens[name];\n    }\n    function build(bytes32 name) public returns (TToken) {\n        tokens[name] = new TToken();\n        return tokens[name];\n    }\n}\n",
  "sourcePath": "/Users/thomas/Code/client/balancer/balancer-core/contracts/TTokenFactory.sol",
  "compiler": {
    "name": "solc",
    "version": "0.5.11+commit.c082d0b4.Emscripten.clang"
  },
  "schemaVersion": "3.0.11",
  "updatedAt": "2019-10-22T14:50:06.765Z",
  "devdoc": {
    "methods": {}
  },
  "userdoc": {
    "methods": {}
  }
}